{
  "contractName": "ContinentAuction",
  "abi": [
    {
      "inputs": [
        {
          "internalType": "address",
          "name": "_continentToken",
          "type": "address"
        }
      ],
      "stateMutability": "nonpayable",
      "type": "constructor"
    },
    {
      "anonymous": false,
      "inputs": [
        {
          "indexed": true,
          "internalType": "address",
          "name": "winner",
          "type": "address"
        },
        {
          "indexed": false,
          "internalType": "uint256",
          "name": "tokenId",
          "type": "uint256"
        },
        {
          "indexed": false,
          "internalType": "uint256",
          "name": "amount",
          "type": "uint256"
        }
      ],
      "name": "AuctionEnded",
      "type": "event"
    },
    {
      "anonymous": false,
      "inputs": [
        {
          "indexed": true,
          "internalType": "uint256",
          "name": "tokenId",
          "type": "uint256"
        },
        {
          "indexed": false,
          "internalType": "uint256",
          "name": "startTime",
          "type": "uint256"
        },
        {
          "indexed": false,
          "internalType": "uint256",
          "name": "endTime",
          "type": "uint256"
        }
      ],
      "name": "AuctionStarted",
      "type": "event"
    },
    {
      "anonymous": false,
      "inputs": [
        {
          "indexed": true,
          "internalType": "address",
          "name": "bidder",
          "type": "address"
        },
        {
          "indexed": false,
          "internalType": "uint256",
          "name": "tokenId",
          "type": "uint256"
        },
        {
          "indexed": false,
          "internalType": "uint256",
          "name": "amount",
          "type": "uint256"
        }
      ],
      "name": "BidPlaced",
      "type": "event"
    },
    {
      "anonymous": false,
      "inputs": [
        {
          "indexed": true,
          "internalType": "address",
          "name": "previousOwner",
          "type": "address"
        },
        {
          "indexed": true,
          "internalType": "address",
          "name": "newOwner",
          "type": "address"
        }
      ],
      "name": "OwnershipTransferred",
      "type": "event"
    },
    {
      "inputs": [],
      "name": "MAX_PURCHASE_PER_WALLET",
      "outputs": [
        {
          "internalType": "uint256",
          "name": "",
          "type": "uint256"
        }
      ],
      "stateMutability": "view",
      "type": "function",
      "constant": true
    },
    {
      "inputs": [
        {
          "internalType": "uint256",
          "name": "",
          "type": "uint256"
        }
      ],
      "name": "auctions",
      "outputs": [
        {
          "internalType": "uint256",
          "name": "tokenId",
          "type": "uint256"
        },
        {
          "internalType": "uint256",
          "name": "bidIncrement",
          "type": "uint256"
        },
        {
          "internalType": "bool",
          "name": "ended",
          "type": "bool"
        },
        {
          "internalType": "uint256",
          "name": "highestBid",
          "type": "uint256"
        },
        {
          "internalType": "address",
          "name": "highestBidder",
          "type": "address"
        },
        {
          "internalType": "uint256",
          "name": "startTime",
          "type": "uint256"
        },
        {
          "internalType": "uint256",
          "name": "endTime",
          "type": "uint256"
        }
      ],
      "stateMutability": "view",
      "type": "function",
      "constant": true
    },
    {
      "inputs": [],
      "name": "continentTokenContract",
      "outputs": [
        {
          "internalType": "contract ContinentToken",
          "name": "",
          "type": "address"
        }
      ],
      "stateMutability": "view",
      "type": "function",
      "constant": true
    },
    {
      "inputs": [],
      "name": "owner",
      "outputs": [
        {
          "internalType": "address",
          "name": "",
          "type": "address"
        }
      ],
      "stateMutability": "view",
      "type": "function",
      "constant": true
    },
    {
      "inputs": [],
      "name": "renounceOwnership",
      "outputs": [],
      "stateMutability": "nonpayable",
      "type": "function"
    },
    {
      "inputs": [
        {
          "internalType": "address",
          "name": "newOwner",
          "type": "address"
        }
      ],
      "name": "transferOwnership",
      "outputs": [],
      "stateMutability": "nonpayable",
      "type": "function"
    },
    {
      "inputs": [
        {
          "internalType": "uint256",
          "name": "_tokenId",
          "type": "uint256"
        },
        {
          "internalType": "uint256",
          "name": "_startPrice",
          "type": "uint256"
        },
        {
          "internalType": "uint256",
          "name": "_bidIncrement",
          "type": "uint256"
        },
        {
          "internalType": "uint256",
          "name": "_startTime",
          "type": "uint256"
        },
        {
          "internalType": "uint256",
          "name": "_endTime",
          "type": "uint256"
        }
      ],
      "name": "createAuction",
      "outputs": [],
      "stateMutability": "nonpayable",
      "type": "function"
    },
    {
      "inputs": [
        {
          "internalType": "uint256",
          "name": "_tokenId",
          "type": "uint256"
        }
      ],
      "name": "getAuction",
      "outputs": [
        {
          "internalType": "uint256",
          "name": "",
          "type": "uint256"
        },
        {
          "internalType": "uint256",
          "name": "",
          "type": "uint256"
        },
        {
          "internalType": "uint256",
          "name": "",
          "type": "uint256"
        },
        {
          "internalType": "uint256",
          "name": "",
          "type": "uint256"
        },
        {
          "internalType": "uint256",
          "name": "",
          "type": "uint256"
        },
        {
          "internalType": "bool",
          "name": "",
          "type": "bool"
        },
        {
          "internalType": "address",
          "name": "",
          "type": "address"
        }
      ],
      "stateMutability": "view",
      "type": "function",
      "constant": true
    },
    {
      "inputs": [
        {
          "internalType": "uint256",
          "name": "_tokenId",
          "type": "uint256"
        }
      ],
      "name": "endAuction",
      "outputs": [],
      "stateMutability": "nonpayable",
      "type": "function"
    },
    {
      "inputs": [
        {
          "internalType": "uint256",
          "name": "_tokenId",
          "type": "uint256"
        }
      ],
      "name": "placeBid",
      "outputs": [],
      "stateMutability": "payable",
      "type": "function",
      "payable": true
    },
    {
      "inputs": [
        {
          "internalType": "uint256",
          "name": "_tokenId",
          "type": "uint256"
        }
      ],
      "name": "getBids",
      "outputs": [
        {
          "components": [
            {
              "internalType": "uint256",
              "name": "amount",
              "type": "uint256"
            },
            {
              "internalType": "uint256",
              "name": "timestamp",
              "type": "uint256"
            }
          ],
          "internalType": "struct ContinentAuction.BidItem[]",
          "name": "",
          "type": "tuple[]"
        }
      ],
      "stateMutability": "view",
      "type": "function",
      "constant": true
    },
    {
      "inputs": [],
      "name": "withdraw",
      "outputs": [],
      "stateMutability": "nonpayable",
      "type": "function"
    }
  ],
  "bytecode": "0x60806040523480156200001157600080fd5b5060405162002254380380620022548339818101604052810190620000379190620001d5565b620000576200004b6200009f60201b60201c565b620000a760201b60201c565b80600260006101000a81548173ffffffffffffffffffffffffffffffffffffffff021916908373ffffffffffffffffffffffffffffffffffffffff1602179055505062000207565b600033905090565b60008060009054906101000a900473ffffffffffffffffffffffffffffffffffffffff169050816000806101000a81548173ffffffffffffffffffffffffffffffffffffffff021916908373ffffffffffffffffffffffffffffffffffffffff1602179055508173ffffffffffffffffffffffffffffffffffffffff168173ffffffffffffffffffffffffffffffffffffffff167f8be0079c531659141344cd1fd0a4f28419497f9722a3daafe3b4186f6b6457e060405160405180910390a35050565b600080fd5b600073ffffffffffffffffffffffffffffffffffffffff82169050919050565b60006200019d8262000170565b9050919050565b620001af8162000190565b8114620001bb57600080fd5b50565b600081519050620001cf81620001a4565b92915050565b600060208284031215620001ee57620001ed6200016b565b5b6000620001fe84828501620001be565b91505092915050565b61203d80620002176000396000f3fe6080604052600436106100a75760003560e01c806378bd79351161006457806378bd7935146101b05780638a157df3146101f35780638da5cb5b1461021c5780639979ef4514610247578063b9a2de3a14610263578063f2fde38b1461028c576100a7565b8063131d9a27146100ac5780632c335e0e146100e95780633ccfd60b146101145780634f93db031461012b578063571a26a014610156578063715018a614610199575b600080fd5b3480156100b857600080fd5b506100d360048036038101906100ce9190611438565b6102b5565b6040516100e09190611552565b60405180910390f35b3480156100f557600080fd5b506100fe610381565b60405161010b9190611583565b60405180910390f35b34801561012057600080fd5b50610129610386565b005b34801561013757600080fd5b50610140610434565b60405161014d919061161d565b60405180910390f35b34801561016257600080fd5b5061017d60048036038101906101789190611438565b61045a565b6040516101909796959493929190611674565b60405180910390f35b3480156101a557600080fd5b506101ae6104c9565b005b3480156101bc57600080fd5b506101d760048036038101906101d29190611438565b610551565b6040516101ea97969594939291906116e3565b60405180910390f35b3480156101ff57600080fd5b5061021a60048036038101906102159190611752565b61062d565b005b34801561022857600080fd5b506102316109fe565b60405161023e91906117cd565b60405180910390f35b610261600480360381019061025c9190611438565b610a27565b005b34801561026f57600080fd5b5061028a60048036038101906102859190611438565b610e86565b005b34801561029857600080fd5b506102b360048036038101906102ae9190611814565b611146565b005b606060006001600084815260200190815260200160002060040160003373ffffffffffffffffffffffffffffffffffffffff1673ffffffffffffffffffffffffffffffffffffffff168152602001908152602001600020805480602002602001604051908101604052809291908181526020016000905b828210156103725783829060005260206000209060020201604051806040016040529081600082015481526020016001820154815250508152602001906001019061032c565b50505050905080915050919050565b600181565b61038e61123d565b73ffffffffffffffffffffffffffffffffffffffff166103ac6109fe565b73ffffffffffffffffffffffffffffffffffffffff1614610402576040517f08c379a00000000000000000000000000000000000000000000000000000000081526004016103f99061189e565b60405180910390fd5b6104324761040e6109fe565b73ffffffffffffffffffffffffffffffffffffffff1661124590919063ffffffff16565b565b600260009054906101000a900473ffffffffffffffffffffffffffffffffffffffff1681565b60016020528060005260406000206000915090508060000154908060010154908060020160009054906101000a900460ff16908060030154908060050160009054906101000a900473ffffffffffffffffffffffffffffffffffffffff16908060060154908060070154905087565b6104d161123d565b73ffffffffffffffffffffffffffffffffffffffff166104ef6109fe565b73ffffffffffffffffffffffffffffffffffffffff1614610545576040517f08c379a000000000000000000000000000000000000000000000000000000000815260040161053c9061189e565b60405180910390fd5b61054f6000611339565b565b600080600080600080600087600160008a815260200190815260200160002060010154600160008b815260200190815260200160002060030154600160008c815260200190815260200160002060060154600160008d815260200190815260200160002060070154600160008e815260200190815260200160002060020160009054906101000a900460ff16600160008f815260200190815260200160002060050160009054906101000a900473ffffffffffffffffffffffffffffffffffffffff169650965096509650965096509650919395979092949650565b61063561123d565b73ffffffffffffffffffffffffffffffffffffffff166106536109fe565b73ffffffffffffffffffffffffffffffffffffffff16146106a9576040517f08c379a00000000000000000000000000000000000000000000000000000000081526004016106a09061189e565b60405180910390fd5b600260009054906101000a900473ffffffffffffffffffffffffffffffffffffffff1673ffffffffffffffffffffffffffffffffffffffff16600260009054906101000a900473ffffffffffffffffffffffffffffffffffffffff1673ffffffffffffffffffffffffffffffffffffffff16636352211e876040518263ffffffff1660e01b815260040161073d9190611583565b602060405180830381865afa15801561075a573d6000803e3d6000fd5b505050506040513d601f19601f8201168201806040525081019061077e91906118d3565b73ffffffffffffffffffffffffffffffffffffffff16146107d4576040517f08c379a00000000000000000000000000000000000000000000000000000000081526004016107cb9061194c565b60405180910390fd5b600060016000878152602001908152602001600020600701541461082d576040517f08c379a0000000000000000000000000000000000000000000000000000000008152600401610824906119b8565b60405180910390fd5b80821061086f576040517f08c379a000000000000000000000000000000000000000000000000000000000815260040161086690611a24565b60405180910390fd5b4281116108b1576040517f08c379a00000000000000000000000000000000000000000000000000000000081526004016108a890611a90565b60405180910390fd5b84600160008781526020019081526020016000206000018190555082600160008781526020019081526020016000206001018190555060006001600087815260200190815260200160002060020160006101000a81548160ff02191690831515021790555083600160008781526020019081526020016000206003018190555060006001600087815260200190815260200160002060050160006101000a81548173ffffffffffffffffffffffffffffffffffffffff021916908373ffffffffffffffffffffffffffffffffffffffff160217905550816001600087815260200190815260200160002060060181905550806001600087815260200190815260200160002060070181905550847f44c53be110c6aa83aa83cd02e351ed172359268272ee1b5d31c0fe48db35c6c783836040516109ef929190611ab0565b60405180910390a25050505050565b60008060009054906101000a900473ffffffffffffffffffffffffffffffffffffffff16905090565b6000600160008381526020019081526020016000206007015411610a80576040517f08c379a0000000000000000000000000000000000000000000000000000000008152600401610a7790611b25565b60405180910390fd5b60016000828152602001908152602001600020600701544210610ad8576040517f08c379a0000000000000000000000000000000000000000000000000000000008152600401610acf90611b91565b60405180910390fd5b6001600260009054906101000a900473ffffffffffffffffffffffffffffffffffffffff1673ffffffffffffffffffffffffffffffffffffffff166370a08231336040518263ffffffff1660e01b8152600401610b3591906117cd565b602060405180830381865afa158015610b52573d6000803e3d6000fd5b505050506040513d601f19601f82011682018060405250810190610b769190611bc6565b10610bb6576040517f08c379a0000000000000000000000000000000000000000000000000000000008152600401610bad90611c3f565b60405180910390fd5b600060016000838152602001908152602001600020600101546001600084815260200190815260200160002060030154610bf09190611c8e565b905080341015610c35576040517f08c379a0000000000000000000000000000000000000000000000000000000008152600401610c2c90611d7c565b60405180910390fd5b600073ffffffffffffffffffffffffffffffffffffffff166001600084815260200190815260200160002060050160009054906101000a900473ffffffffffffffffffffffffffffffffffffffff1673ffffffffffffffffffffffffffffffffffffffff1614610d1b5760006001600084815260200190815260200160002060050160009054906101000a900473ffffffffffffffffffffffffffffffffffffffff169050610d1960016000858152602001908152602001600020600301548273ffffffffffffffffffffffffffffffffffffffff1661124590919063ffffffff16565b505b346001600084815260200190815260200160002060030181905550336001600084815260200190815260200160002060050160006101000a81548173ffffffffffffffffffffffffffffffffffffffff021916908373ffffffffffffffffffffffffffffffffffffffff1602179055506001600083815260200190815260200160002060040160003373ffffffffffffffffffffffffffffffffffffffff1673ffffffffffffffffffffffffffffffffffffffff1681526020019081526020016000206040518060400160405280348152602001428152509080600181540180825580915050600190039060005260206000209060020201600090919091909150600082015181600001556020820151816001015550503373ffffffffffffffffffffffffffffffffffffffff167fdf8644c0a4c21ed214ce69f395675b3a5fcd1039083daea5058898de40ea31498334604051610e7a929190611ab0565b60405180910390a25050565b610e8e61123d565b73ffffffffffffffffffffffffffffffffffffffff16610eac6109fe565b73ffffffffffffffffffffffffffffffffffffffff1614610f02576040517f08c379a0000000000000000000000000000000000000000000000000000000008152600401610ef99061189e565b60405180910390fd5b6000600160008381526020019081526020016000206007015411610f5b576040517f08c379a0000000000000000000000000000000000000000000000000000000008152600401610f5290611b25565b60405180910390fd5b6001600082815260200190815260200160002060070154421015610fb4576040517f08c379a0000000000000000000000000000000000000000000000000000000008152600401610fab90611de8565b60405180910390fd5b600180600083815260200190815260200160002060020160006101000a81548160ff0219169083151502179055506001600082815260200190815260200160002060050160009054906101000a900473ffffffffffffffffffffffffffffffffffffffff1673ffffffffffffffffffffffffffffffffffffffff167fc358e8e3f205b5e7453abd5cbac388ca4552b887b69001bc972b88610c749035826001600085815260200190815260200160002060030154604051611076929190611ab0565b60405180910390a2600260009054906101000a900473ffffffffffffffffffffffffffffffffffffffff1673ffffffffffffffffffffffffffffffffffffffff16633b5165e8826001600085815260200190815260200160002060050160009054906101000a900473ffffffffffffffffffffffffffffffffffffffff166040518363ffffffff1660e01b8152600401611111929190611e08565b600060405180830381600087803b15801561112b57600080fd5b505af115801561113f573d6000803e3d6000fd5b5050505050565b61114e61123d565b73ffffffffffffffffffffffffffffffffffffffff1661116c6109fe565b73ffffffffffffffffffffffffffffffffffffffff16146111c2576040517f08c379a00000000000000000000000000000000000000000000000000000000081526004016111b99061189e565b60405180910390fd5b600073ffffffffffffffffffffffffffffffffffffffff168173ffffffffffffffffffffffffffffffffffffffff1603611231576040517f08c379a000000000000000000000000000000000000000000000000000000000815260040161122890611ea3565b60405180910390fd5b61123a81611339565b50565b600033905090565b80471015611288576040517f08c379a000000000000000000000000000000000000000000000000000000000815260040161127f90611f0f565b60405180910390fd5b60008273ffffffffffffffffffffffffffffffffffffffff16826040516112ae90611f60565b60006040518083038185875af1925050503d80600081146112eb576040519150601f19603f3d011682016040523d82523d6000602084013e6112f0565b606091505b5050905080611334576040517f08c379a000000000000000000000000000000000000000000000000000000000815260040161132b90611fe7565b60405180910390fd5b505050565b60008060009054906101000a900473ffffffffffffffffffffffffffffffffffffffff169050816000806101000a81548173ffffffffffffffffffffffffffffffffffffffff021916908373ffffffffffffffffffffffffffffffffffffffff1602179055508173ffffffffffffffffffffffffffffffffffffffff168173ffffffffffffffffffffffffffffffffffffffff167f8be0079c531659141344cd1fd0a4f28419497f9722a3daafe3b4186f6b6457e060405160405180910390a35050565b600080fd5b6000819050919050565b61141581611402565b811461142057600080fd5b50565b6000813590506114328161140c565b92915050565b60006020828403121561144e5761144d6113fd565b5b600061145c84828501611423565b91505092915050565b600081519050919050565b600082825260208201905092915050565b6000819050602082019050919050565b61149a81611402565b82525050565b6040820160008201516114b66000850182611491565b5060208201516114c96020850182611491565b50505050565b60006114db83836114a0565b60408301905092915050565b6000602082019050919050565b60006114ff82611465565b6115098185611470565b935061151483611481565b8060005b8381101561154557815161152c88826114cf565b9750611537836114e7565b925050600181019050611518565b5085935050505092915050565b6000602082019050818103600083015261156c81846114f4565b905092915050565b61157d81611402565b82525050565b60006020820190506115986000830184611574565b92915050565b600073ffffffffffffffffffffffffffffffffffffffff82169050919050565b6000819050919050565b60006115e36115de6115d98461159e565b6115be565b61159e565b9050919050565b60006115f5826115c8565b9050919050565b6000611607826115ea565b9050919050565b611617816115fc565b82525050565b6000602082019050611632600083018461160e565b92915050565b60008115159050919050565b61164d81611638565b82525050565b600061165e8261159e565b9050919050565b61166e81611653565b82525050565b600060e082019050611689600083018a611574565b6116966020830189611574565b6116a36040830188611644565b6116b06060830187611574565b6116bd6080830186611665565b6116ca60a0830185611574565b6116d760c0830184611574565b98975050505050505050565b600060e0820190506116f8600083018a611574565b6117056020830189611574565b6117126040830188611574565b61171f6060830187611574565b61172c6080830186611574565b61173960a0830185611644565b61174660c0830184611665565b98975050505050505050565b600080600080600060a0868803121561176e5761176d6113fd565b5b600061177c88828901611423565b955050602061178d88828901611423565b945050604061179e88828901611423565b93505060606117af88828901611423565b92505060806117c088828901611423565b9150509295509295909350565b60006020820190506117e26000830184611665565b92915050565b6117f181611653565b81146117fc57600080fd5b50565b60008135905061180e816117e8565b92915050565b60006020828403121561182a576118296113fd565b5b6000611838848285016117ff565b91505092915050565b600082825260208201905092915050565b7f4f776e61626c653a2063616c6c6572206973206e6f7420746865206f776e6572600082015250565b6000611888602083611841565b915061189382611852565b602082019050919050565b600060208201905081810360008301526118b78161187b565b9050919050565b6000815190506118cd816117e8565b92915050565b6000602082840312156118e9576118e86113fd565b5b60006118f7848285016118be565b91505092915050565b7f436f6e74696e656e74206e6f7420696e20636f6e747261637400000000000000600082015250565b6000611936601983611841565b915061194182611900565b602082019050919050565b6000602082019050818103600083015261196581611929565b9050919050565b7f41756374696f6e20616c72656164792065786973747300000000000000000000600082015250565b60006119a2601683611841565b91506119ad8261196c565b602082019050919050565b600060208201905081810360008301526119d181611995565b9050919050565b7f496e76616c696420737461727420616e6420656e642074696d65000000000000600082015250565b6000611a0e601a83611841565b9150611a19826119d8565b602082019050919050565b60006020820190508181036000830152611a3d81611a01565b9050919050565b7f456e642074696d65206d75737420626520696e20746865206675747572650000600082015250565b6000611a7a601e83611841565b9150611a8582611a44565b602082019050919050565b60006020820190508181036000830152611aa981611a6d565b9050919050565b6000604082019050611ac56000830185611574565b611ad26020830184611574565b9392505050565b7f41756374696f6e206e6f74207374617274656400000000000000000000000000600082015250565b6000611b0f601383611841565b9150611b1a82611ad9565b602082019050919050565b60006020820190508181036000830152611b3e81611b02565b9050919050565b7f41756374696f6e20656e64656400000000000000000000000000000000000000600082015250565b6000611b7b600d83611841565b9150611b8682611b45565b602082019050919050565b60006020820190508181036000830152611baa81611b6e565b9050919050565b600081519050611bc08161140c565b92915050565b600060208284031215611bdc57611bdb6113fd565b5b6000611bea84828501611bb1565b91505092915050565b7f42696464657220616c7265616479206f776e73206120636f6e74696e656e7400600082015250565b6000611c29601f83611841565b9150611c3482611bf3565b602082019050919050565b60006020820190508181036000830152611c5881611c1c565b9050919050565b7f4e487b7100000000000000000000000000000000000000000000000000000000600052601160045260246000fd5b6000611c9982611402565b9150611ca483611402565b9250827fffffffffffffffffffffffffffffffffffffffffffffffffffffffffffffffff03821115611cd957611cd8611c5f565b5b828201905092915050565b7f426964206d75737420626520686967686572207468616e2063757272656e742060008201527f626964206279206174206c65617374207468652062696420696e6372656d656e60208201527f7400000000000000000000000000000000000000000000000000000000000000604082015250565b6000611d66604183611841565b9150611d7182611ce4565b606082019050919050565b60006020820190508181036000830152611d9581611d59565b9050919050565b7f41756374696f6e206e6f7420656e646564207965740000000000000000000000600082015250565b6000611dd2601583611841565b9150611ddd82611d9c565b602082019050919050565b60006020820190508181036000830152611e0181611dc5565b9050919050565b6000604082019050611e1d6000830185611574565b611e2a6020830184611665565b9392505050565b7f4f776e61626c653a206e6577206f776e657220697320746865207a65726f206160008201527f6464726573730000000000000000000000000000000000000000000000000000602082015250565b6000611e8d602683611841565b9150611e9882611e31565b604082019050919050565b60006020820190508181036000830152611ebc81611e80565b9050919050565b7f416464726573733a20696e73756666696369656e742062616c616e6365000000600082015250565b6000611ef9601d83611841565b9150611f0482611ec3565b602082019050919050565b60006020820190508181036000830152611f2881611eec565b9050919050565b600081905092915050565b50565b6000611f4a600083611f2f565b9150611f5582611f3a565b600082019050919050565b6000611f6b82611f3d565b9150819050919050565b7f416464726573733a20756e61626c6520746f2073656e642076616c75652c207260008201527f6563697069656e74206d61792068617665207265766572746564000000000000602082015250565b6000611fd1603a83611841565b9150611fdc82611f75565b604082019050919050565b6000602082019050818103600083015261200081611fc4565b905091905056fea2646970667358221220a6ce7b798a74a214c9d8b1f76d318e25c909953eb03061c1a0e203a361afd9fc64736f6c634300080d0033",
  "immutableReferences": {},
  "source": "pragma solidity ^0.8.13;\nimport \"@openzeppelin/contracts/access/Ownable.sol\";\nimport \"@openzeppelin/contracts/token/ERC721/IERC721.sol\";\nimport \"@openzeppelin/contracts/utils/math/SafeMath.sol\";\nimport \"@openzeppelin/contracts/utils/Address.sol\";\nimport \"./ContinentToken.sol\";\n\n\ncontract ContinentAuction is Ownable {\n    using SafeMath for uint256;\n    using Address for address payable;\n\n    uint256 public constant MAX_PURCHASE_PER_WALLET = 1;\n\n    struct Auction {\n        uint256 tokenId; // id of the auction token \n        uint256 bidIncrement; // the minimum bid increment\n        bool ended;\n\n        uint256 highestBid; // the current highest bid amount\n        mapping(address => BidItem[]) bids; // the auction bids\n        address highestBidder; // the account with the current highest bid\n\n        uint256 startTime; // the time the auction started\n        uint256 endTime; // the time the auction ended\n    }\n\n    struct BidItem {\n        uint256 amount; // bid price in wei\n        uint256 timestamp; // timestamp of bid\n    }\n\n    mapping(uint256 => Auction) public auctions;\n\n    ContinentToken public continentTokenContract;\n\n    event BidPlaced(address indexed bidder, uint256 tokenId, uint256 amount);\n    event AuctionEnded(address indexed winner, uint256 tokenId, uint256 amount);\n    event AuctionStarted(uint256 indexed tokenId, uint256 startTime, uint256 endTime);\n\n    constructor(address _continentToken) {\n        continentTokenContract = ContinentToken(_continentToken);\n    }\n\n    function createAuction(uint256 _tokenId, uint256 _startPrice, uint256 _bidIncrement, uint256 _startTime, uint256 _endTime) public onlyOwner {\n\n        require(continentTokenContract.ownerOf(_tokenId) == address(continentTokenContract), \"Continent not in contract\");\n        require(auctions[_tokenId].endTime == 0, \"Auction already exists\");\n        require(_startTime < _endTime, \"Invalid start and end time\");\n        require(_endTime > block.timestamp, \"End time must be in the future\");\n\n        auctions[_tokenId].tokenId = _tokenId;\n        auctions[_tokenId].bidIncrement = _bidIncrement;\n        auctions[_tokenId].ended = false;\n        auctions[_tokenId].highestBid = _startPrice;\n        auctions[_tokenId].highestBidder = address(0);\n        auctions[_tokenId].startTime = _startTime;\n        auctions[_tokenId].endTime = _endTime;\n\n        emit AuctionStarted(_tokenId, _startTime, _endTime);\n    }\n\n    function getAuction(uint256 _tokenId) public view returns (uint256, uint256, uint256, uint256, uint256, bool, address) {\n        return (_tokenId, auctions[_tokenId].bidIncrement, auctions[_tokenId].highestBid, auctions[_tokenId].startTime, auctions[_tokenId].endTime, auctions[_tokenId].ended, auctions[_tokenId].highestBidder);\n    }\n\n    function endAuction(uint256 _tokenId) public onlyOwner {\n        require(auctions[_tokenId].endTime > 0, \"Auction not started\");\n        require(block.timestamp >= auctions[_tokenId].endTime, \"Auction not ended yet\");\n\n        auctions[_tokenId].ended = true;\n        emit AuctionEnded(auctions[_tokenId].highestBidder, _tokenId, auctions[_tokenId].highestBid);\n\n        continentTokenContract.transferContinent(_tokenId, auctions[_tokenId].highestBidder);\n    }   \n\n    function placeBid(uint256 _tokenId) public payable {\n\n        require(auctions[_tokenId].endTime > 0, \"Auction not started\");\n        require(block.timestamp < auctions[_tokenId].endTime, \"Auction ended\");\n        require(continentTokenContract.balanceOf(msg.sender) < MAX_PURCHASE_PER_WALLET, \"Bidder already owns a continent\");\n\n        uint256 nextMinimumBid = auctions[_tokenId].highestBid + auctions[_tokenId].bidIncrement;\n        require(msg.value >= nextMinimumBid, \"Bid must be higher than current bid by at least the bid increment\");\n\n        // Refund the previous highest bid\n        if (auctions[_tokenId].highestBidder != address(0)) {\n            address payable previousBidder = payable(auctions[_tokenId].highestBidder);\n            previousBidder.sendValue(auctions[_tokenId].highestBid);\n        }\n\n        auctions[_tokenId].highestBid = msg.value;\n        auctions[_tokenId].highestBidder = msg.sender;\n\n        auctions[_tokenId].bids[msg.sender].push(BidItem({\n            amount: msg.value,\n            timestamp: block.timestamp\n        }));\n\n        emit BidPlaced(msg.sender, _tokenId, msg.value);\n    }\n\n    function getBids(uint256 _tokenId) public view returns (BidItem[] memory) {\n         BidItem[] memory bids = auctions[_tokenId].bids[msg.sender];\n        return bids;\n    }\n\n    function withdraw() public onlyOwner {\n        payable(owner()).sendValue(address(this).balance);\n    }\n\n}",
  "sourcePath": "/Users/timicodes/Code/world-nft/contracts/ContinentAuction.sol",
  "compiler": {
    "name": "solc",
    "version": "0.8.13+commit.abaa5c0e.Emscripten.clang"
  },
  "schemaVersion": "3.4.16",
  "updatedAt": "2024-05-11T12:40:14.472Z",
  "networkType": "ethereum",
  "devdoc": {
    "kind": "dev",
    "methods": {
      "owner()": {
        "details": "Returns the address of the current owner."
      },
      "renounceOwnership()": {
        "details": "Leaves the contract without owner. It will not be possible to call `onlyOwner` functions anymore. Can only be called by the current owner. NOTE: Renouncing ownership will leave the contract without an owner, thereby removing any functionality that is only available to the owner."
      },
      "transferOwnership(address)": {
        "details": "Transfers ownership of the contract to a new account (`newOwner`). Can only be called by the current owner."
      }
    },
    "version": 1
  },
  "userdoc": {
    "kind": "user",
    "methods": {},
    "version": 1
  }
}