{
  "contractName": "ContinentToken",
  "abi": [
    {
      "inputs": [
        {
          "internalType": "string",
          "name": "name",
          "type": "string"
        },
        {
          "internalType": "string",
          "name": "symbol",
          "type": "string"
        },
        {
          "internalType": "string",
          "name": "_baseTokenURI",
          "type": "string"
        }
      ],
      "stateMutability": "nonpayable",
      "type": "constructor"
    },
    {
      "anonymous": false,
      "inputs": [
        {
          "indexed": true,
          "internalType": "address",
          "name": "owner",
          "type": "address"
        },
        {
          "indexed": true,
          "internalType": "address",
          "name": "approved",
          "type": "address"
        },
        {
          "indexed": true,
          "internalType": "uint256",
          "name": "tokenId",
          "type": "uint256"
        }
      ],
      "name": "Approval",
      "type": "event"
    },
    {
      "anonymous": false,
      "inputs": [
        {
          "indexed": true,
          "internalType": "address",
          "name": "owner",
          "type": "address"
        },
        {
          "indexed": true,
          "internalType": "address",
          "name": "operator",
          "type": "address"
        },
        {
          "indexed": false,
          "internalType": "bool",
          "name": "approved",
          "type": "bool"
        }
      ],
      "name": "ApprovalForAll",
      "type": "event"
    },
    {
      "anonymous": false,
      "inputs": [
        {
          "indexed": true,
          "internalType": "uint256",
          "name": "tokenId",
          "type": "uint256"
        },
        {
          "indexed": true,
          "internalType": "address",
          "name": "citizen",
          "type": "address"
        }
      ],
      "name": "CitizenshipPurchased",
      "type": "event"
    },
    {
      "anonymous": false,
      "inputs": [
        {
          "indexed": true,
          "internalType": "uint256",
          "name": "tokenId",
          "type": "uint256"
        },
        {
          "indexed": false,
          "internalType": "string",
          "name": "name",
          "type": "string"
        },
        {
          "indexed": false,
          "internalType": "string",
          "name": "metadataURI",
          "type": "string"
        }
      ],
      "name": "ContinentCreated",
      "type": "event"
    },
    {
      "anonymous": false,
      "inputs": [
        {
          "indexed": true,
          "internalType": "address",
          "name": "from",
          "type": "address"
        },
        {
          "indexed": true,
          "internalType": "address",
          "name": "to",
          "type": "address"
        },
        {
          "indexed": true,
          "internalType": "uint256",
          "name": "tokenId",
          "type": "uint256"
        }
      ],
      "name": "ContinentTransfered",
      "type": "event"
    },
    {
      "anonymous": false,
      "inputs": [
        {
          "indexed": true,
          "internalType": "address",
          "name": "previousOwner",
          "type": "address"
        },
        {
          "indexed": true,
          "internalType": "address",
          "name": "newOwner",
          "type": "address"
        }
      ],
      "name": "OwnershipTransferred",
      "type": "event"
    },
    {
      "anonymous": false,
      "inputs": [
        {
          "indexed": true,
          "internalType": "address",
          "name": "from",
          "type": "address"
        },
        {
          "indexed": true,
          "internalType": "address",
          "name": "to",
          "type": "address"
        },
        {
          "indexed": true,
          "internalType": "uint256",
          "name": "tokenId",
          "type": "uint256"
        }
      ],
      "name": "Transfer",
      "type": "event"
    },
    {
      "inputs": [],
      "name": "MAX_SUPPLY",
      "outputs": [
        {
          "internalType": "uint256",
          "name": "",
          "type": "uint256"
        }
      ],
      "stateMutability": "view",
      "type": "function"
    },
    {
      "inputs": [
        {
          "internalType": "address",
          "name": "to",
          "type": "address"
        },
        {
          "internalType": "uint256",
          "name": "tokenId",
          "type": "uint256"
        }
      ],
      "name": "approve",
      "outputs": [],
      "stateMutability": "nonpayable",
      "type": "function"
    },
    {
      "inputs": [
        {
          "internalType": "address",
          "name": "owner",
          "type": "address"
        }
      ],
      "name": "balanceOf",
      "outputs": [
        {
          "internalType": "uint256",
          "name": "",
          "type": "uint256"
        }
      ],
      "stateMutability": "view",
      "type": "function"
    },
    {
      "inputs": [],
      "name": "baseTokenURI",
      "outputs": [
        {
          "internalType": "string",
          "name": "",
          "type": "string"
        }
      ],
      "stateMutability": "view",
      "type": "function"
    },
    {
      "inputs": [
        {
          "internalType": "uint256",
          "name": "",
          "type": "uint256"
        }
      ],
      "name": "continents",
      "outputs": [
        {
          "internalType": "string",
          "name": "name",
          "type": "string"
        },
        {
          "internalType": "string",
          "name": "metadataURI",
          "type": "string"
        },
        {
          "internalType": "address",
          "name": "owner",
          "type": "address"
        },
        {
          "internalType": "uint256",
          "name": "citizenTax",
          "type": "uint256"
        }
      ],
      "stateMutability": "view",
      "type": "function"
    },
    {
      "inputs": [
        {
          "internalType": "uint256",
          "name": "tokenId",
          "type": "uint256"
        }
      ],
      "name": "getApproved",
      "outputs": [
        {
          "internalType": "address",
          "name": "",
          "type": "address"
        }
      ],
      "stateMutability": "view",
      "type": "function"
    },
    {
      "inputs": [
        {
          "internalType": "address",
          "name": "owner",
          "type": "address"
        },
        {
          "internalType": "address",
          "name": "operator",
          "type": "address"
        }
      ],
      "name": "isApprovedForAll",
      "outputs": [
        {
          "internalType": "bool",
          "name": "",
          "type": "bool"
        }
      ],
      "stateMutability": "view",
      "type": "function"
    },
    {
      "inputs": [],
      "name": "name",
      "outputs": [
        {
          "internalType": "string",
          "name": "",
          "type": "string"
        }
      ],
      "stateMutability": "view",
      "type": "function"
    },
    {
      "inputs": [],
      "name": "owner",
      "outputs": [
        {
          "internalType": "address",
          "name": "",
          "type": "address"
        }
      ],
      "stateMutability": "view",
      "type": "function"
    },
    {
      "inputs": [
        {
          "internalType": "uint256",
          "name": "tokenId",
          "type": "uint256"
        }
      ],
      "name": "ownerOf",
      "outputs": [
        {
          "internalType": "address",
          "name": "",
          "type": "address"
        }
      ],
      "stateMutability": "view",
      "type": "function"
    },
    {
      "inputs": [],
      "name": "renounceOwnership",
      "outputs": [],
      "stateMutability": "nonpayable",
      "type": "function"
    },
    {
      "inputs": [
        {
          "internalType": "address",
          "name": "from",
          "type": "address"
        },
        {
          "internalType": "address",
          "name": "to",
          "type": "address"
        },
        {
          "internalType": "uint256",
          "name": "tokenId",
          "type": "uint256"
        }
      ],
      "name": "safeTransferFrom",
      "outputs": [],
      "stateMutability": "nonpayable",
      "type": "function"
    },
    {
      "inputs": [
        {
          "internalType": "address",
          "name": "from",
          "type": "address"
        },
        {
          "internalType": "address",
          "name": "to",
          "type": "address"
        },
        {
          "internalType": "uint256",
          "name": "tokenId",
          "type": "uint256"
        },
        {
          "internalType": "bytes",
          "name": "data",
          "type": "bytes"
        }
      ],
      "name": "safeTransferFrom",
      "outputs": [],
      "stateMutability": "nonpayable",
      "type": "function"
    },
    {
      "inputs": [
        {
          "internalType": "address",
          "name": "operator",
          "type": "address"
        },
        {
          "internalType": "bool",
          "name": "approved",
          "type": "bool"
        }
      ],
      "name": "setApprovalForAll",
      "outputs": [],
      "stateMutability": "nonpayable",
      "type": "function"
    },
    {
      "inputs": [
        {
          "internalType": "bytes4",
          "name": "interfaceId",
          "type": "bytes4"
        }
      ],
      "name": "supportsInterface",
      "outputs": [
        {
          "internalType": "bool",
          "name": "",
          "type": "bool"
        }
      ],
      "stateMutability": "view",
      "type": "function"
    },
    {
      "inputs": [],
      "name": "symbol",
      "outputs": [
        {
          "internalType": "string",
          "name": "",
          "type": "string"
        }
      ],
      "stateMutability": "view",
      "type": "function"
    },
    {
      "inputs": [],
      "name": "teamFee",
      "outputs": [
        {
          "internalType": "uint256",
          "name": "",
          "type": "uint256"
        }
      ],
      "stateMutability": "view",
      "type": "function"
    },
    {
      "inputs": [
        {
          "internalType": "uint256",
          "name": "index",
          "type": "uint256"
        }
      ],
      "name": "tokenByIndex",
      "outputs": [
        {
          "internalType": "uint256",
          "name": "",
          "type": "uint256"
        }
      ],
      "stateMutability": "view",
      "type": "function"
    },
    {
      "inputs": [
        {
          "internalType": "address",
          "name": "owner",
          "type": "address"
        },
        {
          "internalType": "uint256",
          "name": "index",
          "type": "uint256"
        }
      ],
      "name": "tokenOfOwnerByIndex",
      "outputs": [
        {
          "internalType": "uint256",
          "name": "",
          "type": "uint256"
        }
      ],
      "stateMutability": "view",
      "type": "function"
    },
    {
      "inputs": [],
      "name": "totalSupply",
      "outputs": [
        {
          "internalType": "uint256",
          "name": "",
          "type": "uint256"
        }
      ],
      "stateMutability": "view",
      "type": "function"
    },
    {
      "inputs": [
        {
          "internalType": "address",
          "name": "from",
          "type": "address"
        },
        {
          "internalType": "address",
          "name": "to",
          "type": "address"
        },
        {
          "internalType": "uint256",
          "name": "tokenId",
          "type": "uint256"
        }
      ],
      "name": "transferFrom",
      "outputs": [],
      "stateMutability": "nonpayable",
      "type": "function"
    },
    {
      "inputs": [
        {
          "internalType": "address",
          "name": "newOwner",
          "type": "address"
        }
      ],
      "name": "transferOwnership",
      "outputs": [],
      "stateMutability": "nonpayable",
      "type": "function"
    },
    {
      "inputs": [
        {
          "internalType": "uint256",
          "name": "_tokenId",
          "type": "uint256"
        },
        {
          "internalType": "address",
          "name": "_to",
          "type": "address"
        }
      ],
      "name": "transferTokenFromContract",
      "outputs": [],
      "stateMutability": "nonpayable",
      "type": "function"
    },
    {
      "inputs": [
        {
          "internalType": "uint256",
          "name": "_tokenId",
          "type": "uint256"
        },
        {
          "internalType": "address",
          "name": "_to",
          "type": "address"
        }
      ],
      "name": "transferContinent",
      "outputs": [],
      "stateMutability": "payable",
      "type": "function"
    },
    {
      "inputs": [],
      "name": "getAllContinents",
      "outputs": [
        {
          "internalType": "uint256[]",
          "name": "",
          "type": "uint256[]"
        },
        {
          "internalType": "string[]",
          "name": "",
          "type": "string[]"
        },
        {
          "internalType": "string[]",
          "name": "",
          "type": "string[]"
        },
        {
          "internalType": "address[]",
          "name": "",
          "type": "address[]"
        },
        {
          "internalType": "uint256[]",
          "name": "",
          "type": "uint256[]"
        }
      ],
      "stateMutability": "view",
      "type": "function"
    },
    {
      "inputs": [
        {
          "internalType": "uint256",
          "name": "_tokenId",
          "type": "uint256"
        }
      ],
      "name": "getContinentOwner",
      "outputs": [
        {
          "internalType": "address",
          "name": "",
          "type": "address"
        }
      ],
      "stateMutability": "view",
      "type": "function"
    },
    {
      "inputs": [
        {
          "internalType": "uint256",
          "name": "_tokenId",
          "type": "uint256"
        }
      ],
      "name": "buyCitizenship",
      "outputs": [],
      "stateMutability": "payable",
      "type": "function"
    },
    {
      "inputs": [
        {
          "internalType": "uint256",
          "name": "_tokenId",
          "type": "uint256"
        },
        {
          "internalType": "uint256",
          "name": "_citizenTax",
          "type": "uint256"
        }
      ],
      "name": "setCitizenTax",
      "outputs": [],
      "stateMutability": "nonpayable",
      "type": "function"
    },
    {
      "inputs": [
        {
          "internalType": "uint256",
          "name": "_tokenId",
          "type": "uint256"
        }
      ],
      "name": "getCitizens",
      "outputs": [
        {
          "internalType": "address[]",
          "name": "",
          "type": "address[]"
        }
      ],
      "stateMutability": "view",
      "type": "function"
    },
    {
      "inputs": [
        {
          "internalType": "uint256",
          "name": "_newTeamFee",
          "type": "uint256"
        }
      ],
      "name": "setTeamFee",
      "outputs": [],
      "stateMutability": "nonpayable",
      "type": "function"
    },
    {
      "inputs": [
        {
          "internalType": "string",
          "name": "_baseTokenURI",
          "type": "string"
        }
      ],
      "name": "setBaseURI",
      "outputs": [],
      "stateMutability": "nonpayable",
      "type": "function"
    },
    {
      "inputs": [
        {
          "internalType": "uint256",
          "name": "tokenId",
          "type": "uint256"
        }
      ],
      "name": "tokenURI",
      "outputs": [
        {
          "internalType": "string",
          "name": "",
          "type": "string"
        }
      ],
      "stateMutability": "view",
      "type": "function"
    },
    {
      "inputs": [],
      "name": "withdraw",
      "outputs": [],
      "stateMutability": "nonpayable",
      "type": "function"
    }
  ],
  "bytecode": "0x6080604052662386f26fc10000600c553480156200001c57600080fd5b5060405162006d2238038062006d22833981810160405281019062000042919062001774565b828281600090805190602001906200005c92919062001498565b5080600190805190602001906200007592919062001498565b505050620000986200008c620000ca60201b60201c565b620000d260201b60201c565b80600d9080519060200190620000b092919062001498565b50620000c16200019860201b60201c565b505050620020c2565b600033905090565b6000600a60009054906101000a900473ffffffffffffffffffffffffffffffffffffffff16905081600a60006101000a81548173ffffffffffffffffffffffffffffffffffffffff021916908373ffffffffffffffffffffffffffffffffffffffff1602179055508173ffffffffffffffffffffffffffffffffffffffff168173ffffffffffffffffffffffffffffffffffffffff167f8be0079c531659141344cd1fd0a4f28419497f9722a3daafe3b4186f6b6457e060405160405180910390a35050565b620001de6040518060400160405280600681526020017f41667269636100000000000000000000000000000000000000000000000000008152506200038460201b60201c565b620002246040518060400160405280600a81526020017f416e7461726374696361000000000000000000000000000000000000000000008152506200038460201b60201c565b6200026a6040518060400160405280600481526020017f41736961000000000000000000000000000000000000000000000000000000008152506200038460201b60201c565b620002b06040518060400160405280600681526020017f4575726f706500000000000000000000000000000000000000000000000000008152506200038460201b60201c565b620002f66040518060400160405280600d81526020017f4e6f72746820416d6572696361000000000000000000000000000000000000008152506200038460201b60201c565b6200033c6040518060400160405280600781526020017f4f6365616e6961000000000000000000000000000000000000000000000000008152506200038460201b60201c565b620003826040518060400160405280600d81526020017f536f75746820416d6572696361000000000000000000000000000000000000008152506200038460201b60201c565b565b60076200039d600b6200060b60201b62001dd01760201c565b10620003e0576040517f08c379a0000000000000000000000000000000000000000000000000000000008152600401620003d7906200188e565b60405180910390fd5b620003f7600b6200061960201b62001dde1760201c565b600062000410600b6200060b60201b62001dd01760201c565b90506200042430826200062f60201b60201c565b6040518060a001604052808362000446846200065560201b62001df41760201c565b604051602001620004599291906200194d565b60405160208183030381529060405281526020016200047e836200073960201b60201c565b81526020013073ffffffffffffffffffffffffffffffffffffffff168152602001600067ffffffffffffffff811115620004bd57620004bc62001606565b5b604051908082528060200260200182016040528015620004ec5781602001602082028036833780820191505090505b5081526020016000815250600e600083815260200190815260200160002060008201518160000190805190602001906200052892919062001498565b5060208201518160010190805190602001906200054792919062001498565b5060408201518160020160006101000a81548173ffffffffffffffffffffffffffffffffffffffff021916908373ffffffffffffffffffffffffffffffffffffffff1602179055506060820151816003019080519060200190620005ad92919062001529565b5060808201518160040155905050807feb473ad5d3af7aaf9ec33ecb1da329bda7bb666471bcc190c076fbf0c16b4e4083620005ef846200073960201b60201c565b604051620005ff929190620019c3565b60405180910390a25050565b600081600001549050919050565b6001816000016000828254019250508190555050565b620006518282604051806020016040528060008152506200080460201b60201c565b5050565b60606000600162000671846200087260201b62001ec21760201c565b01905060008167ffffffffffffffff81111562000693576200069262001606565b5b6040519080825280601f01601f191660200182016040528015620006c65781602001600182028036833780820191505090505b509050600082602001820190505b6001156200072e578080600190039150507f3031323334353637383961626364656600000000000000000000000000000000600a86061a8153600a8581620007215762000720620019fe565b5b04945060008503620006d4575b819350505050919050565b60606200074c82620009de60201b60201c565b6200078e576040517f08c379a0000000000000000000000000000000000000000000000000000000008152600401620007859062001aa3565b60405180910390fd5b6000620007a062000a2760201b60201c565b90506000815111620007c25760405180602001604052806000815250620007fc565b80620007d9846200065560201b62001df41760201c565b604051602001620007ec92919062001b15565b6040516020818303038152906040525b915050919050565b62000816838362000ac160201b60201c565b6200082b600084848462000d0760201b60201c565b6200086d576040517f08c379a0000000000000000000000000000000000000000000000000000000008152600401620008649062001bc0565b60405180910390fd5b505050565b600080600090507a184f03e93ff9f4daa797ed6e38ed64bf6a1f0100000000000000008310620008d4577a184f03e93ff9f4daa797ed6e38ed64bf6a1f0100000000000000008381620008ca57620008c9620019fe565b5b0492506040810190505b6d04ee2d6d415b85acef8100000000831062000915576d04ee2d6d415b85acef810000000083816200090b576200090a620019fe565b5b0492506020810190505b662386f26fc1000083106200094857662386f26fc1000083816200093e576200093d620019fe565b5b0492506010810190505b6305f5e100831062000975576305f5e10083816200096b576200096a620019fe565b5b0492506008810190505b61271083106200099e576127108381620009945762000993620019fe565b5b0492506004810190505b60648310620009c55760648381620009bb57620009ba620019fe565b5b0492506002810190505b600a8310620009d5576001810190505b80915050919050565b60008073ffffffffffffffffffffffffffffffffffffffff1662000a088362000eb060201b60201c565b73ffffffffffffffffffffffffffffffffffffffff1614159050919050565b6060600d805462000a389062001c11565b80601f016020809104026020016040519081016040528092919081815260200182805462000a669062001c11565b801562000ab75780601f1062000a8b5761010080835404028352916020019162000ab7565b820191906000526020600020905b81548152906001019060200180831162000a9957829003601f168201915b5050505050905090565b600073ffffffffffffffffffffffffffffffffffffffff168273ffffffffffffffffffffffffffffffffffffffff160362000b33576040517f08c379a000000000000000000000000000000000000000000000000000000000815260040162000b2a9062001c96565b60405180910390fd5b62000b4481620009de60201b60201c565b1562000b87576040517f08c379a000000000000000000000000000000000000000000000000000000000815260040162000b7e9062001d08565b60405180910390fd5b62000b9d60008383600162000eed60201b60201c565b62000bae81620009de60201b60201c565b1562000bf1576040517f08c379a000000000000000000000000000000000000000000000000000000000815260040162000be89062001d08565b60405180910390fd5b6001600360008473ffffffffffffffffffffffffffffffffffffffff1673ffffffffffffffffffffffffffffffffffffffff16815260200190815260200160002060008282540192505081905550816002600083815260200190815260200160002060006101000a81548173ffffffffffffffffffffffffffffffffffffffff021916908373ffffffffffffffffffffffffffffffffffffffff160217905550808273ffffffffffffffffffffffffffffffffffffffff16600073ffffffffffffffffffffffffffffffffffffffff167fddf252ad1be2c89b69c2b068fc378daa952ba7f163c4a11628f55a4df523b3ef60405160405180910390a462000d036000838360016200108160201b60201c565b5050565b600062000d358473ffffffffffffffffffffffffffffffffffffffff166200108760201b620020151760201c565b1562000ea3578373ffffffffffffffffffffffffffffffffffffffff1663150b7a0262000d67620000ca60201b60201c565b8786866040518563ffffffff1660e01b815260040162000d8b949392919062001de7565b6020604051808303816000875af192505050801562000dca57506040513d601f19601f8201168201806040525081019062000dc7919062001e98565b60015b62000e52573d806000811462000dfd576040519150601f19603f3d011682016040523d82523d6000602084013e62000e02565b606091505b50600081510362000e4a576040517f08c379a000000000000000000000000000000000000000000000000000000000815260040162000e419062001bc0565b60405180910390fd5b805181602001fd5b63150b7a0260e01b7bffffffffffffffffffffffffffffffffffffffffffffffffffffffff1916817bffffffffffffffffffffffffffffffffffffffffffffffffffffffff19161491505062000ea8565b600190505b949350505050565b60006002600083815260200190815260200160002060009054906101000a900473ffffffffffffffffffffffffffffffffffffffff169050919050565b62000f0684848484620010aa60201b620020381760201c565b600181111562000f4d576040517f08c379a000000000000000000000000000000000000000000000000000000000815260040162000f449062001f40565b60405180910390fd5b6000829050600073ffffffffffffffffffffffffffffffffffffffff168573ffffffffffffffffffffffffffffffffffffffff160362000f9e5762000f9881620010b060201b60201c565b62000fe6565b8373ffffffffffffffffffffffffffffffffffffffff168573ffffffffffffffffffffffffffffffffffffffff161462000fe55762000fe48582620010f960201b60201c565b5b5b600073ffffffffffffffffffffffffffffffffffffffff168473ffffffffffffffffffffffffffffffffffffffff160362001032576200102c816200127660201b60201c565b6200107a565b8473ffffffffffffffffffffffffffffffffffffffff168473ffffffffffffffffffffffffffffffffffffffff161462001079576200107884826200135260201b60201c565b5b5b5050505050565b50505050565b6000808273ffffffffffffffffffffffffffffffffffffffff163b119050919050565b50505050565b6008805490506009600083815260200190815260200160002081905550600881908060018154018082558091505060019003906000526020600020016000909190919091505550565b600060016200111384620013de60201b6200196d1760201c565b6200111f919062001f91565b905060006007600084815260200190815260200160002054905081811462001205576000600660008673ffffffffffffffffffffffffffffffffffffffff1673ffffffffffffffffffffffffffffffffffffffff168152602001908152602001600020600084815260200190815260200160002054905080600660008773ffffffffffffffffffffffffffffffffffffffff1673ffffffffffffffffffffffffffffffffffffffff168152602001908152602001600020600084815260200190815260200160002081905550816007600083815260200190815260200160002081905550505b6007600084815260200190815260200160002060009055600660008573ffffffffffffffffffffffffffffffffffffffff1673ffffffffffffffffffffffffffffffffffffffff16815260200190815260200160002060008381526020019081526020016000206000905550505050565b600060016008805490506200128c919062001f91565b9050600060096000848152602001908152602001600020549050600060088381548110620012bf57620012be62001fcc565b5b906000526020600020015490508060088381548110620012e457620012e362001fcc565b5b90600052602060002001819055508160096000838152602001908152602001600020819055506009600085815260200190815260200160002060009055600880548062001336576200133562001ffb565b5b6001900381819060005260206000200160009055905550505050565b60006200136a83620013de60201b6200196d1760201c565b905081600660008573ffffffffffffffffffffffffffffffffffffffff1673ffffffffffffffffffffffffffffffffffffffff168152602001908152602001600020600083815260200190815260200160002081905550806007600084815260200190815260200160002081905550505050565b60008073ffffffffffffffffffffffffffffffffffffffff168273ffffffffffffffffffffffffffffffffffffffff160362001451576040517f08c379a00000000000000000000000000000000000000000000000000000000081526004016200144890620020a0565b60405180910390fd5b600360008373ffffffffffffffffffffffffffffffffffffffff1673ffffffffffffffffffffffffffffffffffffffff168152602001908152602001600020549050919050565b828054620014a69062001c11565b90600052602060002090601f016020900481019282620014ca576000855562001516565b82601f10620014e557805160ff191683800117855562001516565b8280016001018555821562001516579182015b8281111562001515578251825591602001919060010190620014f8565b5b509050620015259190620015b8565b5090565b828054828255906000526020600020908101928215620015a5579160200282015b82811115620015a45782518260006101000a81548173ffffffffffffffffffffffffffffffffffffffff021916908373ffffffffffffffffffffffffffffffffffffffff160217905550916020019190600101906200154a565b5b509050620015b49190620015b8565b5090565b5b80821115620015d3576000816000905550600101620015b9565b5090565b6000604051905090565b600080fd5b600080fd5b600080fd5b600080fd5b6000601f19601f8301169050919050565b7f4e487b7100000000000000000000000000000000000000000000000000000000600052604160045260246000fd5b6200164082620015f5565b810181811067ffffffffffffffff8211171562001662576200166162001606565b5b80604052505050565b600062001677620015d7565b905062001685828262001635565b919050565b600067ffffffffffffffff821115620016a857620016a762001606565b5b620016b382620015f5565b9050602081019050919050565b60005b83811015620016e0578082015181840152602081019050620016c3565b83811115620016f0576000848401525b50505050565b60006200170d62001707846200168a565b6200166b565b9050828152602081018484840111156200172c576200172b620015f0565b5b62001739848285620016c0565b509392505050565b600082601f830112620017595762001758620015eb565b5b81516200176b848260208601620016f6565b91505092915050565b60008060006060848603121562001790576200178f620015e1565b5b600084015167ffffffffffffffff811115620017b157620017b0620015e6565b5b620017bf8682870162001741565b935050602084015167ffffffffffffffff811115620017e357620017e2620015e6565b5b620017f18682870162001741565b925050604084015167ffffffffffffffff811115620018155762001814620015e6565b5b620018238682870162001741565b9150509250925092565b600082825260208201905092915050565b7f4d617820737570706c7920726561636865640000000000000000000000000000600082015250565b6000620018766012836200182d565b915062001883826200183e565b602082019050919050565b60006020820190508181036000830152620018a98162001867565b9050919050565b600081519050919050565b600081905092915050565b6000620018d382620018b0565b620018df8185620018bb565b9350620018f1818560208601620016c0565b80840191505092915050565b7f2023000000000000000000000000000000000000000000000000000000000000600082015250565b600062001935600283620018bb565b91506200194282620018fd565b600282019050919050565b60006200195b8285620018c6565b9150620019688262001926565b9150620019768284620018c6565b91508190509392505050565b60006200198f82620018b0565b6200199b81856200182d565b9350620019ad818560208601620016c0565b620019b881620015f5565b840191505092915050565b60006040820190508181036000830152620019df818562001982565b90508181036020830152620019f5818462001982565b90509392505050565b7f4e487b7100000000000000000000000000000000000000000000000000000000600052601260045260246000fd5b7f4552433732314d657461646174613a2055524920717565727920666f72206e6f60008201527f6e6578697374656e7420746f6b656e0000000000000000000000000000000000602082015250565b600062001a8b602f836200182d565b915062001a988262001a2d565b604082019050919050565b6000602082019050818103600083015262001abe8162001a7c565b9050919050565b7f2e6a736f6e000000000000000000000000000000000000000000000000000000600082015250565b600062001afd600583620018bb565b915062001b0a8262001ac5565b600582019050919050565b600062001b238285620018c6565b915062001b318284620018c6565b915062001b3e8262001aee565b91508190509392505050565b7f4552433732313a207472616e7366657220746f206e6f6e20455243373231526560008201527f63656976657220696d706c656d656e7465720000000000000000000000000000602082015250565b600062001ba86032836200182d565b915062001bb58262001b4a565b604082019050919050565b6000602082019050818103600083015262001bdb8162001b99565b9050919050565b7f4e487b7100000000000000000000000000000000000000000000000000000000600052602260045260246000fd5b6000600282049050600182168062001c2a57607f821691505b60208210810362001c405762001c3f62001be2565b5b50919050565b7f4552433732313a206d696e7420746f20746865207a65726f2061646472657373600082015250565b600062001c7e6020836200182d565b915062001c8b8262001c46565b602082019050919050565b6000602082019050818103600083015262001cb18162001c6f565b9050919050565b7f4552433732313a20746f6b656e20616c7265616479206d696e74656400000000600082015250565b600062001cf0601c836200182d565b915062001cfd8262001cb8565b602082019050919050565b6000602082019050818103600083015262001d238162001ce1565b9050919050565b600073ffffffffffffffffffffffffffffffffffffffff82169050919050565b600062001d578262001d2a565b9050919050565b62001d698162001d4a565b82525050565b6000819050919050565b62001d848162001d6f565b82525050565b600081519050919050565b600082825260208201905092915050565b600062001db38262001d8a565b62001dbf818562001d95565b935062001dd1818560208601620016c0565b62001ddc81620015f5565b840191505092915050565b600060808201905062001dfe600083018762001d5e565b62001e0d602083018662001d5e565b62001e1c604083018562001d79565b818103606083015262001e30818462001da6565b905095945050505050565b60007fffffffff0000000000000000000000000000000000000000000000000000000082169050919050565b62001e728162001e3b565b811462001e7e57600080fd5b50565b60008151905062001e928162001e67565b92915050565b60006020828403121562001eb15762001eb0620015e1565b5b600062001ec18482850162001e81565b91505092915050565b7f455243373231456e756d657261626c653a20636f6e736563757469766520747260008201527f616e7366657273206e6f7420737570706f727465640000000000000000000000602082015250565b600062001f286035836200182d565b915062001f358262001eca565b604082019050919050565b6000602082019050818103600083015262001f5b8162001f19565b9050919050565b7f4e487b7100000000000000000000000000000000000000000000000000000000600052601160045260246000fd5b600062001f9e8262001d6f565b915062001fab8362001d6f565b92508282101562001fc15762001fc062001f62565b5b828203905092915050565b7f4e487b7100000000000000000000000000000000000000000000000000000000600052603260045260246000fd5b7f4e487b7100000000000000000000000000000000000000000000000000000000600052603160045260246000fd5b7f4552433732313a2061646472657373207a65726f206973206e6f74206120766160008201527f6c6964206f776e65720000000000000000000000000000000000000000000000602082015250565b6000620020886029836200182d565b915062002095826200202a565b604082019050919050565b60006020820190508181036000830152620020bb8162002079565b9050919050565b614c5080620020d26000396000f3fe6080604052600436106101ee5760003560e01c806342842e0e1161010d57806395d89b41116100a0578063d547cfb71161006f578063d547cfb71461070c578063d7c94efd14610737578063e6ec64ec14610762578063e985e9c51461078b578063f2fde38b146107c8576101ee565b806395d89b4114610652578063a22cb4651461067d578063b88d4fde146106a6578063c87b56dd146106cf576101ee565b80636352211e116100dc5780636352211e1461059657806370a08231146105d3578063715018a6146106105780638da5cb5b14610627576101ee565b806342842e0e146104c757806343c9d4dc146104f05780634f6ccce71461053057806355f804b31461056d576101ee565b80632b382fac11610185578063328a6ac411610154578063328a6ac41461042c57806332cb6b0c146104695780633b5165e8146104945780633ccfd60b146104b0576101ee565b80632b382fac146103815780632ed4af35146103aa5780632f745c59146103c6578063325ab43e14610403576101ee565b806308c16ad2116101c157806308c16ad2146102d5578063095ea7b31461030457806318160ddd1461032d57806323b872dd14610358576101ee565b806301ffc9a7146101f35780630452338e1461023057806306fdde031461026d578063081812fc14610298575b600080fd5b3480156101ff57600080fd5b5061021a60048036038101906102159190613234565b6107f1565b604051610227919061327c565b60405180910390f35b34801561023c57600080fd5b50610257600480360381019061025291906132cd565b61086b565b604051610264919061333b565b60405180910390f35b34801561027957600080fd5b5061028261087d565b60405161028f91906133ef565b60405180910390f35b3480156102a457600080fd5b506102bf60048036038101906102ba91906132cd565b61090f565b6040516102cc919061333b565b60405180910390f35b3480156102e157600080fd5b506102ea610955565b6040516102fb959493929190613699565b60405180910390f35b34801561031057600080fd5b5061032b6004803603810190610326919061373b565b610df3565b005b34801561033957600080fd5b50610342610f0a565b60405161034f919061378a565b60405180910390f35b34801561036457600080fd5b5061037f600480360381019061037a91906137a5565b610f17565b005b34801561038d57600080fd5b506103a860048036038101906103a391906137f8565b610f77565b005b6103c460048036038101906103bf91906132cd565b6110b4565b005b3480156103d257600080fd5b506103ed60048036038101906103e8919061373b565b6112e9565b6040516103fa919061378a565b60405180910390f35b34801561040f57600080fd5b5061042a60048036038101906104259190613838565b61138e565b005b34801561043857600080fd5b50610453600480360381019061044e91906132cd565b611423565b6040516104609190613878565b60405180910390f35b34801561047557600080fd5b5061047e6114c7565b60405161048b919061378a565b60405180910390f35b6104ae60048036038101906104a991906137f8565b6114cc565b005b3480156104bc57600080fd5b506104c561169a565b005b3480156104d357600080fd5b506104ee60048036038101906104e991906137a5565b6116d4565b005b3480156104fc57600080fd5b50610517600480360381019061051291906132cd565b6116f4565b604051610527949392919061389a565b60405180910390f35b34801561053c57600080fd5b50610557600480360381019061055291906132cd565b611854565b604051610564919061378a565b60405180910390f35b34801561057957600080fd5b50610594600480360381019061058f9190613a22565b6118c5565b005b3480156105a257600080fd5b506105bd60048036038101906105b891906132cd565b6118e7565b6040516105ca919061333b565b60405180910390f35b3480156105df57600080fd5b506105fa60048036038101906105f59190613a6b565b61196d565b604051610607919061378a565b60405180910390f35b34801561061c57600080fd5b50610625611a24565b005b34801561063357600080fd5b5061063c611a38565b604051610649919061333b565b60405180910390f35b34801561065e57600080fd5b50610667611a62565b60405161067491906133ef565b60405180910390f35b34801561068957600080fd5b506106a4600480360381019061069f9190613ac4565b611af4565b005b3480156106b257600080fd5b506106cd60048036038101906106c89190613ba5565b611b0a565b005b3480156106db57600080fd5b506106f660048036038101906106f191906132cd565b611b6c565b60405161070391906133ef565b60405180910390f35b34801561071857600080fd5b50610721611c13565b60405161072e91906133ef565b60405180910390f35b34801561074357600080fd5b5061074c611ca1565b604051610759919061378a565b60405180910390f35b34801561076e57600080fd5b50610789600480360381019061078491906132cd565b611ca7565b005b34801561079757600080fd5b506107b260048036038101906107ad9190613c28565b611cb9565b6040516107bf919061327c565b60405180910390f35b3480156107d457600080fd5b506107ef60048036038101906107ea9190613a6b565b611d4d565b005b60007f780e9d63000000000000000000000000000000000000000000000000000000007bffffffffffffffffffffffffffffffffffffffffffffffffffffffff1916827bffffffffffffffffffffffffffffffffffffffffffffffffffffffff1916148061086457506108638261203e565b5b9050919050565b6000610876826118e7565b9050919050565b60606000805461088c90613c97565b80601f01602080910402602001604051908101604052809291908181526020018280546108b890613c97565b80156109055780601f106108da57610100808354040283529160200191610905565b820191906000526020600020905b8154815290600101906020018083116108e857829003601f168201915b5050505050905090565b600061091a82612120565b6004600083815260200190815260200160002060009054906101000a900473ffffffffffffffffffffffffffffffffffffffff169050919050565b60608060608060606000610967610f0a565b905060008167ffffffffffffffff811115610985576109846138f7565b5b6040519080825280602002602001820160405280156109b35781602001602082028036833780820191505090505b50905060008267ffffffffffffffff8111156109d2576109d16138f7565b5b604051908082528060200260200182016040528015610a0557816020015b60608152602001906001900390816109f05790505b50905060008367ffffffffffffffff811115610a2457610a236138f7565b5b604051908082528060200260200182016040528015610a5757816020015b6060815260200190600190039081610a425790505b50905060008467ffffffffffffffff811115610a7657610a756138f7565b5b604051908082528060200260200182016040528015610aa45781602001602082028036833780820191505090505b50905060008567ffffffffffffffff811115610ac357610ac26138f7565b5b604051908082528060200260200182016040528015610af15781602001602082028036833780820191505090505b50905060005b86811015610dd657610b0881611854565b868281518110610b1b57610b1a613cc8565b5b602002602001018181525050600e6000878381518110610b3e57610b3d613cc8565b5b602002602001015181526020019081526020016000206000018054610b6290613c97565b80601f0160208091040260200160405190810160405280929190818152602001828054610b8e90613c97565b8015610bdb5780601f10610bb057610100808354040283529160200191610bdb565b820191906000526020600020905b815481529060010190602001808311610bbe57829003601f168201915b5050505050858281518110610bf357610bf2613cc8565b5b6020026020010181905250600e6000878381518110610c1557610c14613cc8565b5b602002602001015181526020019081526020016000206001018054610c3990613c97565b80601f0160208091040260200160405190810160405280929190818152602001828054610c6590613c97565b8015610cb25780601f10610c8757610100808354040283529160200191610cb2565b820191906000526020600020905b815481529060010190602001808311610c9557829003601f168201915b5050505050848281518110610cca57610cc9613cc8565b5b6020026020010181905250600e6000878381518110610cec57610ceb613cc8565b5b6020026020010151815260200190815260200160002060020160009054906101000a900473ffffffffffffffffffffffffffffffffffffffff16838281518110610d3957610d38613cc8565b5b602002602001019073ffffffffffffffffffffffffffffffffffffffff16908173ffffffffffffffffffffffffffffffffffffffff1681525050600e6000878381518110610d8a57610d89613cc8565b5b6020026020010151815260200190815260200160002060040154828281518110610db757610db6613cc8565b5b6020026020010181815250508080610dce90613d26565b915050610af7565b5084848484849a509a509a509a509a505050505050509091929394565b6000610dfe826118e7565b90508073ffffffffffffffffffffffffffffffffffffffff168373ffffffffffffffffffffffffffffffffffffffff1603610e6e576040517f08c379a0000000000000000000000000000000000000000000000000000000008152600401610e6590613de0565b60405180910390fd5b8073ffffffffffffffffffffffffffffffffffffffff16610e8d61216b565b73ffffffffffffffffffffffffffffffffffffffff161480610ebc5750610ebb81610eb661216b565b611cb9565b5b610efb576040517f08c379a0000000000000000000000000000000000000000000000000000000008152600401610ef290613e72565b60405180910390fd5b610f058383612173565b505050565b6000600880549050905090565b610f28610f2261216b565b8261222c565b610f67576040517f08c379a0000000000000000000000000000000000000000000000000000000008152600401610f5e90613f04565b60405180910390fd5b610f728383836122c1565b505050565b610f7f6125ba565b3073ffffffffffffffffffffffffffffffffffffffff16610f9f836118e7565b73ffffffffffffffffffffffffffffffffffffffff1614610ff5576040517f08c379a0000000000000000000000000000000000000000000000000000000008152600401610fec90613f96565b60405180910390fd5b6110003082846122c1565b80600e600084815260200190815260200160002060020160006101000a81548173ffffffffffffffffffffffffffffffffffffffff021916908373ffffffffffffffffffffffffffffffffffffffff160217905550818173ffffffffffffffffffffffffffffffffffffffff163073ffffffffffffffffffffffffffffffffffffffff167f7a4ce38372220b7ac604ef415628e3189ca44d802f20bf7e73a228c874c2ddcf60405160405180910390a45050565b600073ffffffffffffffffffffffffffffffffffffffff166110d5826118e7565b73ffffffffffffffffffffffffffffffffffffffff160361112b576040517f08c379a000000000000000000000000000000000000000000000000000000000815260040161112290614002565b60405180910390fd5b3373ffffffffffffffffffffffffffffffffffffffff1661114b826118e7565b73ffffffffffffffffffffffffffffffffffffffff16036111a1576040517f08c379a00000000000000000000000000000000000000000000000000000000081526004016111989061406e565b60405180910390fd5b600e6000828152602001908152602001600020600401543410156111fa576040517f08c379a00000000000000000000000000000000000000000000000000000000081526004016111f190614100565b60405180910390fd5b61122b34611207836118e7565b73ffffffffffffffffffffffffffffffffffffffff1661263890919063ffffffff16565b600e6000828152602001908152602001600020600301339080600181540180825580915050600190039060005260206000200160009091909190916101000a81548173ffffffffffffffffffffffffffffffffffffffff021916908373ffffffffffffffffffffffffffffffffffffffff1602179055503373ffffffffffffffffffffffffffffffffffffffff16817f7b485c36dcf709483c429df2e8be305fb59a24819269b17bb215fdb844f540af60405160405180910390a350565b60006112f48361196d565b8210611335576040517f08c379a000000000000000000000000000000000000000000000000000000000815260040161132c90614192565b60405180910390fd5b600660008473ffffffffffffffffffffffffffffffffffffffff1673ffffffffffffffffffffffffffffffffffffffff168152602001908152602001600020600083815260200190815260200160002054905092915050565b3373ffffffffffffffffffffffffffffffffffffffff166113ae836118e7565b73ffffffffffffffffffffffffffffffffffffffff1614611404576040517f08c379a00000000000000000000000000000000000000000000000000000000081526004016113fb90614224565b60405180910390fd5b80600e6000848152602001908152602001600020600401819055505050565b6060600e60008381526020019081526020016000206003018054806020026020016040519081016040528092919081815260200182805480156114bb57602002820191906000526020600020905b8160009054906101000a900473ffffffffffffffffffffffffffffffffffffffff1673ffffffffffffffffffffffffffffffffffffffff1681526020019060010190808311611471575b50505050509050919050565b600781565b60006114d7836118e7565b90503373ffffffffffffffffffffffffffffffffffffffff168173ffffffffffffffffffffffffffffffffffffffff1614611547576040517f08c379a000000000000000000000000000000000000000000000000000000000815260040161153e90614224565b60405180910390fd5b600c5434101561158c576040517f08c379a0000000000000000000000000000000000000000000000000000000008152600401611583906142b6565b60405180910390fd5b6115978183856122c1565b61159f611a38565b73ffffffffffffffffffffffffffffffffffffffff163373ffffffffffffffffffffffffffffffffffffffff16146115e5576115e46115dc611a38565b600c54612638565b5b81600e600085815260200190815260200160002060020160006101000a81548173ffffffffffffffffffffffffffffffffffffffff021916908373ffffffffffffffffffffffffffffffffffffffff160217905550828273ffffffffffffffffffffffffffffffffffffffff168273ffffffffffffffffffffffffffffffffffffffff167f7a4ce38372220b7ac604ef415628e3189ca44d802f20bf7e73a228c874c2ddcf60405160405180910390a4505050565b6116a26125ba565b6116d2476116ae611a38565b73ffffffffffffffffffffffffffffffffffffffff1661263890919063ffffffff16565b565b6116ef83838360405180602001604052806000815250611b0a565b505050565b600e60205280600052604060002060009150905080600001805461171790613c97565b80601f016020809104026020016040519081016040528092919081815260200182805461174390613c97565b80156117905780601f1061176557610100808354040283529160200191611790565b820191906000526020600020905b81548152906001019060200180831161177357829003601f168201915b5050505050908060010180546117a590613c97565b80601f01602080910402602001604051908101604052809291908181526020018280546117d190613c97565b801561181e5780601f106117f35761010080835404028352916020019161181e565b820191906000526020600020905b81548152906001019060200180831161180157829003601f168201915b5050505050908060020160009054906101000a900473ffffffffffffffffffffffffffffffffffffffff16908060040154905084565b600061185e610f0a565b821061189f576040517f08c379a000000000000000000000000000000000000000000000000000000000815260040161189690614348565b60405180910390fd5b600882815481106118b3576118b2613cc8565b5b90600052602060002001549050919050565b6118cd6125ba565b80600d90805190602001906118e3929190613125565b5050565b6000806118f38361272c565b9050600073ffffffffffffffffffffffffffffffffffffffff168173ffffffffffffffffffffffffffffffffffffffff1603611964576040517f08c379a000000000000000000000000000000000000000000000000000000000815260040161195b906143b4565b60405180910390fd5b80915050919050565b60008073ffffffffffffffffffffffffffffffffffffffff168273ffffffffffffffffffffffffffffffffffffffff16036119dd576040517f08c379a00000000000000000000000000000000000000000000000000000000081526004016119d490614446565b60405180910390fd5b600360008373ffffffffffffffffffffffffffffffffffffffff1673ffffffffffffffffffffffffffffffffffffffff168152602001908152602001600020549050919050565b611a2c6125ba565b611a366000612769565b565b6000600a60009054906101000a900473ffffffffffffffffffffffffffffffffffffffff16905090565b606060018054611a7190613c97565b80601f0160208091040260200160405190810160405280929190818152602001828054611a9d90613c97565b8015611aea5780601f10611abf57610100808354040283529160200191611aea565b820191906000526020600020905b815481529060010190602001808311611acd57829003601f168201915b5050505050905090565b611b06611aff61216b565b838361282f565b5050565b611b1b611b1561216b565b8361222c565b611b5a576040517f08c379a0000000000000000000000000000000000000000000000000000000008152600401611b5190613f04565b60405180910390fd5b611b668484848461299b565b50505050565b6060611b77826129f7565b611bb6576040517f08c379a0000000000000000000000000000000000000000000000000000000008152600401611bad906144d8565b60405180910390fd5b6000611bc0612a38565b90506000815111611be05760405180602001604052806000815250611c0b565b80611bea84611df4565b604051602001611bfb929190614580565b6040516020818303038152906040525b915050919050565b600d8054611c2090613c97565b80601f0160208091040260200160405190810160405280929190818152602001828054611c4c90613c97565b8015611c995780601f10611c6e57610100808354040283529160200191611c99565b820191906000526020600020905b815481529060010190602001808311611c7c57829003601f168201915b505050505081565b600c5481565b611caf6125ba565b80600c8190555050565b6000600560008473ffffffffffffffffffffffffffffffffffffffff1673ffffffffffffffffffffffffffffffffffffffff16815260200190815260200160002060008373ffffffffffffffffffffffffffffffffffffffff1673ffffffffffffffffffffffffffffffffffffffff16815260200190815260200160002060009054906101000a900460ff16905092915050565b611d556125ba565b600073ffffffffffffffffffffffffffffffffffffffff168173ffffffffffffffffffffffffffffffffffffffff1603611dc4576040517f08c379a0000000000000000000000000000000000000000000000000000000008152600401611dbb90614621565b60405180910390fd5b611dcd81612769565b50565b600081600001549050919050565b6001816000016000828254019250508190555050565b606060006001611e0384611ec2565b01905060008167ffffffffffffffff811115611e2257611e216138f7565b5b6040519080825280601f01601f191660200182016040528015611e545781602001600182028036833780820191505090505b509050600082602001820190505b600115611eb7578080600190039150507f3031323334353637383961626364656600000000000000000000000000000000600a86061a8153600a8581611eab57611eaa614641565b5b04945060008503611e62575b819350505050919050565b600080600090507a184f03e93ff9f4daa797ed6e38ed64bf6a1f0100000000000000008310611f20577a184f03e93ff9f4daa797ed6e38ed64bf6a1f0100000000000000008381611f1657611f15614641565b5b0492506040810190505b6d04ee2d6d415b85acef81000000008310611f5d576d04ee2d6d415b85acef81000000008381611f5357611f52614641565b5b0492506020810190505b662386f26fc100008310611f8c57662386f26fc100008381611f8257611f81614641565b5b0492506010810190505b6305f5e1008310611fb5576305f5e1008381611fab57611faa614641565b5b0492506008810190505b6127108310611fda576127108381611fd057611fcf614641565b5b0492506004810190505b60648310611ffd5760648381611ff357611ff2614641565b5b0492506002810190505b600a831061200c576001810190505b80915050919050565b6000808273ffffffffffffffffffffffffffffffffffffffff163b119050919050565b50505050565b60007f80ac58cd000000000000000000000000000000000000000000000000000000007bffffffffffffffffffffffffffffffffffffffffffffffffffffffff1916827bffffffffffffffffffffffffffffffffffffffffffffffffffffffff1916148061210957507f5b5e139f000000000000000000000000000000000000000000000000000000007bffffffffffffffffffffffffffffffffffffffffffffffffffffffff1916827bffffffffffffffffffffffffffffffffffffffffffffffffffffffff1916145b80612119575061211882612aca565b5b9050919050565b612129816129f7565b612168576040517f08c379a000000000000000000000000000000000000000000000000000000000815260040161215f906143b4565b60405180910390fd5b50565b600033905090565b816004600083815260200190815260200160002060006101000a81548173ffffffffffffffffffffffffffffffffffffffff021916908373ffffffffffffffffffffffffffffffffffffffff160217905550808273ffffffffffffffffffffffffffffffffffffffff166121e6836118e7565b73ffffffffffffffffffffffffffffffffffffffff167f8c5be1e5ebec7d5bd14f71427d1e84f3dd0314c0f7b2291e5b200ac8c7c3b92560405160405180910390a45050565b600080612238836118e7565b90508073ffffffffffffffffffffffffffffffffffffffff168473ffffffffffffffffffffffffffffffffffffffff16148061227a57506122798185611cb9565b5b806122b857508373ffffffffffffffffffffffffffffffffffffffff166122a08461090f565b73ffffffffffffffffffffffffffffffffffffffff16145b91505092915050565b8273ffffffffffffffffffffffffffffffffffffffff166122e1826118e7565b73ffffffffffffffffffffffffffffffffffffffff1614612337576040517f08c379a000000000000000000000000000000000000000000000000000000000815260040161232e906146e2565b60405180910390fd5b600073ffffffffffffffffffffffffffffffffffffffff168273ffffffffffffffffffffffffffffffffffffffff16036123a6576040517f08c379a000000000000000000000000000000000000000000000000000000000815260040161239d90614774565b60405180910390fd5b6123b38383836001612b34565b8273ffffffffffffffffffffffffffffffffffffffff166123d3826118e7565b73ffffffffffffffffffffffffffffffffffffffff1614612429576040517f08c379a0000000000000000000000000000000000000000000000000000000008152600401612420906146e2565b60405180910390fd5b6004600082815260200190815260200160002060006101000a81549073ffffffffffffffffffffffffffffffffffffffff02191690556001600360008573ffffffffffffffffffffffffffffffffffffffff1673ffffffffffffffffffffffffffffffffffffffff168152602001908152602001600020600082825403925050819055506001600360008473ffffffffffffffffffffffffffffffffffffffff1673ffffffffffffffffffffffffffffffffffffffff16815260200190815260200160002060008282540192505081905550816002600083815260200190815260200160002060006101000a81548173ffffffffffffffffffffffffffffffffffffffff021916908373ffffffffffffffffffffffffffffffffffffffff160217905550808273ffffffffffffffffffffffffffffffffffffffff168473ffffffffffffffffffffffffffffffffffffffff167fddf252ad1be2c89b69c2b068fc378daa952ba7f163c4a11628f55a4df523b3ef60405160405180910390a46125b58383836001612c92565b505050565b6125c261216b565b73ffffffffffffffffffffffffffffffffffffffff166125e0611a38565b73ffffffffffffffffffffffffffffffffffffffff1614612636576040517f08c379a000000000000000000000000000000000000000000000000000000000815260040161262d906147e0565b60405180910390fd5b565b8047101561267b576040517f08c379a00000000000000000000000000000000000000000000000000000000081526004016126729061484c565b60405180910390fd5b60008273ffffffffffffffffffffffffffffffffffffffff16826040516126a19061489d565b60006040518083038185875af1925050503d80600081146126de576040519150601f19603f3d011682016040523d82523d6000602084013e6126e3565b606091505b5050905080612727576040517f08c379a000000000000000000000000000000000000000000000000000000000815260040161271e90614924565b60405180910390fd5b505050565b60006002600083815260200190815260200160002060009054906101000a900473ffffffffffffffffffffffffffffffffffffffff169050919050565b6000600a60009054906101000a900473ffffffffffffffffffffffffffffffffffffffff16905081600a60006101000a81548173ffffffffffffffffffffffffffffffffffffffff021916908373ffffffffffffffffffffffffffffffffffffffff1602179055508173ffffffffffffffffffffffffffffffffffffffff168173ffffffffffffffffffffffffffffffffffffffff167f8be0079c531659141344cd1fd0a4f28419497f9722a3daafe3b4186f6b6457e060405160405180910390a35050565b8173ffffffffffffffffffffffffffffffffffffffff168373ffffffffffffffffffffffffffffffffffffffff160361289d576040517f08c379a000000000000000000000000000000000000000000000000000000000815260040161289490614990565b60405180910390fd5b80600560008573ffffffffffffffffffffffffffffffffffffffff1673ffffffffffffffffffffffffffffffffffffffff16815260200190815260200160002060008473ffffffffffffffffffffffffffffffffffffffff1673ffffffffffffffffffffffffffffffffffffffff16815260200190815260200160002060006101000a81548160ff0219169083151502179055508173ffffffffffffffffffffffffffffffffffffffff168373ffffffffffffffffffffffffffffffffffffffff167f17307eab39ab6107e8899845ad3d59bd9653f200f220920489ca2b5937696c318360405161298e919061327c565b60405180910390a3505050565b6129a68484846122c1565b6129b284848484612c98565b6129f1576040517f08c379a00000000000000000000000000000000000000000000000000000000081526004016129e890614a22565b60405180910390fd5b50505050565b60008073ffffffffffffffffffffffffffffffffffffffff16612a198361272c565b73ffffffffffffffffffffffffffffffffffffffff1614159050919050565b6060600d8054612a4790613c97565b80601f0160208091040260200160405190810160405280929190818152602001828054612a7390613c97565b8015612ac05780601f10612a9557610100808354040283529160200191612ac0565b820191906000526020600020905b815481529060010190602001808311612aa357829003601f168201915b5050505050905090565b60007f01ffc9a7000000000000000000000000000000000000000000000000000000007bffffffffffffffffffffffffffffffffffffffffffffffffffffffff1916827bffffffffffffffffffffffffffffffffffffffffffffffffffffffff1916149050919050565b612b4084848484612038565b6001811115612b84576040517f08c379a0000000000000000000000000000000000000000000000000000000008152600401612b7b90614ab4565b60405180910390fd5b6000829050600073ffffffffffffffffffffffffffffffffffffffff168573ffffffffffffffffffffffffffffffffffffffff1603612bcb57612bc681612e1f565b612c0a565b8373ffffffffffffffffffffffffffffffffffffffff168573ffffffffffffffffffffffffffffffffffffffff1614612c0957612c088582612e68565b5b5b600073ffffffffffffffffffffffffffffffffffffffff168473ffffffffffffffffffffffffffffffffffffffff1603612c4c57612c4781612fd5565b612c8b565b8473ffffffffffffffffffffffffffffffffffffffff168473ffffffffffffffffffffffffffffffffffffffff1614612c8a57612c8984826130a6565b5b5b5050505050565b50505050565b6000612cb98473ffffffffffffffffffffffffffffffffffffffff16612015565b15612e12578373ffffffffffffffffffffffffffffffffffffffff1663150b7a02612ce261216b565b8786866040518563ffffffff1660e01b8152600401612d049493929190614b29565b6020604051808303816000875af1925050508015612d4057506040513d601f19601f82011682018060405250810190612d3d9190614b8a565b60015b612dc2573d8060008114612d70576040519150601f19603f3d011682016040523d82523d6000602084013e612d75565b606091505b506000815103612dba576040517f08c379a0000000000000000000000000000000000000000000000000000000008152600401612db190614a22565b60405180910390fd5b805181602001fd5b63150b7a0260e01b7bffffffffffffffffffffffffffffffffffffffffffffffffffffffff1916817bffffffffffffffffffffffffffffffffffffffffffffffffffffffff191614915050612e17565b600190505b949350505050565b6008805490506009600083815260200190815260200160002081905550600881908060018154018082558091505060019003906000526020600020016000909190919091505550565b60006001612e758461196d565b612e7f9190614bb7565b9050600060076000848152602001908152602001600020549050818114612f64576000600660008673ffffffffffffffffffffffffffffffffffffffff1673ffffffffffffffffffffffffffffffffffffffff168152602001908152602001600020600084815260200190815260200160002054905080600660008773ffffffffffffffffffffffffffffffffffffffff1673ffffffffffffffffffffffffffffffffffffffff168152602001908152602001600020600084815260200190815260200160002081905550816007600083815260200190815260200160002081905550505b6007600084815260200190815260200160002060009055600660008573ffffffffffffffffffffffffffffffffffffffff1673ffffffffffffffffffffffffffffffffffffffff16815260200190815260200160002060008381526020019081526020016000206000905550505050565b60006001600880549050612fe99190614bb7565b905060006009600084815260200190815260200160002054905060006008838154811061301957613018613cc8565b5b90600052602060002001549050806008838154811061303b5761303a613cc8565b5b90600052602060002001819055508160096000838152602001908152602001600020819055506009600085815260200190815260200160002060009055600880548061308a57613089614beb565b5b6001900381819060005260206000200160009055905550505050565b60006130b18361196d565b905081600660008573ffffffffffffffffffffffffffffffffffffffff1673ffffffffffffffffffffffffffffffffffffffff168152602001908152602001600020600083815260200190815260200160002081905550806007600084815260200190815260200160002081905550505050565b82805461313190613c97565b90600052602060002090601f016020900481019282613153576000855561319a565b82601f1061316c57805160ff191683800117855561319a565b8280016001018555821561319a579182015b8281111561319957825182559160200191906001019061317e565b5b5090506131a791906131ab565b5090565b5b808211156131c45760008160009055506001016131ac565b5090565b6000604051905090565b600080fd5b600080fd5b60007fffffffff0000000000000000000000000000000000000000000000000000000082169050919050565b613211816131dc565b811461321c57600080fd5b50565b60008135905061322e81613208565b92915050565b60006020828403121561324a576132496131d2565b5b60006132588482850161321f565b91505092915050565b60008115159050919050565b61327681613261565b82525050565b6000602082019050613291600083018461326d565b92915050565b6000819050919050565b6132aa81613297565b81146132b557600080fd5b50565b6000813590506132c7816132a1565b92915050565b6000602082840312156132e3576132e26131d2565b5b60006132f1848285016132b8565b91505092915050565b600073ffffffffffffffffffffffffffffffffffffffff82169050919050565b6000613325826132fa565b9050919050565b6133358161331a565b82525050565b6000602082019050613350600083018461332c565b92915050565b600081519050919050565b600082825260208201905092915050565b60005b83811015613390578082015181840152602081019050613375565b8381111561339f576000848401525b50505050565b6000601f19601f8301169050919050565b60006133c182613356565b6133cb8185613361565b93506133db818560208601613372565b6133e4816133a5565b840191505092915050565b6000602082019050818103600083015261340981846133b6565b905092915050565b600081519050919050565b600082825260208201905092915050565b6000819050602082019050919050565b61344681613297565b82525050565b6000613458838361343d565b60208301905092915050565b6000602082019050919050565b600061347c82613411565b613486818561341c565b93506134918361342d565b8060005b838110156134c25781516134a9888261344c565b97506134b483613464565b925050600181019050613495565b5085935050505092915050565b600081519050919050565b600082825260208201905092915050565b6000819050602082019050919050565b600082825260208201905092915050565b600061351782613356565b61352181856134fb565b9350613531818560208601613372565b61353a816133a5565b840191505092915050565b6000613551838361350c565b905092915050565b6000602082019050919050565b6000613571826134cf565b61357b81856134da565b93508360208202850161358d856134eb565b8060005b858110156135c957848403895281516135aa8582613545565b94506135b583613559565b925060208a01995050600181019050613591565b50829750879550505050505092915050565b600081519050919050565b600082825260208201905092915050565b6000819050602082019050919050565b6136108161331a565b82525050565b60006136228383613607565b60208301905092915050565b6000602082019050919050565b6000613646826135db565b61365081856135e6565b935061365b836135f7565b8060005b8381101561368c5781516136738882613616565b975061367e8361362e565b92505060018101905061365f565b5085935050505092915050565b600060a08201905081810360008301526136b38188613471565b905081810360208301526136c78187613566565b905081810360408301526136db8186613566565b905081810360608301526136ef818561363b565b905081810360808301526137038184613471565b90509695505050505050565b6137188161331a565b811461372357600080fd5b50565b6000813590506137358161370f565b92915050565b60008060408385031215613752576137516131d2565b5b600061376085828601613726565b9250506020613771858286016132b8565b9150509250929050565b61378481613297565b82525050565b600060208201905061379f600083018461377b565b92915050565b6000806000606084860312156137be576137bd6131d2565b5b60006137cc86828701613726565b93505060206137dd86828701613726565b92505060406137ee868287016132b8565b9150509250925092565b6000806040838503121561380f5761380e6131d2565b5b600061381d858286016132b8565b925050602061382e85828601613726565b9150509250929050565b6000806040838503121561384f5761384e6131d2565b5b600061385d858286016132b8565b925050602061386e858286016132b8565b9150509250929050565b60006020820190508181036000830152613892818461363b565b905092915050565b600060808201905081810360008301526138b481876133b6565b905081810360208301526138c881866133b6565b90506138d7604083018561332c565b6138e4606083018461377b565b95945050505050565b600080fd5b600080fd5b7f4e487b7100000000000000000000000000000000000000000000000000000000600052604160045260246000fd5b61392f826133a5565b810181811067ffffffffffffffff8211171561394e5761394d6138f7565b5b80604052505050565b60006139616131c8565b905061396d8282613926565b919050565b600067ffffffffffffffff82111561398d5761398c6138f7565b5b613996826133a5565b9050602081019050919050565b82818337600083830152505050565b60006139c56139c084613972565b613957565b9050828152602081018484840111156139e1576139e06138f2565b5b6139ec8482856139a3565b509392505050565b600082601f830112613a0957613a086138ed565b5b8135613a198482602086016139b2565b91505092915050565b600060208284031215613a3857613a376131d2565b5b600082013567ffffffffffffffff811115613a5657613a556131d7565b5b613a62848285016139f4565b91505092915050565b600060208284031215613a8157613a806131d2565b5b6000613a8f84828501613726565b91505092915050565b613aa181613261565b8114613aac57600080fd5b50565b600081359050613abe81613a98565b92915050565b60008060408385031215613adb57613ada6131d2565b5b6000613ae985828601613726565b9250506020613afa85828601613aaf565b9150509250929050565b600067ffffffffffffffff821115613b1f57613b1e6138f7565b5b613b28826133a5565b9050602081019050919050565b6000613b48613b4384613b04565b613957565b905082815260208101848484011115613b6457613b636138f2565b5b613b6f8482856139a3565b509392505050565b600082601f830112613b8c57613b8b6138ed565b5b8135613b9c848260208601613b35565b91505092915050565b60008060008060808587031215613bbf57613bbe6131d2565b5b6000613bcd87828801613726565b9450506020613bde87828801613726565b9350506040613bef878288016132b8565b925050606085013567ffffffffffffffff811115613c1057613c0f6131d7565b5b613c1c87828801613b77565b91505092959194509250565b60008060408385031215613c3f57613c3e6131d2565b5b6000613c4d85828601613726565b9250506020613c5e85828601613726565b9150509250929050565b7f4e487b7100000000000000000000000000000000000000000000000000000000600052602260045260246000fd5b60006002820490506001821680613caf57607f821691505b602082108103613cc257613cc1613c68565b5b50919050565b7f4e487b7100000000000000000000000000000000000000000000000000000000600052603260045260246000fd5b7f4e487b7100000000000000000000000000000000000000000000000000000000600052601160045260246000fd5b6000613d3182613297565b91507fffffffffffffffffffffffffffffffffffffffffffffffffffffffffffffffff8203613d6357613d62613cf7565b5b600182019050919050565b7f4552433732313a20617070726f76616c20746f2063757272656e74206f776e6560008201527f7200000000000000000000000000000000000000000000000000000000000000602082015250565b6000613dca602183613361565b9150613dd582613d6e565b604082019050919050565b60006020820190508181036000830152613df981613dbd565b9050919050565b7f4552433732313a20617070726f76652063616c6c6572206973206e6f7420746f60008201527f6b656e206f776e6572206f7220617070726f76656420666f7220616c6c000000602082015250565b6000613e5c603d83613361565b9150613e6782613e00565b604082019050919050565b60006020820190508181036000830152613e8b81613e4f565b9050919050565b7f4552433732313a2063616c6c6572206973206e6f7420746f6b656e206f776e6560008201527f72206f7220617070726f76656400000000000000000000000000000000000000602082015250565b6000613eee602d83613361565b9150613ef982613e92565b604082019050919050565b60006020820190508181036000830152613f1d81613ee1565b9050919050565b7f546f6b656e206973206e6f74206f776e65642062792074686520636f6e74726160008201527f6374000000000000000000000000000000000000000000000000000000000000602082015250565b6000613f80602283613361565b9150613f8b82613f24565b604082019050919050565b60006020820190508181036000830152613faf81613f73565b9050919050565b7f436f6e74696e656e7420646f6573206e6f742065786973740000000000000000600082015250565b6000613fec601883613361565b9150613ff782613fb6565b602082019050919050565b6000602082019050818103600083015261401b81613fdf565b9050919050565b7f596f7520616c7265616479206f776e207468697320636f6e74696e656e740000600082015250565b6000614058601e83613361565b915061406382614022565b602082019050919050565b600060208201905081810360008301526140878161404b565b9050919050565b7f4e6f7420656e6f7567682045746865722073656e7420746f20636f766572206360008201527f6974697a656e7368697020746178000000000000000000000000000000000000602082015250565b60006140ea602e83613361565b91506140f58261408e565b604082019050919050565b60006020820190508181036000830152614119816140dd565b9050919050565b7f455243373231456e756d657261626c653a206f776e657220696e646578206f7560008201527f74206f6620626f756e6473000000000000000000000000000000000000000000602082015250565b600061417c602b83613361565b915061418782614120565b604082019050919050565b600060208201905081810360008301526141ab8161416f565b9050919050565b7f596f7520617265206e6f7420746865206f776e6572206f66207468697320636f60008201527f6e74696e656e7400000000000000000000000000000000000000000000000000602082015250565b600061420e602783613361565b9150614219826141b2565b604082019050919050565b6000602082019050818103600083015261423d81614201565b9050919050565b7f4e6f7420656e6f7567682045746865722073656e7420746f20636f766572207460008201527f65616d2066656500000000000000000000000000000000000000000000000000602082015250565b60006142a0602783613361565b91506142ab82614244565b604082019050919050565b600060208201905081810360008301526142cf81614293565b9050919050565b7f455243373231456e756d657261626c653a20676c6f62616c20696e646578206f60008201527f7574206f6620626f756e64730000000000000000000000000000000000000000602082015250565b6000614332602c83613361565b915061433d826142d6565b604082019050919050565b6000602082019050818103600083015261436181614325565b9050919050565b7f4552433732313a20696e76616c696420746f6b656e2049440000000000000000600082015250565b600061439e601883613361565b91506143a982614368565b602082019050919050565b600060208201905081810360008301526143cd81614391565b9050919050565b7f4552433732313a2061646472657373207a65726f206973206e6f74206120766160008201527f6c6964206f776e65720000000000000000000000000000000000000000000000602082015250565b6000614430602983613361565b915061443b826143d4565b604082019050919050565b6000602082019050818103600083015261445f81614423565b9050919050565b7f4552433732314d657461646174613a2055524920717565727920666f72206e6f60008201527f6e6578697374656e7420746f6b656e0000000000000000000000000000000000602082015250565b60006144c2602f83613361565b91506144cd82614466565b604082019050919050565b600060208201905081810360008301526144f1816144b5565b9050919050565b600081905092915050565b600061450e82613356565b61451881856144f8565b9350614528818560208601613372565b80840191505092915050565b7f2e6a736f6e000000000000000000000000000000000000000000000000000000600082015250565b600061456a6005836144f8565b915061457582614534565b600582019050919050565b600061458c8285614503565b91506145988284614503565b91506145a38261455d565b91508190509392505050565b7f4f776e61626c653a206e6577206f776e657220697320746865207a65726f206160008201527f6464726573730000000000000000000000000000000000000000000000000000602082015250565b600061460b602683613361565b9150614616826145af565b604082019050919050565b6000602082019050818103600083015261463a816145fe565b9050919050565b7f4e487b7100000000000000000000000000000000000000000000000000000000600052601260045260246000fd5b7f4552433732313a207472616e736665722066726f6d20696e636f72726563742060008201527f6f776e6572000000000000000000000000000000000000000000000000000000602082015250565b60006146cc602583613361565b91506146d782614670565b604082019050919050565b600060208201905081810360008301526146fb816146bf565b9050919050565b7f4552433732313a207472616e7366657220746f20746865207a65726f2061646460008201527f7265737300000000000000000000000000000000000000000000000000000000602082015250565b600061475e602483613361565b915061476982614702565b604082019050919050565b6000602082019050818103600083015261478d81614751565b9050919050565b7f4f776e61626c653a2063616c6c6572206973206e6f7420746865206f776e6572600082015250565b60006147ca602083613361565b91506147d582614794565b602082019050919050565b600060208201905081810360008301526147f9816147bd565b9050919050565b7f416464726573733a20696e73756666696369656e742062616c616e6365000000600082015250565b6000614836601d83613361565b915061484182614800565b602082019050919050565b6000602082019050818103600083015261486581614829565b9050919050565b600081905092915050565b50565b600061488760008361486c565b915061489282614877565b600082019050919050565b60006148a88261487a565b9150819050919050565b7f416464726573733a20756e61626c6520746f2073656e642076616c75652c207260008201527f6563697069656e74206d61792068617665207265766572746564000000000000602082015250565b600061490e603a83613361565b9150614919826148b2565b604082019050919050565b6000602082019050818103600083015261493d81614901565b9050919050565b7f4552433732313a20617070726f766520746f2063616c6c657200000000000000600082015250565b600061497a601983613361565b915061498582614944565b602082019050919050565b600060208201905081810360008301526149a98161496d565b9050919050565b7f4552433732313a207472616e7366657220746f206e6f6e20455243373231526560008201527f63656976657220696d706c656d656e7465720000000000000000000000000000602082015250565b6000614a0c603283613361565b9150614a17826149b0565b604082019050919050565b60006020820190508181036000830152614a3b816149ff565b9050919050565b7f455243373231456e756d657261626c653a20636f6e736563757469766520747260008201527f616e7366657273206e6f7420737570706f727465640000000000000000000000602082015250565b6000614a9e603583613361565b9150614aa982614a42565b604082019050919050565b60006020820190508181036000830152614acd81614a91565b9050919050565b600081519050919050565b600082825260208201905092915050565b6000614afb82614ad4565b614b058185614adf565b9350614b15818560208601613372565b614b1e816133a5565b840191505092915050565b6000608082019050614b3e600083018761332c565b614b4b602083018661332c565b614b58604083018561377b565b8181036060830152614b6a8184614af0565b905095945050505050565b600081519050614b8481613208565b92915050565b600060208284031215614ba057614b9f6131d2565b5b6000614bae84828501614b75565b91505092915050565b6000614bc282613297565b9150614bcd83613297565b925082821015614be057614bdf613cf7565b5b828203905092915050565b7f4e487b7100000000000000000000000000000000000000000000000000000000600052603160045260246000fdfea2646970667358221220130007095420af7115fc4f1173477891a11bb49e6ff6aa6d060dd9096cec278964736f6c634300080d0033",
  "immutableReferences": {},
  "source": "// SPDX-License-Identifier: MIT\n\npragma solidity ^0.8.13;\n\nimport \"@openzeppelin/contracts/utils/Counters.sol\";\nimport \"@openzeppelin/contracts/access/Ownable.sol\";\nimport \"@openzeppelin/contracts/utils/math/SafeMath.sol\";\nimport \"@openzeppelin/contracts/token/ERC721/extensions/ERC721Enumerable.sol\";\nimport \"@openzeppelin/contracts/utils/Address.sol\";\n\ncontract ContinentToken is ERC721Enumerable, Ownable {\n    using SafeMath for uint256;\n    using Counters for Counters.Counter;\n    using Address for address payable;\n    using Strings for uint256;\n    using Strings for uint8;\n\n\n    Counters.Counter private _tokenIds;\n    // The max number of NFTs in the collection 7 representing Africa, Asia, Europe, North America, South America, Australia, and Antarctica\n    uint256 public constant MAX_SUPPLY = 7;\n\n    uint256 public teamFee = 0.01 ether;\n\n    string public baseTokenURI;\n\n    struct Continent {\n        string name;\n        string metadataURI;\n        address owner;\n        address[] citizens;\n        uint256 citizenTax;\n    }\n\n    mapping(uint256 => Continent) public continents;\n\n\n    event ContinentCreated(uint256 indexed tokenId, string name, string metadataURI);\n    event CitizenshipPurchased(uint256 indexed tokenId, address indexed citizen);\n    event ContinentTransfered(address indexed from, address indexed to, uint256 indexed tokenId);\n\n    constructor(string memory name, string memory symbol, string memory _baseTokenURI) ERC721(name, symbol) {\n        baseTokenURI = _baseTokenURI;\n        _initializeContinents();\n    }\n\n    function _initializeContinents() private {\n        _createContinent(\"Africa\");\n        _createContinent(\"Antarctica\");\n        _createContinent(\"Asia\");\n        _createContinent(\"Europe\");\n        _createContinent(\"North America\");\n        _createContinent(\"Oceania\");\n        _createContinent(\"South America\");\n    }\n\n    function _createContinent(string memory _name) private {\n        require(_tokenIds.current() < MAX_SUPPLY, \"Max supply reached\");\n\n        _tokenIds.increment();\n        uint256 tokenId = _tokenIds.current();\n        _safeMint(address(this), tokenId);\n\n        continents[tokenId] = Continent({\n            name: string(abi.encodePacked(_name, \" #\", tokenId.toString())),\n            metadataURI: tokenURI(tokenId),\n            owner: address(this),\n            citizens: new address[](0),\n            citizenTax: 0\n        });\n\n        emit ContinentCreated(tokenId, _name, tokenURI(tokenId));\n    }\n\n    function transferTokenFromContract(uint256 _tokenId, address _to) external onlyOwner {\n        require(ownerOf(_tokenId) == address(this), \"Token is not owned by the contract\");\n        _transfer(address(this), _to, _tokenId);\n        continents[_tokenId].owner = _to;\n\n        emit ContinentTransfered(address(this), _to, _tokenId);\n    }\n\n    function transferContinent(uint256 _tokenId, address _to) external payable {\n        address previousOwner = ownerOf(_tokenId);\n        require(previousOwner == msg.sender, \"You are not the owner of this continent\");\n        require(msg.value >= teamFee, \"Not enough Ether sent to cover team fee\");\n        \n        _transfer(previousOwner, _to, _tokenId);\n\n        if(msg.sender != owner()){\n            Address.sendValue(payable(owner()), teamFee);\n        }\n\n        continents[_tokenId].owner = _to;\n\n        emit ContinentTransfered(previousOwner, _to, _tokenId);\n    }\n\n    function getAllContinents() public view returns (uint256[] memory, string[] memory, string[] memory, address[] memory, uint256[] memory) {\n        uint256 totalContinents = totalSupply();\n        uint256[] memory tokenIds = new uint256[](totalContinents);\n        string[] memory names = new string[](totalContinents);\n        string[] memory metadataURIs = new string[](totalContinents);\n        address[] memory owners = new address[](totalContinents);\n        uint256[] memory citizenTaxes = new uint256[](totalContinents);\n\n        for (uint256 i = 0; i < totalContinents; i++) {\n            tokenIds[i] = tokenByIndex(i);\n            names[i] = continents[tokenIds[i]].name;\n            metadataURIs[i] = continents[tokenIds[i]].metadataURI;\n            owners[i] = continents[tokenIds[i]].owner;\n            citizenTaxes[i] = continents[tokenIds[i]].citizenTax;\n        }\n\n        return (tokenIds, names, metadataURIs, owners, citizenTaxes);\n    }\n\n    function getContinentOwner(uint256 _tokenId) external view returns (address) {\n        return ownerOf(_tokenId);\n    }\n\n    function buyCitizenship(uint256 _tokenId) external payable {\n        require(ownerOf(_tokenId) != address(0), \"Continent does not exist\");\n        require(ownerOf(_tokenId) != msg.sender, \"You already own this continent\");\n        require(msg.value >= continents[_tokenId].citizenTax, \"Not enough Ether sent to cover citizenship tax\");\n\n        payable(ownerOf(_tokenId)).sendValue(msg.value);\n        continents[_tokenId].citizens.push(msg.sender);\n\n        emit CitizenshipPurchased(_tokenId, msg.sender);\n    }\n\n    function setCitizenTax(uint256 _tokenId, uint256 _citizenTax) external {\n        require(ownerOf(_tokenId) == msg.sender, \"You are not the owner of this continent\");\n        continents[_tokenId].citizenTax = _citizenTax;\n    } \n\n    function getCitizens(uint256 _tokenId) external view returns (address[] memory) {\n        return continents[_tokenId].citizens;\n    }\n\n    function setTeamFee(uint256 _newTeamFee) external onlyOwner {\n        teamFee = _newTeamFee;\n    }\n\n    function _baseURI() internal view virtual override returns (string memory) {\n        return baseTokenURI;\n    }\n\n    function setBaseURI(string memory _baseTokenURI) public onlyOwner {\n        baseTokenURI = _baseTokenURI;\n    }\n\n    function tokenURI(uint256 tokenId) public view virtual override returns (string memory){\n        require(_exists(tokenId), \"ERC721Metadata: URI query for nonexistent token\");\n\n        string memory currentBaseURI = _baseURI();\n        return bytes(currentBaseURI).length > 0\n            ? string(abi.encodePacked(currentBaseURI, tokenId.toString(), \".json\"))\n            : \"\";\n    }\n\n    function withdraw() external onlyOwner {\n        payable(owner()).sendValue(address(this).balance);\n    }\n}\n\n",
  "sourcePath": "/Users/timicodes/Code/world-nft/contracts/ContinentToken.sol",
  "compiler": {
    "name": "solc",
    "version": "0.8.13+commit.abaa5c0e.Emscripten.clang"
  },
  "schemaVersion": "3.4.16",
  "updatedAt": "2024-05-20T01:18:45.610Z",
  "devdoc": {
    "kind": "dev",
    "methods": {
      "approve(address,uint256)": {
        "details": "See {IERC721-approve}."
      },
      "balanceOf(address)": {
        "details": "See {IERC721-balanceOf}."
      },
      "getApproved(uint256)": {
        "details": "See {IERC721-getApproved}."
      },
      "isApprovedForAll(address,address)": {
        "details": "See {IERC721-isApprovedForAll}."
      },
      "name()": {
        "details": "See {IERC721Metadata-name}."
      },
      "owner()": {
        "details": "Returns the address of the current owner."
      },
      "ownerOf(uint256)": {
        "details": "See {IERC721-ownerOf}."
      },
      "renounceOwnership()": {
        "details": "Leaves the contract without owner. It will not be possible to call `onlyOwner` functions. Can only be called by the current owner. NOTE: Renouncing ownership will leave the contract without an owner, thereby disabling any functionality that is only available to the owner."
      },
      "safeTransferFrom(address,address,uint256)": {
        "details": "See {IERC721-safeTransferFrom}."
      },
      "safeTransferFrom(address,address,uint256,bytes)": {
        "details": "See {IERC721-safeTransferFrom}."
      },
      "setApprovalForAll(address,bool)": {
        "details": "See {IERC721-setApprovalForAll}."
      },
      "supportsInterface(bytes4)": {
        "details": "See {IERC165-supportsInterface}."
      },
      "symbol()": {
        "details": "See {IERC721Metadata-symbol}."
      },
      "tokenByIndex(uint256)": {
        "details": "See {IERC721Enumerable-tokenByIndex}."
      },
      "tokenOfOwnerByIndex(address,uint256)": {
        "details": "See {IERC721Enumerable-tokenOfOwnerByIndex}."
      },
      "tokenURI(uint256)": {
        "details": "See {IERC721Metadata-tokenURI}."
      },
      "totalSupply()": {
        "details": "See {IERC721Enumerable-totalSupply}."
      },
      "transferFrom(address,address,uint256)": {
        "details": "See {IERC721-transferFrom}."
      },
      "transferOwnership(address)": {
        "details": "Transfers ownership of the contract to a new account (`newOwner`). Can only be called by the current owner."
      }
    },
    "version": 1
  },
  "userdoc": {
    "kind": "user",
    "methods": {},
    "version": 1
  }
}