{
  "contractName": "ContinentAuction",
  "abi": [
    {
      "inputs": [
        {
          "internalType": "address",
          "name": "_continentToken",
          "type": "address"
        }
      ],
      "stateMutability": "nonpayable",
      "type": "constructor"
    },
    {
      "anonymous": false,
      "inputs": [
        {
          "indexed": true,
          "internalType": "address",
          "name": "winner",
          "type": "address"
        },
        {
          "indexed": false,
          "internalType": "uint256",
          "name": "tokenId",
          "type": "uint256"
        },
        {
          "indexed": false,
          "internalType": "uint256",
          "name": "amount",
          "type": "uint256"
        }
      ],
      "name": "AuctionEnded",
      "type": "event"
    },
    {
      "anonymous": false,
      "inputs": [
        {
          "indexed": true,
          "internalType": "uint256",
          "name": "tokenId",
          "type": "uint256"
        },
        {
          "indexed": false,
          "internalType": "uint256",
          "name": "startTime",
          "type": "uint256"
        },
        {
          "indexed": false,
          "internalType": "uint256",
          "name": "endTime",
          "type": "uint256"
        }
      ],
      "name": "AuctionStarted",
      "type": "event"
    },
    {
      "anonymous": false,
      "inputs": [
        {
          "indexed": true,
          "internalType": "address",
          "name": "bidder",
          "type": "address"
        },
        {
          "indexed": false,
          "internalType": "uint256",
          "name": "tokenId",
          "type": "uint256"
        },
        {
          "indexed": false,
          "internalType": "uint256",
          "name": "amount",
          "type": "uint256"
        },
        {
          "indexed": false,
          "internalType": "uint256",
          "name": "timestamp",
          "type": "uint256"
        }
      ],
      "name": "BidPlaced",
      "type": "event"
    },
    {
      "anonymous": false,
      "inputs": [
        {
          "indexed": true,
          "internalType": "address",
          "name": "previousOwner",
          "type": "address"
        },
        {
          "indexed": true,
          "internalType": "address",
          "name": "newOwner",
          "type": "address"
        }
      ],
      "name": "OwnershipTransferred",
      "type": "event"
    },
    {
      "inputs": [],
      "name": "MAX_PURCHASE_PER_WALLET",
      "outputs": [
        {
          "internalType": "uint256",
          "name": "",
          "type": "uint256"
        }
      ],
      "stateMutability": "view",
      "type": "function"
    },
    {
      "inputs": [
        {
          "internalType": "uint256",
          "name": "",
          "type": "uint256"
        }
      ],
      "name": "auctions",
      "outputs": [
        {
          "internalType": "uint256",
          "name": "tokenId",
          "type": "uint256"
        },
        {
          "internalType": "uint256",
          "name": "bidIncrement",
          "type": "uint256"
        },
        {
          "internalType": "enum ContinentAuction.AuctionStatus",
          "name": "status",
          "type": "uint8"
        },
        {
          "internalType": "uint256",
          "name": "highestBid",
          "type": "uint256"
        },
        {
          "internalType": "address",
          "name": "highestBidder",
          "type": "address"
        },
        {
          "internalType": "uint256",
          "name": "startTime",
          "type": "uint256"
        },
        {
          "internalType": "uint256",
          "name": "endTime",
          "type": "uint256"
        }
      ],
      "stateMutability": "view",
      "type": "function"
    },
    {
      "inputs": [],
      "name": "continentTokenContract",
      "outputs": [
        {
          "internalType": "contract ContinentToken",
          "name": "",
          "type": "address"
        }
      ],
      "stateMutability": "view",
      "type": "function"
    },
    {
      "inputs": [],
      "name": "owner",
      "outputs": [
        {
          "internalType": "address",
          "name": "",
          "type": "address"
        }
      ],
      "stateMutability": "view",
      "type": "function"
    },
    {
      "inputs": [],
      "name": "renounceOwnership",
      "outputs": [],
      "stateMutability": "nonpayable",
      "type": "function"
    },
    {
      "inputs": [
        {
          "internalType": "address",
          "name": "newOwner",
          "type": "address"
        }
      ],
      "name": "transferOwnership",
      "outputs": [],
      "stateMutability": "nonpayable",
      "type": "function"
    },
    {
      "inputs": [
        {
          "internalType": "uint256",
          "name": "_tokenId",
          "type": "uint256"
        },
        {
          "internalType": "uint256",
          "name": "_startPrice",
          "type": "uint256"
        },
        {
          "internalType": "uint256",
          "name": "_bidIncrement",
          "type": "uint256"
        },
        {
          "internalType": "uint256",
          "name": "_duration",
          "type": "uint256"
        }
      ],
      "name": "createAuction",
      "outputs": [],
      "stateMutability": "nonpayable",
      "type": "function"
    },
    {
      "inputs": [
        {
          "internalType": "uint256",
          "name": "_tokenId",
          "type": "uint256"
        },
        {
          "internalType": "enum ContinentAuction.AuctionStatus",
          "name": "_status",
          "type": "uint8"
        }
      ],
      "name": "setAuctionStatus",
      "outputs": [],
      "stateMutability": "nonpayable",
      "type": "function"
    },
    {
      "inputs": [
        {
          "internalType": "uint256",
          "name": "_tokenId",
          "type": "uint256"
        }
      ],
      "name": "getAuction",
      "outputs": [
        {
          "internalType": "uint256",
          "name": "",
          "type": "uint256"
        },
        {
          "internalType": "uint256",
          "name": "",
          "type": "uint256"
        },
        {
          "internalType": "uint256",
          "name": "",
          "type": "uint256"
        },
        {
          "internalType": "uint256",
          "name": "",
          "type": "uint256"
        },
        {
          "internalType": "uint256",
          "name": "",
          "type": "uint256"
        },
        {
          "internalType": "enum ContinentAuction.AuctionStatus",
          "name": "",
          "type": "uint8"
        },
        {
          "internalType": "address",
          "name": "",
          "type": "address"
        }
      ],
      "stateMutability": "view",
      "type": "function"
    },
    {
      "inputs": [
        {
          "internalType": "uint256",
          "name": "_tokenId",
          "type": "uint256"
        }
      ],
      "name": "placeBid",
      "outputs": [],
      "stateMutability": "payable",
      "type": "function"
    },
    {
      "inputs": [
        {
          "internalType": "uint256",
          "name": "_tokenId",
          "type": "uint256"
        }
      ],
      "name": "getBids",
      "outputs": [
        {
          "components": [
            {
              "internalType": "uint256",
              "name": "amount",
              "type": "uint256"
            },
            {
              "internalType": "uint256",
              "name": "timestamp",
              "type": "uint256"
            },
            {
              "internalType": "address",
              "name": "bidder",
              "type": "address"
            }
          ],
          "internalType": "struct ContinentAuction.BidItem[]",
          "name": "",
          "type": "tuple[]"
        }
      ],
      "stateMutability": "view",
      "type": "function"
    },
    {
      "inputs": [],
      "name": "withdraw",
      "outputs": [],
      "stateMutability": "nonpayable",
      "type": "function"
    }
  ],
  "bytecode": "0x60806040523480156200001157600080fd5b5060405162001e7038038062001e708339818101604052810190620000379190620001d5565b620000576200004b6200009f60201b60201c565b620000a760201b60201c565b80600260006101000a81548173ffffffffffffffffffffffffffffffffffffffff021916908373ffffffffffffffffffffffffffffffffffffffff1602179055505062000207565b600033905090565b60008060009054906101000a900473ffffffffffffffffffffffffffffffffffffffff169050816000806101000a81548173ffffffffffffffffffffffffffffffffffffffff021916908373ffffffffffffffffffffffffffffffffffffffff1602179055508173ffffffffffffffffffffffffffffffffffffffff168173ffffffffffffffffffffffffffffffffffffffff167f8be0079c531659141344cd1fd0a4f28419497f9722a3daafe3b4186f6b6457e060405160405180910390a35050565b600080fd5b600073ffffffffffffffffffffffffffffffffffffffff82169050919050565b60006200019d8262000170565b9050919050565b620001af8162000190565b8114620001bb57600080fd5b50565b600081519050620001cf81620001a4565b92915050565b600060208284031215620001ee57620001ed6200016b565b5b6000620001fe84828501620001be565b91505092915050565b611c5980620002176000396000f3fe6080604052600436106100a75760003560e01c8063715018a611610064578063715018a6146101c257806378bd7935146101d95780638da5cb5b1461021c5780639979ef4514610247578063bb7af79514610263578063f2fde38b1461028c576100a7565b8063131d9a27146100ac5780632c335e0e146100e95780633ccfd60b14610114578063431f21da1461012b5780634f93db0314610154578063571a26a01461017f575b600080fd5b3480156100b857600080fd5b506100d360048036038101906100ce91906110bb565b6102b5565b6040516100e09190611229565b60405180910390f35b3480156100f557600080fd5b506100fe61039a565b60405161010b919061125a565b60405180910390f35b34801561012057600080fd5b5061012961039f565b005b34801561013757600080fd5b50610152600480360381019061014d9190611275565b6103d9565b005b34801561016057600080fd5b50610169610793565b604051610176919061133b565b60405180910390f35b34801561018b57600080fd5b506101a660048036038101906101a191906110bb565b6107b9565b6040516101b997969594939291906113dc565b60405180910390f35b3480156101ce57600080fd5b506101d7610828565b005b3480156101e557600080fd5b5061020060048036038101906101fb91906110bb565b61083c565b604051610213979695949392919061144b565b60405180910390f35b34801561022857600080fd5b50610231610918565b60405161023e91906114ba565b60405180910390f35b610261600480360381019061025c91906110bb565b610941565b005b34801561026f57600080fd5b5061028a600480360381019061028591906114fa565b610d75565b005b34801561029857600080fd5b506102b360048036038101906102ae9190611566565b610dbf565b005b6060600060016000848152602001908152602001600020600401805480602002602001604051908101604052809291908181526020016000905b8282101561038b578382906000526020600020906003020160405180606001604052908160008201548152602001600182015481526020016002820160009054906101000a900473ffffffffffffffffffffffffffffffffffffffff1673ffffffffffffffffffffffffffffffffffffffff1673ffffffffffffffffffffffffffffffffffffffff1681525050815260200190600101906102ef565b50505050905080915050919050565b600181565b6103a7610e42565b6103d7476103b3610918565b73ffffffffffffffffffffffffffffffffffffffff16610ec090919063ffffffff16565b565b6103e1610e42565b600081426103ef91906115c2565b9050600260009054906101000a900473ffffffffffffffffffffffffffffffffffffffff1673ffffffffffffffffffffffffffffffffffffffff16600260009054906101000a900473ffffffffffffffffffffffffffffffffffffffff1673ffffffffffffffffffffffffffffffffffffffff16636352211e876040518263ffffffff1660e01b8152600401610485919061125a565b602060405180830381865afa1580156104a2573d6000803e3d6000fd5b505050506040513d601f19601f820116820180604052508101906104c6919061162d565b73ffffffffffffffffffffffffffffffffffffffff161461051c576040517f08c379a0000000000000000000000000000000000000000000000000000000008152600401610513906116b7565b60405180910390fd5b6000600160008781526020019081526020016000206007015414801561058a57506001600281111561055157610550611356565b5b6001600087815260200190815260200160002060020160009054906101000a900460ff16600281111561058757610586611356565b5b14155b6105c9576040517f08c379a00000000000000000000000000000000000000000000000000000000081526004016105c090611723565b60405180910390fd5b42811161060b576040517f08c379a00000000000000000000000000000000000000000000000000000000081526004016106029061178f565b60405180910390fd5b84600160008781526020019081526020016000206000018190555082600160008781526020019081526020016000206001018190555083600160008781526020019081526020016000206003018190555060006001600087815260200190815260200160002060050160006101000a81548173ffffffffffffffffffffffffffffffffffffffff021916908373ffffffffffffffffffffffffffffffffffffffff160217905550426001600087815260200190815260200160002060060181905550806001600087815260200190815260200160002060070181905550600180600087815260200190815260200160002060020160006101000a81548160ff0219169083600281111561072157610720611356565b5b0217905550847f44c53be110c6aa83aa83cd02e351ed172359268272ee1b5d31c0fe48db35c6c7600160008881526020019081526020016000206006015460016000898152602001908152602001600020600701546040516107849291906117af565b60405180910390a25050505050565b600260009054906101000a900473ffffffffffffffffffffffffffffffffffffffff1681565b60016020528060005260406000206000915090508060000154908060010154908060020160009054906101000a900460ff16908060030154908060050160009054906101000a900473ffffffffffffffffffffffffffffffffffffffff16908060060154908060070154905087565b610830610e42565b61083a6000610fb4565b565b600080600080600080600087600160008a815260200190815260200160002060010154600160008b815260200190815260200160002060030154600160008c815260200190815260200160002060060154600160008d815260200190815260200160002060070154600160008e815260200190815260200160002060020160009054906101000a900460ff16600160008f815260200190815260200160002060050160009054906101000a900473ffffffffffffffffffffffffffffffffffffffff169650965096509650965096509650919395979092949650565b60008060009054906101000a900473ffffffffffffffffffffffffffffffffffffffff16905090565b60004290506001600083815260200190815260200160002060070154811061099e576040517f08c379a000000000000000000000000000000000000000000000000000000000815260040161099590611824565b60405180910390fd5b6001600260009054906101000a900473ffffffffffffffffffffffffffffffffffffffff1673ffffffffffffffffffffffffffffffffffffffff166370a08231336040518263ffffffff1660e01b81526004016109fb91906114ba565b602060405180830381865afa158015610a18573d6000803e3d6000fd5b505050506040513d601f19601f82011682018060405250810190610a3c9190611859565b10610a7c576040517f08c379a0000000000000000000000000000000000000000000000000000000008152600401610a73906118d2565b60405180910390fd5b600060016000848152602001908152602001600020600101546001600085815260200190815260200160002060030154610ab691906115c2565b905080341015610afb576040517f08c379a0000000000000000000000000000000000000000000000000000000008152600401610af29061198a565b60405180910390fd5b600073ffffffffffffffffffffffffffffffffffffffff166001600085815260200190815260200160002060050160009054906101000a900473ffffffffffffffffffffffffffffffffffffffff1673ffffffffffffffffffffffffffffffffffffffff1614610be15760006001600085815260200190815260200160002060050160009054906101000a900473ffffffffffffffffffffffffffffffffffffffff169050610bdf60016000868152602001908152602001600020600301548273ffffffffffffffffffffffffffffffffffffffff16610ec090919063ffffffff16565b505b346001600085815260200190815260200160002060030181905550336001600085815260200190815260200160002060050160006101000a81548173ffffffffffffffffffffffffffffffffffffffff021916908373ffffffffffffffffffffffffffffffffffffffff1602179055506001600084815260200190815260200160002060040160405180606001604052803481526020018481526020013373ffffffffffffffffffffffffffffffffffffffff168152509080600181540180825580915050600190039060005260206000209060030201600090919091909150600082015181600001556020820151816001015560408201518160020160006101000a81548173ffffffffffffffffffffffffffffffffffffffff021916908373ffffffffffffffffffffffffffffffffffffffff16021790555050503373ffffffffffffffffffffffffffffffffffffffff167fb46d776cdb48d081a0c7d3ff32dc2792e4e8fbce788723207515723628020d32843485604051610d68939291906119aa565b60405180910390a2505050565b610d7d610e42565b806001600084815260200190815260200160002060020160006101000a81548160ff02191690836002811115610db657610db5611356565b5b02179055505050565b610dc7610e42565b600073ffffffffffffffffffffffffffffffffffffffff168173ffffffffffffffffffffffffffffffffffffffff1603610e36576040517f08c379a0000000000000000000000000000000000000000000000000000000008152600401610e2d90611a53565b60405180910390fd5b610e3f81610fb4565b50565b610e4a611078565b73ffffffffffffffffffffffffffffffffffffffff16610e68610918565b73ffffffffffffffffffffffffffffffffffffffff1614610ebe576040517f08c379a0000000000000000000000000000000000000000000000000000000008152600401610eb590611abf565b60405180910390fd5b565b80471015610f03576040517f08c379a0000000000000000000000000000000000000000000000000000000008152600401610efa90611b2b565b60405180910390fd5b60008273ffffffffffffffffffffffffffffffffffffffff1682604051610f2990611b7c565b60006040518083038185875af1925050503d8060008114610f66576040519150601f19603f3d011682016040523d82523d6000602084013e610f6b565b606091505b5050905080610faf576040517f08c379a0000000000000000000000000000000000000000000000000000000008152600401610fa690611c03565b60405180910390fd5b505050565b60008060009054906101000a900473ffffffffffffffffffffffffffffffffffffffff169050816000806101000a81548173ffffffffffffffffffffffffffffffffffffffff021916908373ffffffffffffffffffffffffffffffffffffffff1602179055508173ffffffffffffffffffffffffffffffffffffffff168173ffffffffffffffffffffffffffffffffffffffff167f8be0079c531659141344cd1fd0a4f28419497f9722a3daafe3b4186f6b6457e060405160405180910390a35050565b600033905090565b600080fd5b6000819050919050565b61109881611085565b81146110a357600080fd5b50565b6000813590506110b58161108f565b92915050565b6000602082840312156110d1576110d0611080565b5b60006110df848285016110a6565b91505092915050565b600081519050919050565b600082825260208201905092915050565b6000819050602082019050919050565b61111d81611085565b82525050565b600073ffffffffffffffffffffffffffffffffffffffff82169050919050565b600061114e82611123565b9050919050565b61115e81611143565b82525050565b60608201600082015161117a6000850182611114565b50602082015161118d6020850182611114565b5060408201516111a06040850182611155565b50505050565b60006111b28383611164565b60608301905092915050565b6000602082019050919050565b60006111d6826110e8565b6111e081856110f3565b93506111eb83611104565b8060005b8381101561121c57815161120388826111a6565b975061120e836111be565b9250506001810190506111ef565b5085935050505092915050565b6000602082019050818103600083015261124381846111cb565b905092915050565b61125481611085565b82525050565b600060208201905061126f600083018461124b565b92915050565b6000806000806080858703121561128f5761128e611080565b5b600061129d878288016110a6565b94505060206112ae878288016110a6565b93505060406112bf878288016110a6565b92505060606112d0878288016110a6565b91505092959194509250565b6000819050919050565b60006113016112fc6112f784611123565b6112dc565b611123565b9050919050565b6000611313826112e6565b9050919050565b600061132582611308565b9050919050565b6113358161131a565b82525050565b6000602082019050611350600083018461132c565b92915050565b7f4e487b7100000000000000000000000000000000000000000000000000000000600052602160045260246000fd5b6003811061139657611395611356565b5b50565b60008190506113a782611385565b919050565b60006113b782611399565b9050919050565b6113c7816113ac565b82525050565b6113d681611143565b82525050565b600060e0820190506113f1600083018a61124b565b6113fe602083018961124b565b61140b60408301886113be565b611418606083018761124b565b61142560808301866113cd565b61143260a083018561124b565b61143f60c083018461124b565b98975050505050505050565b600060e082019050611460600083018a61124b565b61146d602083018961124b565b61147a604083018861124b565b611487606083018761124b565b611494608083018661124b565b6114a160a08301856113be565b6114ae60c08301846113cd565b98975050505050505050565b60006020820190506114cf60008301846113cd565b92915050565b600381106114e257600080fd5b50565b6000813590506114f4816114d5565b92915050565b6000806040838503121561151157611510611080565b5b600061151f858286016110a6565b9250506020611530858286016114e5565b9150509250929050565b61154381611143565b811461154e57600080fd5b50565b6000813590506115608161153a565b92915050565b60006020828403121561157c5761157b611080565b5b600061158a84828501611551565b91505092915050565b7f4e487b7100000000000000000000000000000000000000000000000000000000600052601160045260246000fd5b60006115cd82611085565b91506115d883611085565b9250827fffffffffffffffffffffffffffffffffffffffffffffffffffffffffffffffff0382111561160d5761160c611593565b5b828201905092915050565b6000815190506116278161153a565b92915050565b60006020828403121561164357611642611080565b5b600061165184828501611618565b91505092915050565b600082825260208201905092915050565b7f436f6e74696e656e74206e6f7420696e20636f6e747261637400000000000000600082015250565b60006116a160198361165a565b91506116ac8261166b565b602082019050919050565b600060208201905081810360008301526116d081611694565b9050919050565b7f41756374696f6e20616c72656164792065786973747300000000000000000000600082015250565b600061170d60168361165a565b9150611718826116d7565b602082019050919050565b6000602082019050818103600083015261173c81611700565b9050919050565b7f456e642074696d65206d75737420626520696e20746865206675747572650000600082015250565b6000611779601e8361165a565b915061178482611743565b602082019050919050565b600060208201905081810360008301526117a88161176c565b9050919050565b60006040820190506117c4600083018561124b565b6117d1602083018461124b565b9392505050565b7f41756374696f6e20656e646564206f72206e6f74207374617274656400000000600082015250565b600061180e601c8361165a565b9150611819826117d8565b602082019050919050565b6000602082019050818103600083015261183d81611801565b9050919050565b6000815190506118538161108f565b92915050565b60006020828403121561186f5761186e611080565b5b600061187d84828501611844565b91505092915050565b7f596f7520616c7265616479206f776e206120636f6e74696e656e740000000000600082015250565b60006118bc601b8361165a565b91506118c782611886565b602082019050919050565b600060208201905081810360008301526118eb816118af565b9050919050565b7f426964206d75737420626520686967686572207468616e2063757272656e742060008201527f626964206279206174206c65617374207468652062696420696e6372656d656e60208201527f7400000000000000000000000000000000000000000000000000000000000000604082015250565b600061197460418361165a565b915061197f826118f2565b606082019050919050565b600060208201905081810360008301526119a381611967565b9050919050565b60006060820190506119bf600083018661124b565b6119cc602083018561124b565b6119d9604083018461124b565b949350505050565b7f4f776e61626c653a206e6577206f776e657220697320746865207a65726f206160008201527f6464726573730000000000000000000000000000000000000000000000000000602082015250565b6000611a3d60268361165a565b9150611a48826119e1565b604082019050919050565b60006020820190508181036000830152611a6c81611a30565b9050919050565b7f4f776e61626c653a2063616c6c6572206973206e6f7420746865206f776e6572600082015250565b6000611aa960208361165a565b9150611ab482611a73565b602082019050919050565b60006020820190508181036000830152611ad881611a9c565b9050919050565b7f416464726573733a20696e73756666696369656e742062616c616e6365000000600082015250565b6000611b15601d8361165a565b9150611b2082611adf565b602082019050919050565b60006020820190508181036000830152611b4481611b08565b9050919050565b600081905092915050565b50565b6000611b66600083611b4b565b9150611b7182611b56565b600082019050919050565b6000611b8782611b59565b9150819050919050565b7f416464726573733a20756e61626c6520746f2073656e642076616c75652c207260008201527f6563697069656e74206d61792068617665207265766572746564000000000000602082015250565b6000611bed603a8361165a565b9150611bf882611b91565b604082019050919050565b60006020820190508181036000830152611c1c81611be0565b905091905056fea264697066735822122035661a605c5eb8d4611e22f29b8aabd1d21409126beb39e9a6aa21f87876b42364736f6c634300080d0033",
  "immutableReferences": {},
  "source": "// SPDX-License-Identifier: MIT\npragma solidity ^0.8.13;\n\nimport \"@openzeppelin/contracts/access/Ownable.sol\";\nimport \"@openzeppelin/contracts/token/ERC721/IERC721.sol\";\nimport \"@openzeppelin/contracts/utils/math/SafeMath.sol\";\nimport \"@openzeppelin/contracts/utils/Address.sol\";\nimport \"./ContinentToken.sol\";\n\n\ncontract ContinentAuction is Ownable {\n    using SafeMath for uint256;\n    using Address for address payable;\n\n    uint256 public constant MAX_PURCHASE_PER_WALLET = 1;\n\n    enum AuctionStatus { Pending, Open, Closed }\n\n    struct Auction {\n        uint256 tokenId; // id of the auction token \n        uint256 bidIncrement; // the minimum bid increment\n        AuctionStatus status; // the status of the auction (Pending, Open, Closed)\n\n        uint256 highestBid; // the current highest bid amount\n        BidItem[] bids; // the auction bids\n        address highestBidder; // the account with the current highest bid\n\n        uint256 startTime; // the time the auction started\n        uint256 endTime; // the time the auction ended\n    }\n\n    struct BidItem {\n        uint256 amount; // bid price in wei\n        uint256 timestamp; // timestamp of bid\n        address bidder; // address of bidder\n    }\n\n    mapping(uint256 => Auction) public auctions;\n\n    ContinentToken public continentTokenContract;\n\n    event BidPlaced(address indexed bidder, uint256 tokenId, uint256 amount, uint256 timestamp);\n    event AuctionEnded(address indexed winner, uint256 tokenId, uint256 amount);\n    event AuctionStarted(uint256 indexed tokenId, uint256 startTime, uint256 endTime);\n\n    constructor(address _continentToken) {\n        continentTokenContract = ContinentToken(_continentToken);\n    }\n\n    function createAuction(uint256 _tokenId, uint256 _startPrice, uint256 _bidIncrement, uint256 _duration) public onlyOwner {\n        \n        uint256 endTime = (block.timestamp + _duration);\n\n        require(continentTokenContract.ownerOf(_tokenId) == address(continentTokenContract), \"Continent not in contract\");\n        require(auctions[_tokenId].endTime == 0 && auctions[_tokenId].status != AuctionStatus.Open, \"Auction already exists\");\n        require(endTime > block.timestamp, \"End time must be in the future\");\n\n        auctions[_tokenId].tokenId = _tokenId;\n        auctions[_tokenId].bidIncrement = _bidIncrement;\n        auctions[_tokenId].highestBid = _startPrice; \n        auctions[_tokenId].highestBidder = address(0);\n        auctions[_tokenId].startTime = block.timestamp;\n        auctions[_tokenId].endTime = endTime;\n        auctions[_tokenId].status = AuctionStatus.Open;\n\n        emit AuctionStarted(_tokenId, auctions[_tokenId].startTime, auctions[_tokenId].endTime);\n    }\n\n    function setAuctionStatus(uint256 _tokenId, AuctionStatus _status) public onlyOwner {\n        auctions[_tokenId].status = _status;\n    }\n\n    function getAuction(uint256 _tokenId) public view returns (uint256, uint256, uint256, uint256, uint256, AuctionStatus, address) {\n        return (_tokenId, auctions[_tokenId].bidIncrement, auctions[_tokenId].highestBid, auctions[_tokenId].startTime, auctions[_tokenId].endTime, auctions[_tokenId].status, auctions[_tokenId].highestBidder);\n    }\n\n    function placeBid(uint256 _tokenId) public payable {\n\n        uint256 bidTime = block.timestamp;\n\n        require(bidTime < auctions[_tokenId].endTime, \"Auction ended or not started\");\n        require(continentTokenContract.balanceOf(msg.sender) < MAX_PURCHASE_PER_WALLET, \"You already own a continent\");\n\n        uint256 nextMinimumBid = auctions[_tokenId].highestBid + auctions[_tokenId].bidIncrement;\n        require(msg.value >= nextMinimumBid, \"Bid must be higher than current bid by at least the bid increment\");\n\n        // Refund the previous highest bid\n        if (auctions[_tokenId].highestBidder != address(0)) {\n            address payable previousBidder = payable(auctions[_tokenId].highestBidder);\n            previousBidder.sendValue(auctions[_tokenId].highestBid);\n        }\n\n        auctions[_tokenId].highestBid = msg.value;\n        auctions[_tokenId].highestBidder = msg.sender;\n\n        auctions[_tokenId].bids.push(BidItem({\n            amount: msg.value,\n            timestamp: bidTime,\n            bidder: msg.sender\n        }));\n\n        emit BidPlaced(msg.sender, _tokenId, msg.value, bidTime);\n    }\n\n    function getBids(uint256 _tokenId) public view returns (BidItem[] memory) {\n        BidItem[] memory bids = auctions[_tokenId].bids;\n        return bids;\n    }\n\n    function withdraw() public onlyOwner {\n        payable(owner()).sendValue(address(this).balance);\n    }\n\n}",
  "sourcePath": "/Users/timicodes/Code/world-nft/contracts/ContinentAuction.sol",
  "compiler": {
    "name": "solc",
    "version": "0.8.13+commit.abaa5c0e.Emscripten.clang"
  },
  "schemaVersion": "3.4.16",
  "updatedAt": "2024-05-20T01:18:45.596Z",
  "devdoc": {
    "kind": "dev",
    "methods": {
      "owner()": {
        "details": "Returns the address of the current owner."
      },
      "renounceOwnership()": {
        "details": "Leaves the contract without owner. It will not be possible to call `onlyOwner` functions. Can only be called by the current owner. NOTE: Renouncing ownership will leave the contract without an owner, thereby disabling any functionality that is only available to the owner."
      },
      "transferOwnership(address)": {
        "details": "Transfers ownership of the contract to a new account (`newOwner`). Can only be called by the current owner."
      }
    },
    "version": 1
  },
  "userdoc": {
    "kind": "user",
    "methods": {},
    "version": 1
  }
}