{
  "contractName": "ContinentToken",
  "abi": [
    {
      "inputs": [
        {
          "internalType": "string",
          "name": "name",
          "type": "string"
        },
        {
          "internalType": "string",
          "name": "symbol",
          "type": "string"
        },
        {
          "internalType": "string",
          "name": "_baseTokenURI",
          "type": "string"
        }
      ],
      "stateMutability": "nonpayable",
      "type": "constructor"
    },
    {
      "anonymous": false,
      "inputs": [
        {
          "indexed": true,
          "internalType": "address",
          "name": "owner",
          "type": "address"
        },
        {
          "indexed": true,
          "internalType": "address",
          "name": "approved",
          "type": "address"
        },
        {
          "indexed": true,
          "internalType": "uint256",
          "name": "tokenId",
          "type": "uint256"
        }
      ],
      "name": "Approval",
      "type": "event"
    },
    {
      "anonymous": false,
      "inputs": [
        {
          "indexed": true,
          "internalType": "address",
          "name": "owner",
          "type": "address"
        },
        {
          "indexed": true,
          "internalType": "address",
          "name": "operator",
          "type": "address"
        },
        {
          "indexed": false,
          "internalType": "bool",
          "name": "approved",
          "type": "bool"
        }
      ],
      "name": "ApprovalForAll",
      "type": "event"
    },
    {
      "anonymous": false,
      "inputs": [
        {
          "indexed": true,
          "internalType": "uint256",
          "name": "tokenId",
          "type": "uint256"
        },
        {
          "indexed": true,
          "internalType": "address",
          "name": "citizen",
          "type": "address"
        }
      ],
      "name": "CitizenshipPurchased",
      "type": "event"
    },
    {
      "anonymous": false,
      "inputs": [
        {
          "indexed": true,
          "internalType": "uint256",
          "name": "tokenId",
          "type": "uint256"
        },
        {
          "indexed": false,
          "internalType": "string",
          "name": "name",
          "type": "string"
        },
        {
          "indexed": false,
          "internalType": "string",
          "name": "metadataURI",
          "type": "string"
        }
      ],
      "name": "ContinentCreated",
      "type": "event"
    },
    {
      "anonymous": false,
      "inputs": [
        {
          "indexed": true,
          "internalType": "address",
          "name": "from",
          "type": "address"
        },
        {
          "indexed": true,
          "internalType": "address",
          "name": "to",
          "type": "address"
        },
        {
          "indexed": true,
          "internalType": "uint256",
          "name": "tokenId",
          "type": "uint256"
        }
      ],
      "name": "ContinentTransfered",
      "type": "event"
    },
    {
      "anonymous": false,
      "inputs": [
        {
          "indexed": true,
          "internalType": "address",
          "name": "previousOwner",
          "type": "address"
        },
        {
          "indexed": true,
          "internalType": "address",
          "name": "newOwner",
          "type": "address"
        }
      ],
      "name": "OwnershipTransferred",
      "type": "event"
    },
    {
      "anonymous": false,
      "inputs": [
        {
          "indexed": true,
          "internalType": "address",
          "name": "from",
          "type": "address"
        },
        {
          "indexed": true,
          "internalType": "address",
          "name": "to",
          "type": "address"
        },
        {
          "indexed": true,
          "internalType": "uint256",
          "name": "tokenId",
          "type": "uint256"
        }
      ],
      "name": "Transfer",
      "type": "event"
    },
    {
      "inputs": [],
      "name": "MAX_SUPPLY",
      "outputs": [
        {
          "internalType": "uint256",
          "name": "",
          "type": "uint256"
        }
      ],
      "stateMutability": "view",
      "type": "function",
      "constant": true
    },
    {
      "inputs": [
        {
          "internalType": "address",
          "name": "to",
          "type": "address"
        },
        {
          "internalType": "uint256",
          "name": "tokenId",
          "type": "uint256"
        }
      ],
      "name": "approve",
      "outputs": [],
      "stateMutability": "nonpayable",
      "type": "function"
    },
    {
      "inputs": [
        {
          "internalType": "address",
          "name": "owner",
          "type": "address"
        }
      ],
      "name": "balanceOf",
      "outputs": [
        {
          "internalType": "uint256",
          "name": "",
          "type": "uint256"
        }
      ],
      "stateMutability": "view",
      "type": "function",
      "constant": true
    },
    {
      "inputs": [],
      "name": "baseTokenURI",
      "outputs": [
        {
          "internalType": "string",
          "name": "",
          "type": "string"
        }
      ],
      "stateMutability": "view",
      "type": "function",
      "constant": true
    },
    {
      "inputs": [
        {
          "internalType": "uint256",
          "name": "",
          "type": "uint256"
        }
      ],
      "name": "continents",
      "outputs": [
        {
          "internalType": "string",
          "name": "name",
          "type": "string"
        },
        {
          "internalType": "string",
          "name": "metadataURI",
          "type": "string"
        },
        {
          "internalType": "address",
          "name": "owner",
          "type": "address"
        },
        {
          "internalType": "uint256",
          "name": "citizenTax",
          "type": "uint256"
        }
      ],
      "stateMutability": "view",
      "type": "function",
      "constant": true
    },
    {
      "inputs": [
        {
          "internalType": "uint256",
          "name": "tokenId",
          "type": "uint256"
        }
      ],
      "name": "getApproved",
      "outputs": [
        {
          "internalType": "address",
          "name": "",
          "type": "address"
        }
      ],
      "stateMutability": "view",
      "type": "function",
      "constant": true
    },
    {
      "inputs": [
        {
          "internalType": "address",
          "name": "owner",
          "type": "address"
        },
        {
          "internalType": "address",
          "name": "operator",
          "type": "address"
        }
      ],
      "name": "isApprovedForAll",
      "outputs": [
        {
          "internalType": "bool",
          "name": "",
          "type": "bool"
        }
      ],
      "stateMutability": "view",
      "type": "function",
      "constant": true
    },
    {
      "inputs": [],
      "name": "name",
      "outputs": [
        {
          "internalType": "string",
          "name": "",
          "type": "string"
        }
      ],
      "stateMutability": "view",
      "type": "function",
      "constant": true
    },
    {
      "inputs": [],
      "name": "owner",
      "outputs": [
        {
          "internalType": "address",
          "name": "",
          "type": "address"
        }
      ],
      "stateMutability": "view",
      "type": "function",
      "constant": true
    },
    {
      "inputs": [
        {
          "internalType": "uint256",
          "name": "tokenId",
          "type": "uint256"
        }
      ],
      "name": "ownerOf",
      "outputs": [
        {
          "internalType": "address",
          "name": "",
          "type": "address"
        }
      ],
      "stateMutability": "view",
      "type": "function",
      "constant": true
    },
    {
      "inputs": [],
      "name": "renounceOwnership",
      "outputs": [],
      "stateMutability": "nonpayable",
      "type": "function"
    },
    {
      "inputs": [
        {
          "internalType": "address",
          "name": "from",
          "type": "address"
        },
        {
          "internalType": "address",
          "name": "to",
          "type": "address"
        },
        {
          "internalType": "uint256",
          "name": "tokenId",
          "type": "uint256"
        }
      ],
      "name": "safeTransferFrom",
      "outputs": [],
      "stateMutability": "nonpayable",
      "type": "function"
    },
    {
      "inputs": [
        {
          "internalType": "address",
          "name": "from",
          "type": "address"
        },
        {
          "internalType": "address",
          "name": "to",
          "type": "address"
        },
        {
          "internalType": "uint256",
          "name": "tokenId",
          "type": "uint256"
        },
        {
          "internalType": "bytes",
          "name": "data",
          "type": "bytes"
        }
      ],
      "name": "safeTransferFrom",
      "outputs": [],
      "stateMutability": "nonpayable",
      "type": "function"
    },
    {
      "inputs": [
        {
          "internalType": "address",
          "name": "operator",
          "type": "address"
        },
        {
          "internalType": "bool",
          "name": "approved",
          "type": "bool"
        }
      ],
      "name": "setApprovalForAll",
      "outputs": [],
      "stateMutability": "nonpayable",
      "type": "function"
    },
    {
      "inputs": [
        {
          "internalType": "bytes4",
          "name": "interfaceId",
          "type": "bytes4"
        }
      ],
      "name": "supportsInterface",
      "outputs": [
        {
          "internalType": "bool",
          "name": "",
          "type": "bool"
        }
      ],
      "stateMutability": "view",
      "type": "function",
      "constant": true
    },
    {
      "inputs": [],
      "name": "symbol",
      "outputs": [
        {
          "internalType": "string",
          "name": "",
          "type": "string"
        }
      ],
      "stateMutability": "view",
      "type": "function",
      "constant": true
    },
    {
      "inputs": [],
      "name": "teamFee",
      "outputs": [
        {
          "internalType": "uint256",
          "name": "",
          "type": "uint256"
        }
      ],
      "stateMutability": "view",
      "type": "function",
      "constant": true
    },
    {
      "inputs": [
        {
          "internalType": "uint256",
          "name": "index",
          "type": "uint256"
        }
      ],
      "name": "tokenByIndex",
      "outputs": [
        {
          "internalType": "uint256",
          "name": "",
          "type": "uint256"
        }
      ],
      "stateMutability": "view",
      "type": "function",
      "constant": true
    },
    {
      "inputs": [
        {
          "internalType": "address",
          "name": "owner",
          "type": "address"
        },
        {
          "internalType": "uint256",
          "name": "index",
          "type": "uint256"
        }
      ],
      "name": "tokenOfOwnerByIndex",
      "outputs": [
        {
          "internalType": "uint256",
          "name": "",
          "type": "uint256"
        }
      ],
      "stateMutability": "view",
      "type": "function",
      "constant": true
    },
    {
      "inputs": [
        {
          "internalType": "uint256",
          "name": "tokenId",
          "type": "uint256"
        }
      ],
      "name": "tokenURI",
      "outputs": [
        {
          "internalType": "string",
          "name": "",
          "type": "string"
        }
      ],
      "stateMutability": "view",
      "type": "function",
      "constant": true
    },
    {
      "inputs": [],
      "name": "totalSupply",
      "outputs": [
        {
          "internalType": "uint256",
          "name": "",
          "type": "uint256"
        }
      ],
      "stateMutability": "view",
      "type": "function",
      "constant": true
    },
    {
      "inputs": [
        {
          "internalType": "address",
          "name": "from",
          "type": "address"
        },
        {
          "internalType": "address",
          "name": "to",
          "type": "address"
        },
        {
          "internalType": "uint256",
          "name": "tokenId",
          "type": "uint256"
        }
      ],
      "name": "transferFrom",
      "outputs": [],
      "stateMutability": "nonpayable",
      "type": "function"
    },
    {
      "inputs": [
        {
          "internalType": "address",
          "name": "newOwner",
          "type": "address"
        }
      ],
      "name": "transferOwnership",
      "outputs": [],
      "stateMutability": "nonpayable",
      "type": "function"
    },
    {
      "inputs": [
        {
          "internalType": "uint256",
          "name": "_tokenId",
          "type": "uint256"
        },
        {
          "internalType": "address",
          "name": "_to",
          "type": "address"
        }
      ],
      "name": "transferTokenFromContract",
      "outputs": [],
      "stateMutability": "nonpayable",
      "type": "function"
    },
    {
      "inputs": [
        {
          "internalType": "uint256",
          "name": "_tokenId",
          "type": "uint256"
        },
        {
          "internalType": "address",
          "name": "_to",
          "type": "address"
        }
      ],
      "name": "transferContinent",
      "outputs": [],
      "stateMutability": "payable",
      "type": "function",
      "payable": true
    },
    {
      "inputs": [],
      "name": "getAllContinents",
      "outputs": [
        {
          "internalType": "uint256[]",
          "name": "",
          "type": "uint256[]"
        },
        {
          "internalType": "string[]",
          "name": "",
          "type": "string[]"
        },
        {
          "internalType": "string[]",
          "name": "",
          "type": "string[]"
        },
        {
          "internalType": "address[]",
          "name": "",
          "type": "address[]"
        },
        {
          "internalType": "uint256[]",
          "name": "",
          "type": "uint256[]"
        }
      ],
      "stateMutability": "view",
      "type": "function",
      "constant": true
    },
    {
      "inputs": [
        {
          "internalType": "uint256",
          "name": "_tokenId",
          "type": "uint256"
        }
      ],
      "name": "getContinentOwner",
      "outputs": [
        {
          "internalType": "address",
          "name": "",
          "type": "address"
        }
      ],
      "stateMutability": "view",
      "type": "function",
      "constant": true
    },
    {
      "inputs": [
        {
          "internalType": "uint256",
          "name": "_tokenId",
          "type": "uint256"
        }
      ],
      "name": "buyCitizenship",
      "outputs": [],
      "stateMutability": "payable",
      "type": "function",
      "payable": true
    },
    {
      "inputs": [
        {
          "internalType": "uint256",
          "name": "_tokenId",
          "type": "uint256"
        },
        {
          "internalType": "uint256",
          "name": "_citizenTax",
          "type": "uint256"
        }
      ],
      "name": "setCitizenTax",
      "outputs": [],
      "stateMutability": "nonpayable",
      "type": "function"
    },
    {
      "inputs": [
        {
          "internalType": "uint256",
          "name": "_tokenId",
          "type": "uint256"
        }
      ],
      "name": "getCitizens",
      "outputs": [
        {
          "internalType": "address[]",
          "name": "",
          "type": "address[]"
        }
      ],
      "stateMutability": "view",
      "type": "function",
      "constant": true
    },
    {
      "inputs": [
        {
          "internalType": "uint256",
          "name": "_newTeamFee",
          "type": "uint256"
        }
      ],
      "name": "setTeamFee",
      "outputs": [],
      "stateMutability": "nonpayable",
      "type": "function"
    },
    {
      "inputs": [
        {
          "internalType": "string",
          "name": "_baseTokenURI",
          "type": "string"
        }
      ],
      "name": "setBaseURI",
      "outputs": [],
      "stateMutability": "nonpayable",
      "type": "function"
    },
    {
      "inputs": [],
      "name": "withdraw",
      "outputs": [],
      "stateMutability": "nonpayable",
      "type": "function"
    }
  ],
  "bytecode": "0x6080604052662386f26fc10000600c553480156200001c57600080fd5b506040516200680e3803806200680e83398181016040528101906200004291906200141e565b828281600090805190602001906200005c92919062001142565b5080600190805190602001906200007592919062001142565b505050620000986200008c620000ca60201b60201c565b620000d260201b60201c565b80600d9080519060200190620000b092919062001142565b50620000c16200019860201b60201c565b50505062001b59565b600033905090565b6000600a60009054906101000a900473ffffffffffffffffffffffffffffffffffffffff16905081600a60006101000a81548173ffffffffffffffffffffffffffffffffffffffff021916908373ffffffffffffffffffffffffffffffffffffffff1602179055508173ffffffffffffffffffffffffffffffffffffffff168173ffffffffffffffffffffffffffffffffffffffff167f8be0079c531659141344cd1fd0a4f28419497f9722a3daafe3b4186f6b6457e060405160405180910390a35050565b620001f86040518060400160405280600681526020017f416672696361000000000000000000000000000000000000000000000000000081525060405180606001604052806035815260200162006705603591396200043a60201b60201c565b620002586040518060400160405280600481526020017f41736961000000000000000000000000000000000000000000000000000000008152506040518060600160405280603581526020016200673a603591396200043a60201b60201c565b620002b86040518060400160405280600681526020017f4575726f70650000000000000000000000000000000000000000000000000000815250604051806060016040528060358152602001620066d0603591396200043a60201b60201c565b620003186040518060400160405280600d81526020017f4e6f72746820416d657269636100000000000000000000000000000000000000815250604051806060016040528060358152602001620067d9603591396200043a60201b60201c565b620003786040518060400160405280600d81526020017f536f75746820416d6572696361000000000000000000000000000000000000008152506040518060600160405280603581526020016200676f603591396200043a60201b60201c565b620003d86040518060400160405280600981526020017f4175737472616c69610000000000000000000000000000000000000000000000815250604051806060016040528060358152602001620067a4603591396200043a60201b60201c565b620004386040518060400160405280600a81526020017f416e7461726374696361000000000000000000000000000000000000000000008152506040518060600160405280603581526020016200669b603591396200043a60201b60201c565b565b600762000453600b6200066a60201b62001d9b1760201c565b1062000496576040517f08c379a00000000000000000000000000000000000000000000000000000000081526004016200048d9062001538565b60405180910390fd5b620004ad600b6200067860201b62001da91760201c565b6000620004c6600b6200066a60201b62001d9b1760201c565b9050620004da30826200068e60201b60201c565b6040518060a001604052808481526020018381526020013073ffffffffffffffffffffffffffffffffffffffff168152602001600067ffffffffffffffff8111156200052b576200052a620012b0565b5b6040519080825280602002602001820160405280156200055a5781602001602082028036833780820191505090505b5081526020016000815250600e600083815260200190815260200160002060008201518160000190805190602001906200059692919062001142565b506020820151816001019080519060200190620005b592919062001142565b5060408201518160020160006101000a81548173ffffffffffffffffffffffffffffffffffffffff021916908373ffffffffffffffffffffffffffffffffffffffff16021790555060608201518160030190805190602001906200061b929190620011d3565b5060808201518160040155905050807feb473ad5d3af7aaf9ec33ecb1da329bda7bb666471bcc190c076fbf0c16b4e4084846040516200065d929190620015a6565b60405180910390a2505050565b600081600001549050919050565b6001816000016000828254019250508190555050565b620006b0828260405180602001604052806000815250620006b460201b60201c565b5050565b620006c683836200072260201b60201c565b620006db60008484846200096860201b60201c565b6200071d576040517f08c379a0000000000000000000000000000000000000000000000000000000008152600401620007149062001657565b60405180910390fd5b505050565b600073ffffffffffffffffffffffffffffffffffffffff168273ffffffffffffffffffffffffffffffffffffffff160362000794576040517f08c379a00000000000000000000000000000000000000000000000000000000081526004016200078b90620016c9565b60405180910390fd5b620007a58162000b1160201b60201c565b15620007e8576040517f08c379a0000000000000000000000000000000000000000000000000000000008152600401620007df906200173b565b60405180910390fd5b620007fe60008383600162000b5a60201b60201c565b6200080f8162000b1160201b60201c565b1562000852576040517f08c379a000000000000000000000000000000000000000000000000000000000815260040162000849906200173b565b60405180910390fd5b6001600360008473ffffffffffffffffffffffffffffffffffffffff1673ffffffffffffffffffffffffffffffffffffffff16815260200190815260200160002060008282540192505081905550816002600083815260200190815260200160002060006101000a81548173ffffffffffffffffffffffffffffffffffffffff021916908373ffffffffffffffffffffffffffffffffffffffff160217905550808273ffffffffffffffffffffffffffffffffffffffff16600073ffffffffffffffffffffffffffffffffffffffff167fddf252ad1be2c89b69c2b068fc378daa952ba7f163c4a11628f55a4df523b3ef60405160405180910390a46200096460008383600162000cee60201b60201c565b5050565b6000620009968473ffffffffffffffffffffffffffffffffffffffff1662000cf460201b62001dbf1760201c565b1562000b04578373ffffffffffffffffffffffffffffffffffffffff1663150b7a02620009c8620000ca60201b60201c565b8786866040518563ffffffff1660e01b8152600401620009ec94939291906200181a565b6020604051808303816000875af192505050801562000a2b57506040513d601f19601f8201168201806040525081019062000a289190620018cb565b60015b62000ab3573d806000811462000a5e576040519150601f19603f3d011682016040523d82523d6000602084013e62000a63565b606091505b50600081510362000aab576040517f08c379a000000000000000000000000000000000000000000000000000000000815260040162000aa29062001657565b60405180910390fd5b805181602001fd5b63150b7a0260e01b7bffffffffffffffffffffffffffffffffffffffffffffffffffffffff1916817bffffffffffffffffffffffffffffffffffffffffffffffffffffffff19161491505062000b09565b600190505b949350505050565b60008073ffffffffffffffffffffffffffffffffffffffff1662000b3b8362000d1760201b60201c565b73ffffffffffffffffffffffffffffffffffffffff1614159050919050565b62000b738484848462000d5460201b62001de21760201c565b600181111562000bba576040517f08c379a000000000000000000000000000000000000000000000000000000000815260040162000bb19062001973565b60405180910390fd5b6000829050600073ffffffffffffffffffffffffffffffffffffffff168573ffffffffffffffffffffffffffffffffffffffff160362000c0b5762000c058162000d5a60201b60201c565b62000c53565b8373ffffffffffffffffffffffffffffffffffffffff168573ffffffffffffffffffffffffffffffffffffffff161462000c525762000c51858262000da360201b60201c565b5b5b600073ffffffffffffffffffffffffffffffffffffffff168473ffffffffffffffffffffffffffffffffffffffff160362000c9f5762000c998162000f2060201b60201c565b62000ce7565b8473ffffffffffffffffffffffffffffffffffffffff168473ffffffffffffffffffffffffffffffffffffffff161462000ce65762000ce5848262000ffc60201b60201c565b5b5b5050505050565b50505050565b6000808273ffffffffffffffffffffffffffffffffffffffff163b119050919050565b60006002600083815260200190815260200160002060009054906101000a900473ffffffffffffffffffffffffffffffffffffffff169050919050565b50505050565b6008805490506009600083815260200190815260200160002081905550600881908060018154018082558091505060019003906000526020600020016000909190919091505550565b6000600162000dbd846200108860201b620019771760201c565b62000dc99190620019c4565b905060006007600084815260200190815260200160002054905081811462000eaf576000600660008673ffffffffffffffffffffffffffffffffffffffff1673ffffffffffffffffffffffffffffffffffffffff168152602001908152602001600020600084815260200190815260200160002054905080600660008773ffffffffffffffffffffffffffffffffffffffff1673ffffffffffffffffffffffffffffffffffffffff168152602001908152602001600020600084815260200190815260200160002081905550816007600083815260200190815260200160002081905550505b6007600084815260200190815260200160002060009055600660008573ffffffffffffffffffffffffffffffffffffffff1673ffffffffffffffffffffffffffffffffffffffff16815260200190815260200160002060008381526020019081526020016000206000905550505050565b6000600160088054905062000f369190620019c4565b905060006009600084815260200190815260200160002054905060006008838154811062000f695762000f68620019ff565b5b90600052602060002001549050806008838154811062000f8e5762000f8d620019ff565b5b90600052602060002001819055508160096000838152602001908152602001600020819055506009600085815260200190815260200160002060009055600880548062000fe05762000fdf62001a2e565b5b6001900381819060005260206000200160009055905550505050565b600062001014836200108860201b620019771760201c565b905081600660008573ffffffffffffffffffffffffffffffffffffffff1673ffffffffffffffffffffffffffffffffffffffff168152602001908152602001600020600083815260200190815260200160002081905550806007600084815260200190815260200160002081905550505050565b60008073ffffffffffffffffffffffffffffffffffffffff168273ffffffffffffffffffffffffffffffffffffffff1603620010fb576040517f08c379a0000000000000000000000000000000000000000000000000000000008152600401620010f29062001ad3565b60405180910390fd5b600360008373ffffffffffffffffffffffffffffffffffffffff1673ffffffffffffffffffffffffffffffffffffffff168152602001908152602001600020549050919050565b828054620011509062001b24565b90600052602060002090601f016020900481019282620011745760008555620011c0565b82601f106200118f57805160ff1916838001178555620011c0565b82800160010185558215620011c0579182015b82811115620011bf578251825591602001919060010190620011a2565b5b509050620011cf919062001262565b5090565b8280548282559060005260206000209081019282156200124f579160200282015b828111156200124e5782518260006101000a81548173ffffffffffffffffffffffffffffffffffffffff021916908373ffffffffffffffffffffffffffffffffffffffff16021790555091602001919060010190620011f4565b5b5090506200125e919062001262565b5090565b5b808211156200127d57600081600090555060010162001263565b5090565b6000604051905090565b600080fd5b600080fd5b600080fd5b600080fd5b6000601f19601f8301169050919050565b7f4e487b7100000000000000000000000000000000000000000000000000000000600052604160045260246000fd5b620012ea826200129f565b810181811067ffffffffffffffff821117156200130c576200130b620012b0565b5b80604052505050565b60006200132162001281565b90506200132f8282620012df565b919050565b600067ffffffffffffffff821115620013525762001351620012b0565b5b6200135d826200129f565b9050602081019050919050565b60005b838110156200138a5780820151818401526020810190506200136d565b838111156200139a576000848401525b50505050565b6000620013b7620013b18462001334565b62001315565b905082815260208101848484011115620013d657620013d56200129a565b5b620013e38482856200136a565b509392505050565b600082601f83011262001403576200140262001295565b5b815162001415848260208601620013a0565b91505092915050565b6000806000606084860312156200143a57620014396200128b565b5b600084015167ffffffffffffffff8111156200145b576200145a62001290565b5b6200146986828701620013eb565b935050602084015167ffffffffffffffff8111156200148d576200148c62001290565b5b6200149b86828701620013eb565b925050604084015167ffffffffffffffff811115620014bf57620014be62001290565b5b620014cd86828701620013eb565b9150509250925092565b600082825260208201905092915050565b7f4d617820737570706c7920726561636865640000000000000000000000000000600082015250565b600062001520601283620014d7565b91506200152d82620014e8565b602082019050919050565b60006020820190508181036000830152620015538162001511565b9050919050565b600081519050919050565b600062001572826200155a565b6200157e8185620014d7565b9350620015908185602086016200136a565b6200159b816200129f565b840191505092915050565b60006040820190508181036000830152620015c2818562001565565b90508181036020830152620015d8818462001565565b90509392505050565b7f4552433732313a207472616e7366657220746f206e6f6e20455243373231526560008201527f63656976657220696d706c656d656e7465720000000000000000000000000000602082015250565b60006200163f603283620014d7565b91506200164c82620015e1565b604082019050919050565b60006020820190508181036000830152620016728162001630565b9050919050565b7f4552433732313a206d696e7420746f20746865207a65726f2061646472657373600082015250565b6000620016b1602083620014d7565b9150620016be8262001679565b602082019050919050565b60006020820190508181036000830152620016e481620016a2565b9050919050565b7f4552433732313a20746f6b656e20616c7265616479206d696e74656400000000600082015250565b600062001723601c83620014d7565b91506200173082620016eb565b602082019050919050565b60006020820190508181036000830152620017568162001714565b9050919050565b600073ffffffffffffffffffffffffffffffffffffffff82169050919050565b60006200178a826200175d565b9050919050565b6200179c816200177d565b82525050565b6000819050919050565b620017b781620017a2565b82525050565b600081519050919050565b600082825260208201905092915050565b6000620017e682620017bd565b620017f28185620017c8565b9350620018048185602086016200136a565b6200180f816200129f565b840191505092915050565b600060808201905062001831600083018762001791565b62001840602083018662001791565b6200184f6040830185620017ac565b8181036060830152620018638184620017d9565b905095945050505050565b60007fffffffff0000000000000000000000000000000000000000000000000000000082169050919050565b620018a5816200186e565b8114620018b157600080fd5b50565b600081519050620018c5816200189a565b92915050565b600060208284031215620018e457620018e36200128b565b5b6000620018f484828501620018b4565b91505092915050565b7f455243373231456e756d657261626c653a20636f6e736563757469766520747260008201527f616e7366657273206e6f7420737570706f727465640000000000000000000000602082015250565b60006200195b603583620014d7565b91506200196882620018fd565b604082019050919050565b600060208201905081810360008301526200198e816200194c565b9050919050565b7f4e487b7100000000000000000000000000000000000000000000000000000000600052601160045260246000fd5b6000620019d182620017a2565b9150620019de83620017a2565b925082821015620019f457620019f362001995565b5b828203905092915050565b7f4e487b7100000000000000000000000000000000000000000000000000000000600052603260045260246000fd5b7f4e487b7100000000000000000000000000000000000000000000000000000000600052603160045260246000fd5b7f4552433732313a2061646472657373207a65726f206973206e6f74206120766160008201527f6c6964206f776e65720000000000000000000000000000000000000000000000602082015250565b600062001abb602983620014d7565b915062001ac88262001a5d565b604082019050919050565b6000602082019050818103600083015262001aee8162001aac565b9050919050565b7f4e487b7100000000000000000000000000000000000000000000000000000000600052602260045260246000fd5b6000600282049050600182168062001b3d57607f821691505b60208210810362001b535762001b5262001af5565b5b50919050565b614b328062001b696000396000f3fe6080604052600436106101ee5760003560e01c806342842e0e1161010d57806395d89b41116100a0578063d547cfb71161006f578063d547cfb71461070c578063d7c94efd14610737578063e6ec64ec14610762578063e985e9c51461078b578063f2fde38b146107c8576101ee565b806395d89b4114610652578063a22cb4651461067d578063b88d4fde146106a6578063c87b56dd146106cf576101ee565b80636352211e116100dc5780636352211e1461059657806370a08231146105d3578063715018a6146106105780638da5cb5b14610627576101ee565b806342842e0e146104c757806343c9d4dc146104f05780634f6ccce71461053057806355f804b31461056d576101ee565b80632b382fac11610185578063328a6ac411610154578063328a6ac41461042c57806332cb6b0c146104695780633b5165e8146104945780633ccfd60b146104b0576101ee565b80632b382fac146103815780632ed4af35146103aa5780632f745c59146103c6578063325ab43e14610403576101ee565b806308c16ad2116101c157806308c16ad2146102d5578063095ea7b31461030457806318160ddd1461032d57806323b872dd14610358576101ee565b806301ffc9a7146101f35780630452338e1461023057806306fdde031461026d578063081812fc14610298575b600080fd5b3480156101ff57600080fd5b5061021a600480360381019061021591906131ff565b6107f1565b6040516102279190613247565b60405180910390f35b34801561023c57600080fd5b5061025760048036038101906102529190613298565b61086b565b6040516102649190613306565b60405180910390f35b34801561027957600080fd5b5061028261087d565b60405161028f91906133ba565b60405180910390f35b3480156102a457600080fd5b506102bf60048036038101906102ba9190613298565b61090f565b6040516102cc9190613306565b60405180910390f35b3480156102e157600080fd5b506102ea610955565b6040516102fb959493929190613664565b60405180910390f35b34801561031057600080fd5b5061032b60048036038101906103269190613706565b610df3565b005b34801561033957600080fd5b50610342610f0a565b60405161034f9190613755565b60405180910390f35b34801561036457600080fd5b5061037f600480360381019061037a9190613770565b610f17565b005b34801561038d57600080fd5b506103a860048036038101906103a391906137c3565b610f77565b005b6103c460048036038101906103bf9190613298565b6110b4565b005b3480156103d257600080fd5b506103ed60048036038101906103e89190613706565b6112e9565b6040516103fa9190613755565b60405180910390f35b34801561040f57600080fd5b5061042a60048036038101906104259190613803565b61138e565b005b34801561043857600080fd5b50610453600480360381019061044e9190613298565b611423565b6040516104609190613843565b60405180910390f35b34801561047557600080fd5b5061047e6114c7565b60405161048b9190613755565b60405180910390f35b6104ae60048036038101906104a991906137c3565b6114cc565b005b3480156104bc57600080fd5b506104c56116a4565b005b3480156104d357600080fd5b506104ee60048036038101906104e99190613770565b6116de565b005b3480156104fc57600080fd5b5061051760048036038101906105129190613298565b6116fe565b6040516105279493929190613865565b60405180910390f35b34801561053c57600080fd5b5061055760048036038101906105529190613298565b61185e565b6040516105649190613755565b60405180910390f35b34801561057957600080fd5b50610594600480360381019061058f91906139ed565b6118cf565b005b3480156105a257600080fd5b506105bd60048036038101906105b89190613298565b6118f1565b6040516105ca9190613306565b60405180910390f35b3480156105df57600080fd5b506105fa60048036038101906105f59190613a36565b611977565b6040516106079190613755565b60405180910390f35b34801561061c57600080fd5b50610625611a2e565b005b34801561063357600080fd5b5061063c611a42565b6040516106499190613306565b60405180910390f35b34801561065e57600080fd5b50610667611a6c565b60405161067491906133ba565b60405180910390f35b34801561068957600080fd5b506106a4600480360381019061069f9190613a8f565b611afe565b005b3480156106b257600080fd5b506106cd60048036038101906106c89190613b70565b611b14565b005b3480156106db57600080fd5b506106f660048036038101906106f19190613298565b611b76565b60405161070391906133ba565b60405180910390f35b34801561071857600080fd5b50610721611bde565b60405161072e91906133ba565b60405180910390f35b34801561074357600080fd5b5061074c611c6c565b6040516107599190613755565b60405180910390f35b34801561076e57600080fd5b5061078960048036038101906107849190613298565b611c72565b005b34801561079757600080fd5b506107b260048036038101906107ad9190613bf3565b611c84565b6040516107bf9190613247565b60405180910390f35b3480156107d457600080fd5b506107ef60048036038101906107ea9190613a36565b611d18565b005b60007f780e9d63000000000000000000000000000000000000000000000000000000007bffffffffffffffffffffffffffffffffffffffffffffffffffffffff1916827bffffffffffffffffffffffffffffffffffffffffffffffffffffffff19161480610864575061086382611de8565b5b9050919050565b6000610876826118f1565b9050919050565b60606000805461088c90613c62565b80601f01602080910402602001604051908101604052809291908181526020018280546108b890613c62565b80156109055780601f106108da57610100808354040283529160200191610905565b820191906000526020600020905b8154815290600101906020018083116108e857829003601f168201915b5050505050905090565b600061091a82611eca565b6004600083815260200190815260200160002060009054906101000a900473ffffffffffffffffffffffffffffffffffffffff169050919050565b60608060608060606000610967610f0a565b905060008167ffffffffffffffff811115610985576109846138c2565b5b6040519080825280602002602001820160405280156109b35781602001602082028036833780820191505090505b50905060008267ffffffffffffffff8111156109d2576109d16138c2565b5b604051908082528060200260200182016040528015610a0557816020015b60608152602001906001900390816109f05790505b50905060008367ffffffffffffffff811115610a2457610a236138c2565b5b604051908082528060200260200182016040528015610a5757816020015b6060815260200190600190039081610a425790505b50905060008467ffffffffffffffff811115610a7657610a756138c2565b5b604051908082528060200260200182016040528015610aa45781602001602082028036833780820191505090505b50905060008567ffffffffffffffff811115610ac357610ac26138c2565b5b604051908082528060200260200182016040528015610af15781602001602082028036833780820191505090505b50905060005b86811015610dd657610b088161185e565b868281518110610b1b57610b1a613c93565b5b602002602001018181525050600e6000878381518110610b3e57610b3d613c93565b5b602002602001015181526020019081526020016000206000018054610b6290613c62565b80601f0160208091040260200160405190810160405280929190818152602001828054610b8e90613c62565b8015610bdb5780601f10610bb057610100808354040283529160200191610bdb565b820191906000526020600020905b815481529060010190602001808311610bbe57829003601f168201915b5050505050858281518110610bf357610bf2613c93565b5b6020026020010181905250600e6000878381518110610c1557610c14613c93565b5b602002602001015181526020019081526020016000206001018054610c3990613c62565b80601f0160208091040260200160405190810160405280929190818152602001828054610c6590613c62565b8015610cb25780601f10610c8757610100808354040283529160200191610cb2565b820191906000526020600020905b815481529060010190602001808311610c9557829003601f168201915b5050505050848281518110610cca57610cc9613c93565b5b6020026020010181905250600e6000878381518110610cec57610ceb613c93565b5b6020026020010151815260200190815260200160002060020160009054906101000a900473ffffffffffffffffffffffffffffffffffffffff16838281518110610d3957610d38613c93565b5b602002602001019073ffffffffffffffffffffffffffffffffffffffff16908173ffffffffffffffffffffffffffffffffffffffff1681525050600e6000878381518110610d8a57610d89613c93565b5b6020026020010151815260200190815260200160002060040154828281518110610db757610db6613c93565b5b6020026020010181815250508080610dce90613cf1565b915050610af7565b5084848484849a509a509a509a509a505050505050509091929394565b6000610dfe826118f1565b90508073ffffffffffffffffffffffffffffffffffffffff168373ffffffffffffffffffffffffffffffffffffffff1603610e6e576040517f08c379a0000000000000000000000000000000000000000000000000000000008152600401610e6590613dab565b60405180910390fd5b8073ffffffffffffffffffffffffffffffffffffffff16610e8d611f15565b73ffffffffffffffffffffffffffffffffffffffff161480610ebc5750610ebb81610eb6611f15565b611c84565b5b610efb576040517f08c379a0000000000000000000000000000000000000000000000000000000008152600401610ef290613e3d565b60405180910390fd5b610f058383611f1d565b505050565b6000600880549050905090565b610f28610f22611f15565b82611fd6565b610f67576040517f08c379a0000000000000000000000000000000000000000000000000000000008152600401610f5e90613ecf565b60405180910390fd5b610f7283838361206b565b505050565b610f7f612364565b3073ffffffffffffffffffffffffffffffffffffffff16610f9f836118f1565b73ffffffffffffffffffffffffffffffffffffffff1614610ff5576040517f08c379a0000000000000000000000000000000000000000000000000000000008152600401610fec90613f61565b60405180910390fd5b61100030828461206b565b80600e600084815260200190815260200160002060020160006101000a81548173ffffffffffffffffffffffffffffffffffffffff021916908373ffffffffffffffffffffffffffffffffffffffff160217905550818173ffffffffffffffffffffffffffffffffffffffff163073ffffffffffffffffffffffffffffffffffffffff167f7a4ce38372220b7ac604ef415628e3189ca44d802f20bf7e73a228c874c2ddcf60405160405180910390a45050565b600073ffffffffffffffffffffffffffffffffffffffff166110d5826118f1565b73ffffffffffffffffffffffffffffffffffffffff160361112b576040517f08c379a000000000000000000000000000000000000000000000000000000000815260040161112290613fcd565b60405180910390fd5b3373ffffffffffffffffffffffffffffffffffffffff1661114b826118f1565b73ffffffffffffffffffffffffffffffffffffffff16036111a1576040517f08c379a000000000000000000000000000000000000000000000000000000000815260040161119890614039565b60405180910390fd5b600e6000828152602001908152602001600020600401543410156111fa576040517f08c379a00000000000000000000000000000000000000000000000000000000081526004016111f1906140cb565b60405180910390fd5b61122b34611207836118f1565b73ffffffffffffffffffffffffffffffffffffffff166123e290919063ffffffff16565b600e6000828152602001908152602001600020600301339080600181540180825580915050600190039060005260206000200160009091909190916101000a81548173ffffffffffffffffffffffffffffffffffffffff021916908373ffffffffffffffffffffffffffffffffffffffff1602179055503373ffffffffffffffffffffffffffffffffffffffff16817f7b485c36dcf709483c429df2e8be305fb59a24819269b17bb215fdb844f540af60405160405180910390a350565b60006112f483611977565b8210611335576040517f08c379a000000000000000000000000000000000000000000000000000000000815260040161132c9061415d565b60405180910390fd5b600660008473ffffffffffffffffffffffffffffffffffffffff1673ffffffffffffffffffffffffffffffffffffffff168152602001908152602001600020600083815260200190815260200160002054905092915050565b3373ffffffffffffffffffffffffffffffffffffffff166113ae836118f1565b73ffffffffffffffffffffffffffffffffffffffff1614611404576040517f08c379a00000000000000000000000000000000000000000000000000000000081526004016113fb906141ef565b60405180910390fd5b80600e6000848152602001908152602001600020600401819055505050565b6060600e60008381526020019081526020016000206003018054806020026020016040519081016040528092919081815260200182805480156114bb57602002820191906000526020600020905b8160009054906101000a900473ffffffffffffffffffffffffffffffffffffffff1673ffffffffffffffffffffffffffffffffffffffff1681526020019060010190808311611471575b50505050509050919050565b600781565b3373ffffffffffffffffffffffffffffffffffffffff166114ec836118f1565b73ffffffffffffffffffffffffffffffffffffffff1614611542576040517f08c379a0000000000000000000000000000000000000000000000000000000008152600401611539906141ef565b60405180910390fd5b600c54341015611587576040517f08c379a000000000000000000000000000000000000000000000000000000000815260040161157e90614281565b60405180910390fd5b61159a611593836118f1565b828461206b565b6115a2611a42565b73ffffffffffffffffffffffffffffffffffffffff163373ffffffffffffffffffffffffffffffffffffffff16146115e8576115e76115df611a42565b600c546123e2565b5b80600e600084815260200190815260200160002060020160006101000a81548173ffffffffffffffffffffffffffffffffffffffff021916908373ffffffffffffffffffffffffffffffffffffffff160217905550818173ffffffffffffffffffffffffffffffffffffffff1661165e846118f1565b73ffffffffffffffffffffffffffffffffffffffff167f7a4ce38372220b7ac604ef415628e3189ca44d802f20bf7e73a228c874c2ddcf60405160405180910390a45050565b6116ac612364565b6116dc476116b8611a42565b73ffffffffffffffffffffffffffffffffffffffff166123e290919063ffffffff16565b565b6116f983838360405180602001604052806000815250611b14565b505050565b600e60205280600052604060002060009150905080600001805461172190613c62565b80601f016020809104026020016040519081016040528092919081815260200182805461174d90613c62565b801561179a5780601f1061176f5761010080835404028352916020019161179a565b820191906000526020600020905b81548152906001019060200180831161177d57829003601f168201915b5050505050908060010180546117af90613c62565b80601f01602080910402602001604051908101604052809291908181526020018280546117db90613c62565b80156118285780601f106117fd57610100808354040283529160200191611828565b820191906000526020600020905b81548152906001019060200180831161180b57829003601f168201915b5050505050908060020160009054906101000a900473ffffffffffffffffffffffffffffffffffffffff16908060040154905084565b6000611868610f0a565b82106118a9576040517f08c379a00000000000000000000000000000000000000000000000000000000081526004016118a090614313565b60405180910390fd5b600882815481106118bd576118bc613c93565b5b90600052602060002001549050919050565b6118d7612364565b80600d90805190602001906118ed9291906130f0565b5050565b6000806118fd836124d6565b9050600073ffffffffffffffffffffffffffffffffffffffff168173ffffffffffffffffffffffffffffffffffffffff160361196e576040517f08c379a00000000000000000000000000000000000000000000000000000000081526004016119659061437f565b60405180910390fd5b80915050919050565b60008073ffffffffffffffffffffffffffffffffffffffff168273ffffffffffffffffffffffffffffffffffffffff16036119e7576040517f08c379a00000000000000000000000000000000000000000000000000000000081526004016119de90614411565b60405180910390fd5b600360008373ffffffffffffffffffffffffffffffffffffffff1673ffffffffffffffffffffffffffffffffffffffff168152602001908152602001600020549050919050565b611a36612364565b611a406000612513565b565b6000600a60009054906101000a900473ffffffffffffffffffffffffffffffffffffffff16905090565b606060018054611a7b90613c62565b80601f0160208091040260200160405190810160405280929190818152602001828054611aa790613c62565b8015611af45780601f10611ac957610100808354040283529160200191611af4565b820191906000526020600020905b815481529060010190602001808311611ad757829003601f168201915b5050505050905090565b611b10611b09611f15565b83836125d9565b5050565b611b25611b1f611f15565b83611fd6565b611b64576040517f08c379a0000000000000000000000000000000000000000000000000000000008152600401611b5b90613ecf565b60405180910390fd5b611b7084848484612745565b50505050565b6060611b8182611eca565b6000611b8b6127a1565b90506000815111611bab5760405180602001604052806000815250611bd6565b80611bb584612833565b604051602001611bc692919061446d565b6040516020818303038152906040525b915050919050565b600d8054611beb90613c62565b80601f0160208091040260200160405190810160405280929190818152602001828054611c1790613c62565b8015611c645780601f10611c3957610100808354040283529160200191611c64565b820191906000526020600020905b815481529060010190602001808311611c4757829003601f168201915b505050505081565b600c5481565b611c7a612364565b80600c8190555050565b6000600560008473ffffffffffffffffffffffffffffffffffffffff1673ffffffffffffffffffffffffffffffffffffffff16815260200190815260200160002060008373ffffffffffffffffffffffffffffffffffffffff1673ffffffffffffffffffffffffffffffffffffffff16815260200190815260200160002060009054906101000a900460ff16905092915050565b611d20612364565b600073ffffffffffffffffffffffffffffffffffffffff168173ffffffffffffffffffffffffffffffffffffffff1603611d8f576040517f08c379a0000000000000000000000000000000000000000000000000000000008152600401611d8690614503565b60405180910390fd5b611d9881612513565b50565b600081600001549050919050565b6001816000016000828254019250508190555050565b6000808273ffffffffffffffffffffffffffffffffffffffff163b119050919050565b50505050565b60007f80ac58cd000000000000000000000000000000000000000000000000000000007bffffffffffffffffffffffffffffffffffffffffffffffffffffffff1916827bffffffffffffffffffffffffffffffffffffffffffffffffffffffff19161480611eb357507f5b5e139f000000000000000000000000000000000000000000000000000000007bffffffffffffffffffffffffffffffffffffffffffffffffffffffff1916827bffffffffffffffffffffffffffffffffffffffffffffffffffffffff1916145b80611ec35750611ec282612901565b5b9050919050565b611ed38161296b565b611f12576040517f08c379a0000000000000000000000000000000000000000000000000000000008152600401611f099061437f565b60405180910390fd5b50565b600033905090565b816004600083815260200190815260200160002060006101000a81548173ffffffffffffffffffffffffffffffffffffffff021916908373ffffffffffffffffffffffffffffffffffffffff160217905550808273ffffffffffffffffffffffffffffffffffffffff16611f90836118f1565b73ffffffffffffffffffffffffffffffffffffffff167f8c5be1e5ebec7d5bd14f71427d1e84f3dd0314c0f7b2291e5b200ac8c7c3b92560405160405180910390a45050565b600080611fe2836118f1565b90508073ffffffffffffffffffffffffffffffffffffffff168473ffffffffffffffffffffffffffffffffffffffff16148061202457506120238185611c84565b5b8061206257508373ffffffffffffffffffffffffffffffffffffffff1661204a8461090f565b73ffffffffffffffffffffffffffffffffffffffff16145b91505092915050565b8273ffffffffffffffffffffffffffffffffffffffff1661208b826118f1565b73ffffffffffffffffffffffffffffffffffffffff16146120e1576040517f08c379a00000000000000000000000000000000000000000000000000000000081526004016120d890614595565b60405180910390fd5b600073ffffffffffffffffffffffffffffffffffffffff168273ffffffffffffffffffffffffffffffffffffffff1603612150576040517f08c379a000000000000000000000000000000000000000000000000000000000815260040161214790614627565b60405180910390fd5b61215d83838360016129ac565b8273ffffffffffffffffffffffffffffffffffffffff1661217d826118f1565b73ffffffffffffffffffffffffffffffffffffffff16146121d3576040517f08c379a00000000000000000000000000000000000000000000000000000000081526004016121ca90614595565b60405180910390fd5b6004600082815260200190815260200160002060006101000a81549073ffffffffffffffffffffffffffffffffffffffff02191690556001600360008573ffffffffffffffffffffffffffffffffffffffff1673ffffffffffffffffffffffffffffffffffffffff168152602001908152602001600020600082825403925050819055506001600360008473ffffffffffffffffffffffffffffffffffffffff1673ffffffffffffffffffffffffffffffffffffffff16815260200190815260200160002060008282540192505081905550816002600083815260200190815260200160002060006101000a81548173ffffffffffffffffffffffffffffffffffffffff021916908373ffffffffffffffffffffffffffffffffffffffff160217905550808273ffffffffffffffffffffffffffffffffffffffff168473ffffffffffffffffffffffffffffffffffffffff167fddf252ad1be2c89b69c2b068fc378daa952ba7f163c4a11628f55a4df523b3ef60405160405180910390a461235f8383836001612b0a565b505050565b61236c611f15565b73ffffffffffffffffffffffffffffffffffffffff1661238a611a42565b73ffffffffffffffffffffffffffffffffffffffff16146123e0576040517f08c379a00000000000000000000000000000000000000000000000000000000081526004016123d790614693565b60405180910390fd5b565b80471015612425576040517f08c379a000000000000000000000000000000000000000000000000000000000815260040161241c906146ff565b60405180910390fd5b60008273ffffffffffffffffffffffffffffffffffffffff168260405161244b90614750565b60006040518083038185875af1925050503d8060008114612488576040519150601f19603f3d011682016040523d82523d6000602084013e61248d565b606091505b50509050806124d1576040517f08c379a00000000000000000000000000000000000000000000000000000000081526004016124c8906147d7565b60405180910390fd5b505050565b60006002600083815260200190815260200160002060009054906101000a900473ffffffffffffffffffffffffffffffffffffffff169050919050565b6000600a60009054906101000a900473ffffffffffffffffffffffffffffffffffffffff16905081600a60006101000a81548173ffffffffffffffffffffffffffffffffffffffff021916908373ffffffffffffffffffffffffffffffffffffffff1602179055508173ffffffffffffffffffffffffffffffffffffffff168173ffffffffffffffffffffffffffffffffffffffff167f8be0079c531659141344cd1fd0a4f28419497f9722a3daafe3b4186f6b6457e060405160405180910390a35050565b8173ffffffffffffffffffffffffffffffffffffffff168373ffffffffffffffffffffffffffffffffffffffff1603612647576040517f08c379a000000000000000000000000000000000000000000000000000000000815260040161263e90614843565b60405180910390fd5b80600560008573ffffffffffffffffffffffffffffffffffffffff1673ffffffffffffffffffffffffffffffffffffffff16815260200190815260200160002060008473ffffffffffffffffffffffffffffffffffffffff1673ffffffffffffffffffffffffffffffffffffffff16815260200190815260200160002060006101000a81548160ff0219169083151502179055508173ffffffffffffffffffffffffffffffffffffffff168373ffffffffffffffffffffffffffffffffffffffff167f17307eab39ab6107e8899845ad3d59bd9653f200f220920489ca2b5937696c31836040516127389190613247565b60405180910390a3505050565b61275084848461206b565b61275c84848484612b10565b61279b576040517f08c379a0000000000000000000000000000000000000000000000000000000008152600401612792906148d5565b60405180910390fd5b50505050565b6060600d80546127b090613c62565b80601f01602080910402602001604051908101604052809291908181526020018280546127dc90613c62565b80156128295780601f106127fe57610100808354040283529160200191612829565b820191906000526020600020905b81548152906001019060200180831161280c57829003601f168201915b5050505050905090565b60606000600161284284612c97565b01905060008167ffffffffffffffff811115612861576128606138c2565b5b6040519080825280601f01601f1916602001820160405280156128935781602001600182028036833780820191505090505b509050600082602001820190505b6001156128f6578080600190039150507f3031323334353637383961626364656600000000000000000000000000000000600a86061a8153600a85816128ea576128e96148f5565b5b049450600085036128a1575b819350505050919050565b60007f01ffc9a7000000000000000000000000000000000000000000000000000000007bffffffffffffffffffffffffffffffffffffffffffffffffffffffff1916827bffffffffffffffffffffffffffffffffffffffffffffffffffffffff1916149050919050565b60008073ffffffffffffffffffffffffffffffffffffffff1661298d836124d6565b73ffffffffffffffffffffffffffffffffffffffff1614159050919050565b6129b884848484611de2565b60018111156129fc576040517f08c379a00000000000000000000000000000000000000000000000000000000081526004016129f390614996565b60405180910390fd5b6000829050600073ffffffffffffffffffffffffffffffffffffffff168573ffffffffffffffffffffffffffffffffffffffff1603612a4357612a3e81612dea565b612a82565b8373ffffffffffffffffffffffffffffffffffffffff168573ffffffffffffffffffffffffffffffffffffffff1614612a8157612a808582612e33565b5b5b600073ffffffffffffffffffffffffffffffffffffffff168473ffffffffffffffffffffffffffffffffffffffff1603612ac457612abf81612fa0565b612b03565b8473ffffffffffffffffffffffffffffffffffffffff168473ffffffffffffffffffffffffffffffffffffffff1614612b0257612b018482613071565b5b5b5050505050565b50505050565b6000612b318473ffffffffffffffffffffffffffffffffffffffff16611dbf565b15612c8a578373ffffffffffffffffffffffffffffffffffffffff1663150b7a02612b5a611f15565b8786866040518563ffffffff1660e01b8152600401612b7c9493929190614a0b565b6020604051808303816000875af1925050508015612bb857506040513d601f19601f82011682018060405250810190612bb59190614a6c565b60015b612c3a573d8060008114612be8576040519150601f19603f3d011682016040523d82523d6000602084013e612bed565b606091505b506000815103612c32576040517f08c379a0000000000000000000000000000000000000000000000000000000008152600401612c29906148d5565b60405180910390fd5b805181602001fd5b63150b7a0260e01b7bffffffffffffffffffffffffffffffffffffffffffffffffffffffff1916817bffffffffffffffffffffffffffffffffffffffffffffffffffffffff191614915050612c8f565b600190505b949350505050565b600080600090507a184f03e93ff9f4daa797ed6e38ed64bf6a1f0100000000000000008310612cf5577a184f03e93ff9f4daa797ed6e38ed64bf6a1f0100000000000000008381612ceb57612cea6148f5565b5b0492506040810190505b6d04ee2d6d415b85acef81000000008310612d32576d04ee2d6d415b85acef81000000008381612d2857612d276148f5565b5b0492506020810190505b662386f26fc100008310612d6157662386f26fc100008381612d5757612d566148f5565b5b0492506010810190505b6305f5e1008310612d8a576305f5e1008381612d8057612d7f6148f5565b5b0492506008810190505b6127108310612daf576127108381612da557612da46148f5565b5b0492506004810190505b60648310612dd25760648381612dc857612dc76148f5565b5b0492506002810190505b600a8310612de1576001810190505b80915050919050565b6008805490506009600083815260200190815260200160002081905550600881908060018154018082558091505060019003906000526020600020016000909190919091505550565b60006001612e4084611977565b612e4a9190614a99565b9050600060076000848152602001908152602001600020549050818114612f2f576000600660008673ffffffffffffffffffffffffffffffffffffffff1673ffffffffffffffffffffffffffffffffffffffff168152602001908152602001600020600084815260200190815260200160002054905080600660008773ffffffffffffffffffffffffffffffffffffffff1673ffffffffffffffffffffffffffffffffffffffff168152602001908152602001600020600084815260200190815260200160002081905550816007600083815260200190815260200160002081905550505b6007600084815260200190815260200160002060009055600660008573ffffffffffffffffffffffffffffffffffffffff1673ffffffffffffffffffffffffffffffffffffffff16815260200190815260200160002060008381526020019081526020016000206000905550505050565b60006001600880549050612fb49190614a99565b9050600060096000848152602001908152602001600020549050600060088381548110612fe457612fe3613c93565b5b90600052602060002001549050806008838154811061300657613005613c93565b5b90600052602060002001819055508160096000838152602001908152602001600020819055506009600085815260200190815260200160002060009055600880548061305557613054614acd565b5b6001900381819060005260206000200160009055905550505050565b600061307c83611977565b905081600660008573ffffffffffffffffffffffffffffffffffffffff1673ffffffffffffffffffffffffffffffffffffffff168152602001908152602001600020600083815260200190815260200160002081905550806007600084815260200190815260200160002081905550505050565b8280546130fc90613c62565b90600052602060002090601f01602090048101928261311e5760008555613165565b82601f1061313757805160ff1916838001178555613165565b82800160010185558215613165579182015b82811115613164578251825591602001919060010190613149565b5b5090506131729190613176565b5090565b5b8082111561318f576000816000905550600101613177565b5090565b6000604051905090565b600080fd5b600080fd5b60007fffffffff0000000000000000000000000000000000000000000000000000000082169050919050565b6131dc816131a7565b81146131e757600080fd5b50565b6000813590506131f9816131d3565b92915050565b6000602082840312156132155761321461319d565b5b6000613223848285016131ea565b91505092915050565b60008115159050919050565b6132418161322c565b82525050565b600060208201905061325c6000830184613238565b92915050565b6000819050919050565b61327581613262565b811461328057600080fd5b50565b6000813590506132928161326c565b92915050565b6000602082840312156132ae576132ad61319d565b5b60006132bc84828501613283565b91505092915050565b600073ffffffffffffffffffffffffffffffffffffffff82169050919050565b60006132f0826132c5565b9050919050565b613300816132e5565b82525050565b600060208201905061331b60008301846132f7565b92915050565b600081519050919050565b600082825260208201905092915050565b60005b8381101561335b578082015181840152602081019050613340565b8381111561336a576000848401525b50505050565b6000601f19601f8301169050919050565b600061338c82613321565b613396818561332c565b93506133a681856020860161333d565b6133af81613370565b840191505092915050565b600060208201905081810360008301526133d48184613381565b905092915050565b600081519050919050565b600082825260208201905092915050565b6000819050602082019050919050565b61341181613262565b82525050565b60006134238383613408565b60208301905092915050565b6000602082019050919050565b6000613447826133dc565b61345181856133e7565b935061345c836133f8565b8060005b8381101561348d5781516134748882613417565b975061347f8361342f565b925050600181019050613460565b5085935050505092915050565b600081519050919050565b600082825260208201905092915050565b6000819050602082019050919050565b600082825260208201905092915050565b60006134e282613321565b6134ec81856134c6565b93506134fc81856020860161333d565b61350581613370565b840191505092915050565b600061351c83836134d7565b905092915050565b6000602082019050919050565b600061353c8261349a565b61354681856134a5565b935083602082028501613558856134b6565b8060005b8581101561359457848403895281516135758582613510565b945061358083613524565b925060208a0199505060018101905061355c565b50829750879550505050505092915050565b600081519050919050565b600082825260208201905092915050565b6000819050602082019050919050565b6135db816132e5565b82525050565b60006135ed83836135d2565b60208301905092915050565b6000602082019050919050565b6000613611826135a6565b61361b81856135b1565b9350613626836135c2565b8060005b8381101561365757815161363e88826135e1565b9750613649836135f9565b92505060018101905061362a565b5085935050505092915050565b600060a082019050818103600083015261367e818861343c565b905081810360208301526136928187613531565b905081810360408301526136a68186613531565b905081810360608301526136ba8185613606565b905081810360808301526136ce818461343c565b90509695505050505050565b6136e3816132e5565b81146136ee57600080fd5b50565b600081359050613700816136da565b92915050565b6000806040838503121561371d5761371c61319d565b5b600061372b858286016136f1565b925050602061373c85828601613283565b9150509250929050565b61374f81613262565b82525050565b600060208201905061376a6000830184613746565b92915050565b6000806000606084860312156137895761378861319d565b5b6000613797868287016136f1565b93505060206137a8868287016136f1565b92505060406137b986828701613283565b9150509250925092565b600080604083850312156137da576137d961319d565b5b60006137e885828601613283565b92505060206137f9858286016136f1565b9150509250929050565b6000806040838503121561381a5761381961319d565b5b600061382885828601613283565b925050602061383985828601613283565b9150509250929050565b6000602082019050818103600083015261385d8184613606565b905092915050565b6000608082019050818103600083015261387f8187613381565b905081810360208301526138938186613381565b90506138a260408301856132f7565b6138af6060830184613746565b95945050505050565b600080fd5b600080fd5b7f4e487b7100000000000000000000000000000000000000000000000000000000600052604160045260246000fd5b6138fa82613370565b810181811067ffffffffffffffff82111715613919576139186138c2565b5b80604052505050565b600061392c613193565b905061393882826138f1565b919050565b600067ffffffffffffffff821115613958576139576138c2565b5b61396182613370565b9050602081019050919050565b82818337600083830152505050565b600061399061398b8461393d565b613922565b9050828152602081018484840111156139ac576139ab6138bd565b5b6139b784828561396e565b509392505050565b600082601f8301126139d4576139d36138b8565b5b81356139e484826020860161397d565b91505092915050565b600060208284031215613a0357613a0261319d565b5b600082013567ffffffffffffffff811115613a2157613a206131a2565b5b613a2d848285016139bf565b91505092915050565b600060208284031215613a4c57613a4b61319d565b5b6000613a5a848285016136f1565b91505092915050565b613a6c8161322c565b8114613a7757600080fd5b50565b600081359050613a8981613a63565b92915050565b60008060408385031215613aa657613aa561319d565b5b6000613ab4858286016136f1565b9250506020613ac585828601613a7a565b9150509250929050565b600067ffffffffffffffff821115613aea57613ae96138c2565b5b613af382613370565b9050602081019050919050565b6000613b13613b0e84613acf565b613922565b905082815260208101848484011115613b2f57613b2e6138bd565b5b613b3a84828561396e565b509392505050565b600082601f830112613b5757613b566138b8565b5b8135613b67848260208601613b00565b91505092915050565b60008060008060808587031215613b8a57613b8961319d565b5b6000613b98878288016136f1565b9450506020613ba9878288016136f1565b9350506040613bba87828801613283565b925050606085013567ffffffffffffffff811115613bdb57613bda6131a2565b5b613be787828801613b42565b91505092959194509250565b60008060408385031215613c0a57613c0961319d565b5b6000613c18858286016136f1565b9250506020613c29858286016136f1565b9150509250929050565b7f4e487b7100000000000000000000000000000000000000000000000000000000600052602260045260246000fd5b60006002820490506001821680613c7a57607f821691505b602082108103613c8d57613c8c613c33565b5b50919050565b7f4e487b7100000000000000000000000000000000000000000000000000000000600052603260045260246000fd5b7f4e487b7100000000000000000000000000000000000000000000000000000000600052601160045260246000fd5b6000613cfc82613262565b91507fffffffffffffffffffffffffffffffffffffffffffffffffffffffffffffffff8203613d2e57613d2d613cc2565b5b600182019050919050565b7f4552433732313a20617070726f76616c20746f2063757272656e74206f776e6560008201527f7200000000000000000000000000000000000000000000000000000000000000602082015250565b6000613d9560218361332c565b9150613da082613d39565b604082019050919050565b60006020820190508181036000830152613dc481613d88565b9050919050565b7f4552433732313a20617070726f76652063616c6c6572206973206e6f7420746f60008201527f6b656e206f776e6572206f7220617070726f76656420666f7220616c6c000000602082015250565b6000613e27603d8361332c565b9150613e3282613dcb565b604082019050919050565b60006020820190508181036000830152613e5681613e1a565b9050919050565b7f4552433732313a2063616c6c6572206973206e6f7420746f6b656e206f776e6560008201527f72206f7220617070726f76656400000000000000000000000000000000000000602082015250565b6000613eb9602d8361332c565b9150613ec482613e5d565b604082019050919050565b60006020820190508181036000830152613ee881613eac565b9050919050565b7f546f6b656e206973206e6f74206f776e65642062792074686520636f6e74726160008201527f6374000000000000000000000000000000000000000000000000000000000000602082015250565b6000613f4b60228361332c565b9150613f5682613eef565b604082019050919050565b60006020820190508181036000830152613f7a81613f3e565b9050919050565b7f436f6e74696e656e7420646f6573206e6f742065786973740000000000000000600082015250565b6000613fb760188361332c565b9150613fc282613f81565b602082019050919050565b60006020820190508181036000830152613fe681613faa565b9050919050565b7f596f7520616c7265616479206f776e207468697320636f6e74696e656e740000600082015250565b6000614023601e8361332c565b915061402e82613fed565b602082019050919050565b6000602082019050818103600083015261405281614016565b9050919050565b7f4e6f7420656e6f7567682045746865722073656e7420746f20636f766572206360008201527f6974697a656e7368697020746178000000000000000000000000000000000000602082015250565b60006140b5602e8361332c565b91506140c082614059565b604082019050919050565b600060208201905081810360008301526140e4816140a8565b9050919050565b7f455243373231456e756d657261626c653a206f776e657220696e646578206f7560008201527f74206f6620626f756e6473000000000000000000000000000000000000000000602082015250565b6000614147602b8361332c565b9150614152826140eb565b604082019050919050565b600060208201905081810360008301526141768161413a565b9050919050565b7f596f7520617265206e6f7420746865206f776e6572206f66207468697320636f60008201527f6e74696e656e7400000000000000000000000000000000000000000000000000602082015250565b60006141d960278361332c565b91506141e48261417d565b604082019050919050565b60006020820190508181036000830152614208816141cc565b9050919050565b7f4e6f7420656e6f7567682045746865722073656e7420746f20636f766572207460008201527f65616d2066656500000000000000000000000000000000000000000000000000602082015250565b600061426b60278361332c565b91506142768261420f565b604082019050919050565b6000602082019050818103600083015261429a8161425e565b9050919050565b7f455243373231456e756d657261626c653a20676c6f62616c20696e646578206f60008201527f7574206f6620626f756e64730000000000000000000000000000000000000000602082015250565b60006142fd602c8361332c565b9150614308826142a1565b604082019050919050565b6000602082019050818103600083015261432c816142f0565b9050919050565b7f4552433732313a20696e76616c696420746f6b656e2049440000000000000000600082015250565b600061436960188361332c565b915061437482614333565b602082019050919050565b600060208201905081810360008301526143988161435c565b9050919050565b7f4552433732313a2061646472657373207a65726f206973206e6f74206120766160008201527f6c6964206f776e65720000000000000000000000000000000000000000000000602082015250565b60006143fb60298361332c565b91506144068261439f565b604082019050919050565b6000602082019050818103600083015261442a816143ee565b9050919050565b600081905092915050565b600061444782613321565b6144518185614431565b935061446181856020860161333d565b80840191505092915050565b6000614479828561443c565b9150614485828461443c565b91508190509392505050565b7f4f776e61626c653a206e6577206f776e657220697320746865207a65726f206160008201527f6464726573730000000000000000000000000000000000000000000000000000602082015250565b60006144ed60268361332c565b91506144f882614491565b604082019050919050565b6000602082019050818103600083015261451c816144e0565b9050919050565b7f4552433732313a207472616e736665722066726f6d20696e636f72726563742060008201527f6f776e6572000000000000000000000000000000000000000000000000000000602082015250565b600061457f60258361332c565b915061458a82614523565b604082019050919050565b600060208201905081810360008301526145ae81614572565b9050919050565b7f4552433732313a207472616e7366657220746f20746865207a65726f2061646460008201527f7265737300000000000000000000000000000000000000000000000000000000602082015250565b600061461160248361332c565b915061461c826145b5565b604082019050919050565b6000602082019050818103600083015261464081614604565b9050919050565b7f4f776e61626c653a2063616c6c6572206973206e6f7420746865206f776e6572600082015250565b600061467d60208361332c565b915061468882614647565b602082019050919050565b600060208201905081810360008301526146ac81614670565b9050919050565b7f416464726573733a20696e73756666696369656e742062616c616e6365000000600082015250565b60006146e9601d8361332c565b91506146f4826146b3565b602082019050919050565b60006020820190508181036000830152614718816146dc565b9050919050565b600081905092915050565b50565b600061473a60008361471f565b91506147458261472a565b600082019050919050565b600061475b8261472d565b9150819050919050565b7f416464726573733a20756e61626c6520746f2073656e642076616c75652c207260008201527f6563697069656e74206d61792068617665207265766572746564000000000000602082015250565b60006147c1603a8361332c565b91506147cc82614765565b604082019050919050565b600060208201905081810360008301526147f0816147b4565b9050919050565b7f4552433732313a20617070726f766520746f2063616c6c657200000000000000600082015250565b600061482d60198361332c565b9150614838826147f7565b602082019050919050565b6000602082019050818103600083015261485c81614820565b9050919050565b7f4552433732313a207472616e7366657220746f206e6f6e20455243373231526560008201527f63656976657220696d706c656d656e7465720000000000000000000000000000602082015250565b60006148bf60328361332c565b91506148ca82614863565b604082019050919050565b600060208201905081810360008301526148ee816148b2565b9050919050565b7f4e487b7100000000000000000000000000000000000000000000000000000000600052601260045260246000fd5b7f455243373231456e756d657261626c653a20636f6e736563757469766520747260008201527f616e7366657273206e6f7420737570706f727465640000000000000000000000602082015250565b600061498060358361332c565b915061498b82614924565b604082019050919050565b600060208201905081810360008301526149af81614973565b9050919050565b600081519050919050565b600082825260208201905092915050565b60006149dd826149b6565b6149e781856149c1565b93506149f781856020860161333d565b614a0081613370565b840191505092915050565b6000608082019050614a2060008301876132f7565b614a2d60208301866132f7565b614a3a6040830185613746565b8181036060830152614a4c81846149d2565b905095945050505050565b600081519050614a66816131d3565b92915050565b600060208284031215614a8257614a8161319d565b5b6000614a9084828501614a57565b91505092915050565b6000614aa482613262565b9150614aaf83613262565b925082821015614ac257614ac1613cc2565b5b828203905092915050565b7f4e487b7100000000000000000000000000000000000000000000000000000000600052603160045260246000fdfea2646970667358221220690d5858083f3539a231150d1371a15e1eeb5972ba39cbbb6fa74526c7171a1d64736f6c634300080d0033697066733a2f2f516d4e717a6e4e4e796d58444a345431736f4e324d396844687a55786d7854467a4a3556384551367132767a5265697066733a2f2f516d59666e77395531563879326336634e55726a4d37453135526b545235757243674872426e38614667396d754b697066733a2f2f516d587570394d4d56664c70774e68543744316357546e71696f4b58684b6d394d747a716b476b46637a42663964697066733a2f2f516d577a6a5566544d4552704a3165534a656b5631674d385732735867485046665735506654544e35504a4b6b57697066733a2f2f516d55616e4532666241644d7841577437656f6b374147394674446357514778756537794d646f426b4e366a3358697066733a2f2f516d5a36517559554369337a335971427556385831703776714a7437635079594e454a364d36576a41466b627653697066733a2f2f516d617a357659566334594e415263765151794a51464b73326d375a7a4662444e77756656674135475a79727959",
  "immutableReferences": {},
  "source": "pragma solidity ^0.8.13;\n\nimport \"@openzeppelin/contracts/utils/Counters.sol\";\nimport \"@openzeppelin/contracts/access/Ownable.sol\";\nimport \"@openzeppelin/contracts/utils/math/SafeMath.sol\";\nimport \"@openzeppelin/contracts/token/ERC721/extensions/ERC721Enumerable.sol\";\nimport \"@openzeppelin/contracts/utils/Address.sol\";\n\ncontract ContinentToken is ERC721Enumerable, Ownable {\n    using SafeMath for uint256;\n    using Counters for Counters.Counter;\n    using Address for address payable;\n\n    Counters.Counter private _tokenIds;\n    // The max number of NFTs in the collection 7 representing Africa, Asia, Europe, North America, South America, Australia, and Antarctica\n    uint256 public constant MAX_SUPPLY = 7;\n\n    uint256 public teamFee = 0.01 ether;\n\n    string public baseTokenURI;\n\n    struct Continent {\n        string name;\n        string metadataURI;\n        address owner;\n        address[] citizens;\n        uint256 citizenTax;\n    }\n\n    mapping(uint256 => Continent) public continents;\n\n\n    event ContinentCreated(uint256 indexed tokenId, string name, string metadataURI);\n    event CitizenshipPurchased(uint256 indexed tokenId, address indexed citizen);\n    event ContinentTransfered(address indexed from, address indexed to, uint256 indexed tokenId);\n\n    constructor(string memory name, string memory symbol, string memory _baseTokenURI) ERC721(name, symbol) {\n        baseTokenURI = _baseTokenURI;\n        _initializeContinents();\n    }\n\n    function _initializeContinents() private {\n        _createContinent(\"Africa\", \"ipfs://QmXup9MMVfLpwNhT7D1cWTnqioKXhKm9MtzqkGkFczBf9d\");\n        _createContinent(\"Asia\", \"ipfs://QmWzjUfTMERpJ1eSJekV1gM8W2sXgHPFfW5PfTTN5PJKkW\");\n        _createContinent(\"Europe\", \"ipfs://QmYfnw9U1V8y2c6cNUrjM7E15RkTR5urCgHrBn8aFg9muK\");\n        _createContinent(\"North America\", \"ipfs://Qmaz5vYVc4YNARcvQQyJQFKs2m7ZzFbDNwufVgA5GZyryY\");\n        _createContinent(\"South America\", \"ipfs://QmUanE2fbAdMxAWt7eok7AG9FtDcWQGxue7yMdoBkN6j3X\");\n        _createContinent(\"Australia\", \"ipfs://QmZ6QuYUCi3z3YqBuV8X1p7vqJt7cPyYNEJ6M6WjAFkbvS\");\n        _createContinent(\"Antarctica\", \"ipfs://QmNqznNNymXDJ4T1soN2M9hDhzUxmxTFzJ5V8EQ6q2vzRe\");\n    }\n\n    function _createContinent(string memory _name, string memory _metadataURI) private {\n        require(_tokenIds.current() < MAX_SUPPLY, \"Max supply reached\");\n\n        _tokenIds.increment();\n        uint256 tokenId = _tokenIds.current();\n        _safeMint(address(this), tokenId);\n\n        continents[tokenId] = Continent({\n            name: _name,\n            metadataURI: _metadataURI,\n            owner: address(this),\n            citizens: new address[](0),\n            citizenTax: 0\n        });\n\n        emit ContinentCreated(tokenId, _name, _metadataURI);\n    }\n\n    function transferTokenFromContract(uint256 _tokenId, address _to) external onlyOwner {\n        require(ownerOf(_tokenId) == address(this), \"Token is not owned by the contract\");\n        _transfer(address(this), _to, _tokenId);\n        continents[_tokenId].owner = _to;\n\n        emit ContinentTransfered(address(this), _to, _tokenId);\n    }\n\n    function transferContinent(uint256 _tokenId, address _to) external payable {\n        require(ownerOf(_tokenId) == msg.sender, \"You are not the owner of this continent\");\n        require(msg.value >= teamFee, \"Not enough Ether sent to cover team fee\");\n        \n        _transfer(ownerOf(_tokenId), _to, _tokenId);\n\n        if(msg.sender != owner()){\n            Address.sendValue(payable(owner()), teamFee);\n        }\n\n        continents[_tokenId].owner = _to;\n\n        emit ContinentTransfered(ownerOf(_tokenId), _to, _tokenId);\n    }\n\n    function getAllContinents() public view returns (uint256[] memory, string[] memory, string[] memory, address[] memory, uint256[] memory) {\n        uint256 totalContinents = totalSupply();\n        uint256[] memory tokenIds = new uint256[](totalContinents);\n        string[] memory names = new string[](totalContinents);\n        string[] memory metadataURIs = new string[](totalContinents);\n        address[] memory owners = new address[](totalContinents);\n        uint256[] memory citizenTaxes = new uint256[](totalContinents);\n\n        for (uint256 i = 0; i < totalContinents; i++) {\n            tokenIds[i] = tokenByIndex(i);\n            names[i] = continents[tokenIds[i]].name;\n            metadataURIs[i] = continents[tokenIds[i]].metadataURI;\n            owners[i] = continents[tokenIds[i]].owner;\n            citizenTaxes[i] = continents[tokenIds[i]].citizenTax;\n        }\n\n        return (tokenIds, names, metadataURIs, owners, citizenTaxes);\n    }\n\n    function getContinentOwner(uint256 _tokenId) external view returns (address) {\n        return ownerOf(_tokenId);\n    }\n\n    function buyCitizenship(uint256 _tokenId) external payable {\n        require(ownerOf(_tokenId) != address(0), \"Continent does not exist\");\n        require(ownerOf(_tokenId) != msg.sender, \"You already own this continent\");\n        require(msg.value >= continents[_tokenId].citizenTax, \"Not enough Ether sent to cover citizenship tax\");\n\n        payable(ownerOf(_tokenId)).sendValue(msg.value);\n        continents[_tokenId].citizens.push(msg.sender);\n\n        emit CitizenshipPurchased(_tokenId, msg.sender);\n    }\n\n    function setCitizenTax(uint256 _tokenId, uint256 _citizenTax) external {\n        require(ownerOf(_tokenId) == msg.sender, \"You are not the owner of this continent\");\n        continents[_tokenId].citizenTax = _citizenTax;\n    } \n\n    function getCitizens(uint256 _tokenId) external view returns (address[] memory) {\n        return continents[_tokenId].citizens;\n    }\n\n    function setTeamFee(uint256 _newTeamFee) external onlyOwner {\n        teamFee = _newTeamFee;\n    }\n\n    function _baseURI() internal view virtual override returns (string memory) {\n        return baseTokenURI;\n    }\n\n    function setBaseURI(string memory _baseTokenURI) public onlyOwner {\n        baseTokenURI = _baseTokenURI;\n    }\n\n    function withdraw() external onlyOwner {\n        payable(owner()).sendValue(address(this).balance);\n    }\n}\n\n",
  "sourcePath": "/Users/timicodes/Code/world-nft/contracts/ContinentToken.sol",
  "compiler": {
    "name": "solc",
    "version": "0.8.13+commit.abaa5c0e.Emscripten.clang"
  },
  "schemaVersion": "3.4.16",
  "updatedAt": "2024-05-11T20:48:09.928Z",
  "networkType": "ethereum",
  "devdoc": {
    "kind": "dev",
    "methods": {
      "approve(address,uint256)": {
        "details": "See {IERC721-approve}."
      },
      "balanceOf(address)": {
        "details": "See {IERC721-balanceOf}."
      },
      "getApproved(uint256)": {
        "details": "See {IERC721-getApproved}."
      },
      "isApprovedForAll(address,address)": {
        "details": "See {IERC721-isApprovedForAll}."
      },
      "name()": {
        "details": "See {IERC721Metadata-name}."
      },
      "owner()": {
        "details": "Returns the address of the current owner."
      },
      "ownerOf(uint256)": {
        "details": "See {IERC721-ownerOf}."
      },
      "renounceOwnership()": {
        "details": "Leaves the contract without owner. It will not be possible to call `onlyOwner` functions. Can only be called by the current owner. NOTE: Renouncing ownership will leave the contract without an owner, thereby disabling any functionality that is only available to the owner."
      },
      "safeTransferFrom(address,address,uint256)": {
        "details": "See {IERC721-safeTransferFrom}."
      },
      "safeTransferFrom(address,address,uint256,bytes)": {
        "details": "See {IERC721-safeTransferFrom}."
      },
      "setApprovalForAll(address,bool)": {
        "details": "See {IERC721-setApprovalForAll}."
      },
      "supportsInterface(bytes4)": {
        "details": "See {IERC165-supportsInterface}."
      },
      "symbol()": {
        "details": "See {IERC721Metadata-symbol}."
      },
      "tokenByIndex(uint256)": {
        "details": "See {IERC721Enumerable-tokenByIndex}."
      },
      "tokenOfOwnerByIndex(address,uint256)": {
        "details": "See {IERC721Enumerable-tokenOfOwnerByIndex}."
      },
      "tokenURI(uint256)": {
        "details": "See {IERC721Metadata-tokenURI}."
      },
      "totalSupply()": {
        "details": "See {IERC721Enumerable-totalSupply}."
      },
      "transferFrom(address,address,uint256)": {
        "details": "See {IERC721-transferFrom}."
      },
      "transferOwnership(address)": {
        "details": "Transfers ownership of the contract to a new account (`newOwner`). Can only be called by the current owner."
      }
    },
    "version": 1
  },
  "userdoc": {
    "kind": "user",
    "methods": {},
    "version": 1
  }
}