{
  "contractName": "ContinentAuction",
  "abi": [
    {
      "inputs": [
        {
          "internalType": "address",
          "name": "_continentToken",
          "type": "address"
        }
      ],
      "stateMutability": "nonpayable",
      "type": "constructor"
    },
    {
      "anonymous": false,
      "inputs": [
        {
          "indexed": true,
          "internalType": "address",
          "name": "winner",
          "type": "address"
        },
        {
          "indexed": false,
          "internalType": "uint256",
          "name": "tokenId",
          "type": "uint256"
        },
        {
          "indexed": false,
          "internalType": "uint256",
          "name": "amount",
          "type": "uint256"
        }
      ],
      "name": "AuctionEnded",
      "type": "event"
    },
    {
      "anonymous": false,
      "inputs": [
        {
          "indexed": true,
          "internalType": "uint256",
          "name": "tokenId",
          "type": "uint256"
        },
        {
          "indexed": false,
          "internalType": "uint256",
          "name": "startTime",
          "type": "uint256"
        },
        {
          "indexed": false,
          "internalType": "uint256",
          "name": "endTime",
          "type": "uint256"
        }
      ],
      "name": "AuctionStarted",
      "type": "event"
    },
    {
      "anonymous": false,
      "inputs": [
        {
          "indexed": true,
          "internalType": "address",
          "name": "bidder",
          "type": "address"
        },
        {
          "indexed": false,
          "internalType": "uint256",
          "name": "tokenId",
          "type": "uint256"
        },
        {
          "indexed": false,
          "internalType": "uint256",
          "name": "amount",
          "type": "uint256"
        }
      ],
      "name": "BidPlaced",
      "type": "event"
    },
    {
      "anonymous": false,
      "inputs": [
        {
          "indexed": true,
          "internalType": "address",
          "name": "previousOwner",
          "type": "address"
        },
        {
          "indexed": true,
          "internalType": "address",
          "name": "newOwner",
          "type": "address"
        }
      ],
      "name": "OwnershipTransferred",
      "type": "event"
    },
    {
      "inputs": [],
      "name": "MAX_PURCHASE_PER_WALLET",
      "outputs": [
        {
          "internalType": "uint256",
          "name": "",
          "type": "uint256"
        }
      ],
      "stateMutability": "view",
      "type": "function",
      "constant": true
    },
    {
      "inputs": [
        {
          "internalType": "uint256",
          "name": "",
          "type": "uint256"
        }
      ],
      "name": "auctions",
      "outputs": [
        {
          "internalType": "uint256",
          "name": "tokenId",
          "type": "uint256"
        },
        {
          "internalType": "uint256",
          "name": "bidIncrement",
          "type": "uint256"
        },
        {
          "internalType": "bool",
          "name": "ended",
          "type": "bool"
        },
        {
          "internalType": "uint256",
          "name": "highestBid",
          "type": "uint256"
        },
        {
          "internalType": "address",
          "name": "highestBidder",
          "type": "address"
        },
        {
          "internalType": "uint256",
          "name": "startTime",
          "type": "uint256"
        },
        {
          "internalType": "uint256",
          "name": "endTime",
          "type": "uint256"
        }
      ],
      "stateMutability": "view",
      "type": "function",
      "constant": true
    },
    {
      "inputs": [],
      "name": "continentTokenContract",
      "outputs": [
        {
          "internalType": "contract ContinentToken",
          "name": "",
          "type": "address"
        }
      ],
      "stateMutability": "view",
      "type": "function",
      "constant": true
    },
    {
      "inputs": [],
      "name": "owner",
      "outputs": [
        {
          "internalType": "address",
          "name": "",
          "type": "address"
        }
      ],
      "stateMutability": "view",
      "type": "function",
      "constant": true
    },
    {
      "inputs": [],
      "name": "renounceOwnership",
      "outputs": [],
      "stateMutability": "nonpayable",
      "type": "function"
    },
    {
      "inputs": [
        {
          "internalType": "address",
          "name": "newOwner",
          "type": "address"
        }
      ],
      "name": "transferOwnership",
      "outputs": [],
      "stateMutability": "nonpayable",
      "type": "function"
    },
    {
      "inputs": [
        {
          "internalType": "uint256",
          "name": "_tokenId",
          "type": "uint256"
        },
        {
          "internalType": "uint256",
          "name": "_startPrice",
          "type": "uint256"
        },
        {
          "internalType": "uint256",
          "name": "_bidIncrement",
          "type": "uint256"
        },
        {
          "internalType": "uint256",
          "name": "_startTime",
          "type": "uint256"
        },
        {
          "internalType": "uint256",
          "name": "_endTime",
          "type": "uint256"
        }
      ],
      "name": "createAuction",
      "outputs": [],
      "stateMutability": "nonpayable",
      "type": "function"
    },
    {
      "inputs": [
        {
          "internalType": "uint256",
          "name": "_tokenId",
          "type": "uint256"
        }
      ],
      "name": "getAuction",
      "outputs": [
        {
          "internalType": "uint256",
          "name": "",
          "type": "uint256"
        },
        {
          "internalType": "uint256",
          "name": "",
          "type": "uint256"
        },
        {
          "internalType": "uint256",
          "name": "",
          "type": "uint256"
        },
        {
          "internalType": "uint256",
          "name": "",
          "type": "uint256"
        },
        {
          "internalType": "uint256",
          "name": "",
          "type": "uint256"
        },
        {
          "internalType": "bool",
          "name": "",
          "type": "bool"
        },
        {
          "internalType": "address",
          "name": "",
          "type": "address"
        }
      ],
      "stateMutability": "view",
      "type": "function",
      "constant": true
    },
    {
      "inputs": [
        {
          "internalType": "uint256",
          "name": "_tokenId",
          "type": "uint256"
        }
      ],
      "name": "endAuction",
      "outputs": [],
      "stateMutability": "nonpayable",
      "type": "function"
    },
    {
      "inputs": [
        {
          "internalType": "uint256",
          "name": "_tokenId",
          "type": "uint256"
        }
      ],
      "name": "placeBid",
      "outputs": [],
      "stateMutability": "payable",
      "type": "function",
      "payable": true
    },
    {
      "inputs": [
        {
          "internalType": "uint256",
          "name": "_tokenId",
          "type": "uint256"
        }
      ],
      "name": "getBids",
      "outputs": [
        {
          "components": [
            {
              "internalType": "uint256",
              "name": "amount",
              "type": "uint256"
            },
            {
              "internalType": "uint256",
              "name": "timestamp",
              "type": "uint256"
            }
          ],
          "internalType": "struct ContinentAuction.BidItem[]",
          "name": "",
          "type": "tuple[]"
        }
      ],
      "stateMutability": "view",
      "type": "function",
      "constant": true
    },
    {
      "inputs": [],
      "name": "withdraw",
      "outputs": [],
      "stateMutability": "nonpayable",
      "type": "function"
    }
  ],
  "bytecode": "0x60806040523480156200001157600080fd5b506040516200208e3803806200208e8339818101604052810190620000379190620001d5565b620000576200004b6200009f60201b60201c565b620000a760201b60201c565b80600260006101000a81548173ffffffffffffffffffffffffffffffffffffffff021916908373ffffffffffffffffffffffffffffffffffffffff1602179055505062000207565b600033905090565b60008060009054906101000a900473ffffffffffffffffffffffffffffffffffffffff169050816000806101000a81548173ffffffffffffffffffffffffffffffffffffffff021916908373ffffffffffffffffffffffffffffffffffffffff1602179055508173ffffffffffffffffffffffffffffffffffffffff168173ffffffffffffffffffffffffffffffffffffffff167f8be0079c531659141344cd1fd0a4f28419497f9722a3daafe3b4186f6b6457e060405160405180910390a35050565b600080fd5b600073ffffffffffffffffffffffffffffffffffffffff82169050919050565b60006200019d8262000170565b9050919050565b620001af8162000190565b8114620001bb57600080fd5b50565b600081519050620001cf81620001a4565b92915050565b600060208284031215620001ee57620001ed6200016b565b5b6000620001fe84828501620001be565b91505092915050565b611e7780620002176000396000f3fe6080604052600436106100a75760003560e01c806378bd79351161006457806378bd7935146101b05780638a157df3146101f35780638da5cb5b1461021c5780639979ef4514610247578063b9a2de3a14610263578063f2fde38b1461028c576100a7565b8063131d9a27146100ac5780632c335e0e146100e95780633ccfd60b146101145780634f93db031461012b578063571a26a014610156578063715018a614610199575b600080fd5b3480156100b857600080fd5b506100d360048036038101906100ce9190611272565b6102b5565b6040516100e0919061138c565b60405180910390f35b3480156100f557600080fd5b506100fe610381565b60405161010b91906113bd565b60405180910390f35b34801561012057600080fd5b50610129610386565b005b34801561013757600080fd5b506101406103c0565b60405161014d9190611457565b60405180910390f35b34801561016257600080fd5b5061017d60048036038101906101789190611272565b6103e6565b60405161019097969594939291906114ae565b60405180910390f35b3480156101a557600080fd5b506101ae610455565b005b3480156101bc57600080fd5b506101d760048036038101906101d29190611272565b610469565b6040516101ea979695949392919061151d565b60405180910390f35b3480156101ff57600080fd5b5061021a6004803603810190610215919061158c565b610545565b005b34801561022857600080fd5b506102316108a2565b60405161023e9190611607565b60405180910390f35b610261600480360381019061025c9190611272565b6108cb565b005b34801561026f57600080fd5b5061028a60048036038101906102859190611272565b610d2a565b005b34801561029857600080fd5b506102b360048036038101906102ae919061164e565b610f76565b005b606060006001600084815260200190815260200160002060040160003373ffffffffffffffffffffffffffffffffffffffff1673ffffffffffffffffffffffffffffffffffffffff168152602001908152602001600020805480602002602001604051908101604052809291908181526020016000905b828210156103725783829060005260206000209060020201604051806040016040529081600082015481526020016001820154815250508152602001906001019061032c565b50505050905080915050919050565b600181565b61038e610ff9565b6103be4761039a6108a2565b73ffffffffffffffffffffffffffffffffffffffff1661107790919063ffffffff16565b565b600260009054906101000a900473ffffffffffffffffffffffffffffffffffffffff1681565b60016020528060005260406000206000915090508060000154908060010154908060020160009054906101000a900460ff16908060030154908060050160009054906101000a900473ffffffffffffffffffffffffffffffffffffffff16908060060154908060070154905087565b61045d610ff9565b610467600061116b565b565b600080600080600080600087600160008a815260200190815260200160002060010154600160008b815260200190815260200160002060030154600160008c815260200190815260200160002060060154600160008d815260200190815260200160002060070154600160008e815260200190815260200160002060020160009054906101000a900460ff16600160008f815260200190815260200160002060050160009054906101000a900473ffffffffffffffffffffffffffffffffffffffff169650965096509650965096509650919395979092949650565b61054d610ff9565b600260009054906101000a900473ffffffffffffffffffffffffffffffffffffffff1673ffffffffffffffffffffffffffffffffffffffff16600260009054906101000a900473ffffffffffffffffffffffffffffffffffffffff1673ffffffffffffffffffffffffffffffffffffffff16636352211e876040518263ffffffff1660e01b81526004016105e191906113bd565b602060405180830381865afa1580156105fe573d6000803e3d6000fd5b505050506040513d601f19601f820116820180604052508101906106229190611690565b73ffffffffffffffffffffffffffffffffffffffff1614610678576040517f08c379a000000000000000000000000000000000000000000000000000000000815260040161066f9061171a565b60405180910390fd5b60006001600087815260200190815260200160002060070154146106d1576040517f08c379a00000000000000000000000000000000000000000000000000000000081526004016106c890611786565b60405180910390fd5b808210610713576040517f08c379a000000000000000000000000000000000000000000000000000000000815260040161070a906117f2565b60405180910390fd5b428111610755576040517f08c379a000000000000000000000000000000000000000000000000000000000815260040161074c9061185e565b60405180910390fd5b84600160008781526020019081526020016000206000018190555082600160008781526020019081526020016000206001018190555060006001600087815260200190815260200160002060020160006101000a81548160ff02191690831515021790555083600160008781526020019081526020016000206003018190555060006001600087815260200190815260200160002060050160006101000a81548173ffffffffffffffffffffffffffffffffffffffff021916908373ffffffffffffffffffffffffffffffffffffffff160217905550816001600087815260200190815260200160002060060181905550806001600087815260200190815260200160002060070181905550847f44c53be110c6aa83aa83cd02e351ed172359268272ee1b5d31c0fe48db35c6c7838360405161089392919061187e565b60405180910390a25050505050565b60008060009054906101000a900473ffffffffffffffffffffffffffffffffffffffff16905090565b6000600160008381526020019081526020016000206007015411610924576040517f08c379a000000000000000000000000000000000000000000000000000000000815260040161091b906118f3565b60405180910390fd5b6001600082815260200190815260200160002060070154421061097c576040517f08c379a00000000000000000000000000000000000000000000000000000000081526004016109739061195f565b60405180910390fd5b6001600260009054906101000a900473ffffffffffffffffffffffffffffffffffffffff1673ffffffffffffffffffffffffffffffffffffffff166370a08231336040518263ffffffff1660e01b81526004016109d99190611607565b602060405180830381865afa1580156109f6573d6000803e3d6000fd5b505050506040513d601f19601f82011682018060405250810190610a1a9190611994565b10610a5a576040517f08c379a0000000000000000000000000000000000000000000000000000000008152600401610a5190611a0d565b60405180910390fd5b600060016000838152602001908152602001600020600101546001600084815260200190815260200160002060030154610a949190611a5c565b905080341015610ad9576040517f08c379a0000000000000000000000000000000000000000000000000000000008152600401610ad090611b4a565b60405180910390fd5b600073ffffffffffffffffffffffffffffffffffffffff166001600084815260200190815260200160002060050160009054906101000a900473ffffffffffffffffffffffffffffffffffffffff1673ffffffffffffffffffffffffffffffffffffffff1614610bbf5760006001600084815260200190815260200160002060050160009054906101000a900473ffffffffffffffffffffffffffffffffffffffff169050610bbd60016000858152602001908152602001600020600301548273ffffffffffffffffffffffffffffffffffffffff1661107790919063ffffffff16565b505b346001600084815260200190815260200160002060030181905550336001600084815260200190815260200160002060050160006101000a81548173ffffffffffffffffffffffffffffffffffffffff021916908373ffffffffffffffffffffffffffffffffffffffff1602179055506001600083815260200190815260200160002060040160003373ffffffffffffffffffffffffffffffffffffffff1673ffffffffffffffffffffffffffffffffffffffff1681526020019081526020016000206040518060400160405280348152602001428152509080600181540180825580915050600190039060005260206000209060020201600090919091909150600082015181600001556020820151816001015550503373ffffffffffffffffffffffffffffffffffffffff167fdf8644c0a4c21ed214ce69f395675b3a5fcd1039083daea5058898de40ea31498334604051610d1e92919061187e565b60405180910390a25050565b610d32610ff9565b6000600160008381526020019081526020016000206007015411610d8b576040517f08c379a0000000000000000000000000000000000000000000000000000000008152600401610d82906118f3565b60405180910390fd5b6001600082815260200190815260200160002060070154421015610de4576040517f08c379a0000000000000000000000000000000000000000000000000000000008152600401610ddb90611bb6565b60405180910390fd5b600180600083815260200190815260200160002060020160006101000a81548160ff0219169083151502179055506001600082815260200190815260200160002060050160009054906101000a900473ffffffffffffffffffffffffffffffffffffffff1673ffffffffffffffffffffffffffffffffffffffff167fc358e8e3f205b5e7453abd5cbac388ca4552b887b69001bc972b88610c749035826001600085815260200190815260200160002060030154604051610ea692919061187e565b60405180910390a2600260009054906101000a900473ffffffffffffffffffffffffffffffffffffffff1673ffffffffffffffffffffffffffffffffffffffff16632b382fac826001600085815260200190815260200160002060050160009054906101000a900473ffffffffffffffffffffffffffffffffffffffff166040518363ffffffff1660e01b8152600401610f41929190611bd6565b600060405180830381600087803b158015610f5b57600080fd5b505af1158015610f6f573d6000803e3d6000fd5b5050505050565b610f7e610ff9565b600073ffffffffffffffffffffffffffffffffffffffff168173ffffffffffffffffffffffffffffffffffffffff1603610fed576040517f08c379a0000000000000000000000000000000000000000000000000000000008152600401610fe490611c71565b60405180910390fd5b610ff68161116b565b50565b61100161122f565b73ffffffffffffffffffffffffffffffffffffffff1661101f6108a2565b73ffffffffffffffffffffffffffffffffffffffff1614611075576040517f08c379a000000000000000000000000000000000000000000000000000000000815260040161106c90611cdd565b60405180910390fd5b565b804710156110ba576040517f08c379a00000000000000000000000000000000000000000000000000000000081526004016110b190611d49565b60405180910390fd5b60008273ffffffffffffffffffffffffffffffffffffffff16826040516110e090611d9a565b60006040518083038185875af1925050503d806000811461111d576040519150601f19603f3d011682016040523d82523d6000602084013e611122565b606091505b5050905080611166576040517f08c379a000000000000000000000000000000000000000000000000000000000815260040161115d90611e21565b60405180910390fd5b505050565b60008060009054906101000a900473ffffffffffffffffffffffffffffffffffffffff169050816000806101000a81548173ffffffffffffffffffffffffffffffffffffffff021916908373ffffffffffffffffffffffffffffffffffffffff1602179055508173ffffffffffffffffffffffffffffffffffffffff168173ffffffffffffffffffffffffffffffffffffffff167f8be0079c531659141344cd1fd0a4f28419497f9722a3daafe3b4186f6b6457e060405160405180910390a35050565b600033905090565b600080fd5b6000819050919050565b61124f8161123c565b811461125a57600080fd5b50565b60008135905061126c81611246565b92915050565b60006020828403121561128857611287611237565b5b60006112968482850161125d565b91505092915050565b600081519050919050565b600082825260208201905092915050565b6000819050602082019050919050565b6112d48161123c565b82525050565b6040820160008201516112f060008501826112cb565b50602082015161130360208501826112cb565b50505050565b600061131583836112da565b60408301905092915050565b6000602082019050919050565b60006113398261129f565b61134381856112aa565b935061134e836112bb565b8060005b8381101561137f5781516113668882611309565b975061137183611321565b925050600181019050611352565b5085935050505092915050565b600060208201905081810360008301526113a6818461132e565b905092915050565b6113b78161123c565b82525050565b60006020820190506113d260008301846113ae565b92915050565b600073ffffffffffffffffffffffffffffffffffffffff82169050919050565b6000819050919050565b600061141d611418611413846113d8565b6113f8565b6113d8565b9050919050565b600061142f82611402565b9050919050565b600061144182611424565b9050919050565b61145181611436565b82525050565b600060208201905061146c6000830184611448565b92915050565b60008115159050919050565b61148781611472565b82525050565b6000611498826113d8565b9050919050565b6114a88161148d565b82525050565b600060e0820190506114c3600083018a6113ae565b6114d060208301896113ae565b6114dd604083018861147e565b6114ea60608301876113ae565b6114f7608083018661149f565b61150460a08301856113ae565b61151160c08301846113ae565b98975050505050505050565b600060e082019050611532600083018a6113ae565b61153f60208301896113ae565b61154c60408301886113ae565b61155960608301876113ae565b61156660808301866113ae565b61157360a083018561147e565b61158060c083018461149f565b98975050505050505050565b600080600080600060a086880312156115a8576115a7611237565b5b60006115b68882890161125d565b95505060206115c78882890161125d565b94505060406115d88882890161125d565b93505060606115e98882890161125d565b92505060806115fa8882890161125d565b9150509295509295909350565b600060208201905061161c600083018461149f565b92915050565b61162b8161148d565b811461163657600080fd5b50565b60008135905061164881611622565b92915050565b60006020828403121561166457611663611237565b5b600061167284828501611639565b91505092915050565b60008151905061168a81611622565b92915050565b6000602082840312156116a6576116a5611237565b5b60006116b48482850161167b565b91505092915050565b600082825260208201905092915050565b7f436f6e74696e656e74206e6f7420696e20636f6e747261637400000000000000600082015250565b60006117046019836116bd565b915061170f826116ce565b602082019050919050565b60006020820190508181036000830152611733816116f7565b9050919050565b7f41756374696f6e20616c72656164792065786973747300000000000000000000600082015250565b60006117706016836116bd565b915061177b8261173a565b602082019050919050565b6000602082019050818103600083015261179f81611763565b9050919050565b7f496e76616c696420737461727420616e6420656e642074696d65000000000000600082015250565b60006117dc601a836116bd565b91506117e7826117a6565b602082019050919050565b6000602082019050818103600083015261180b816117cf565b9050919050565b7f456e642074696d65206d75737420626520696e20746865206675747572650000600082015250565b6000611848601e836116bd565b915061185382611812565b602082019050919050565b600060208201905081810360008301526118778161183b565b9050919050565b600060408201905061189360008301856113ae565b6118a060208301846113ae565b9392505050565b7f41756374696f6e206e6f74207374617274656400000000000000000000000000600082015250565b60006118dd6013836116bd565b91506118e8826118a7565b602082019050919050565b6000602082019050818103600083015261190c816118d0565b9050919050565b7f41756374696f6e20656e64656400000000000000000000000000000000000000600082015250565b6000611949600d836116bd565b915061195482611913565b602082019050919050565b600060208201905081810360008301526119788161193c565b9050919050565b60008151905061198e81611246565b92915050565b6000602082840312156119aa576119a9611237565b5b60006119b88482850161197f565b91505092915050565b7f42696464657220616c7265616479206f776e73206120636f6e74696e656e7400600082015250565b60006119f7601f836116bd565b9150611a02826119c1565b602082019050919050565b60006020820190508181036000830152611a26816119ea565b9050919050565b7f4e487b7100000000000000000000000000000000000000000000000000000000600052601160045260246000fd5b6000611a678261123c565b9150611a728361123c565b9250827fffffffffffffffffffffffffffffffffffffffffffffffffffffffffffffffff03821115611aa757611aa6611a2d565b5b828201905092915050565b7f426964206d75737420626520686967686572207468616e2063757272656e742060008201527f626964206279206174206c65617374207468652062696420696e6372656d656e60208201527f7400000000000000000000000000000000000000000000000000000000000000604082015250565b6000611b346041836116bd565b9150611b3f82611ab2565b606082019050919050565b60006020820190508181036000830152611b6381611b27565b9050919050565b7f41756374696f6e206e6f7420656e646564207965740000000000000000000000600082015250565b6000611ba06015836116bd565b9150611bab82611b6a565b602082019050919050565b60006020820190508181036000830152611bcf81611b93565b9050919050565b6000604082019050611beb60008301856113ae565b611bf8602083018461149f565b9392505050565b7f4f776e61626c653a206e6577206f776e657220697320746865207a65726f206160008201527f6464726573730000000000000000000000000000000000000000000000000000602082015250565b6000611c5b6026836116bd565b9150611c6682611bff565b604082019050919050565b60006020820190508181036000830152611c8a81611c4e565b9050919050565b7f4f776e61626c653a2063616c6c6572206973206e6f7420746865206f776e6572600082015250565b6000611cc76020836116bd565b9150611cd282611c91565b602082019050919050565b60006020820190508181036000830152611cf681611cba565b9050919050565b7f416464726573733a20696e73756666696369656e742062616c616e6365000000600082015250565b6000611d33601d836116bd565b9150611d3e82611cfd565b602082019050919050565b60006020820190508181036000830152611d6281611d26565b9050919050565b600081905092915050565b50565b6000611d84600083611d69565b9150611d8f82611d74565b600082019050919050565b6000611da582611d77565b9150819050919050565b7f416464726573733a20756e61626c6520746f2073656e642076616c75652c207260008201527f6563697069656e74206d61792068617665207265766572746564000000000000602082015250565b6000611e0b603a836116bd565b9150611e1682611daf565b604082019050919050565b60006020820190508181036000830152611e3a81611dfe565b905091905056fea2646970667358221220d7b6fceadc64f828f329b472fa267c50bf981dd114ddc2b415c1b11457e6ea7064736f6c634300080d0033",
  "immutableReferences": {},
  "source": "pragma solidity ^0.8.13;\nimport \"@openzeppelin/contracts/access/Ownable.sol\";\nimport \"@openzeppelin/contracts/token/ERC721/IERC721.sol\";\nimport \"@openzeppelin/contracts/utils/math/SafeMath.sol\";\nimport \"@openzeppelin/contracts/utils/Address.sol\";\nimport \"./ContinentToken.sol\";\n\n\ncontract ContinentAuction is Ownable {\n    using SafeMath for uint256;\n    using Address for address payable;\n\n    uint256 public constant MAX_PURCHASE_PER_WALLET = 1;\n\n    struct Auction {\n        uint256 tokenId; // id of the auction token \n        uint256 bidIncrement; // the minimum bid increment\n        bool ended;\n\n        uint256 highestBid; // the current highest bid amount\n        mapping(address => BidItem[]) bids; // the auction bids\n        address highestBidder; // the account with the current highest bid\n\n        uint256 startTime; // the time the auction started\n        uint256 endTime; // the time the auction ended\n    }\n\n    struct BidItem {\n        uint256 amount; // bid price in wei\n        uint256 timestamp; // timestamp of bid\n    }\n\n    mapping(uint256 => Auction) public auctions;\n\n    ContinentToken public continentTokenContract;\n\n    event BidPlaced(address indexed bidder, uint256 tokenId, uint256 amount);\n    event AuctionEnded(address indexed winner, uint256 tokenId, uint256 amount);\n    event AuctionStarted(uint256 indexed tokenId, uint256 startTime, uint256 endTime);\n\n    constructor(address _continentToken) {\n        continentTokenContract = ContinentToken(_continentToken);\n    }\n\n    function createAuction(uint256 _tokenId, uint256 _startPrice, uint256 _bidIncrement, uint256 _startTime, uint256 _endTime) public onlyOwner {\n\n        require(continentTokenContract.ownerOf(_tokenId) == address(continentTokenContract), \"Continent not in contract\");\n        require(auctions[_tokenId].endTime == 0, \"Auction already exists\");\n        require(_startTime < _endTime, \"Invalid start and end time\");\n        require(_endTime > block.timestamp, \"End time must be in the future\");\n\n        auctions[_tokenId].tokenId = _tokenId;\n        auctions[_tokenId].bidIncrement = _bidIncrement;\n        auctions[_tokenId].ended = false;\n        auctions[_tokenId].highestBid = _startPrice;\n        auctions[_tokenId].highestBidder = address(0);\n        auctions[_tokenId].startTime = _startTime;\n        auctions[_tokenId].endTime = _endTime;\n\n        emit AuctionStarted(_tokenId, _startTime, _endTime);\n    }\n\n    function getAuction(uint256 _tokenId) public view returns (uint256, uint256, uint256, uint256, uint256, bool, address) {\n        return (_tokenId, auctions[_tokenId].bidIncrement, auctions[_tokenId].highestBid, auctions[_tokenId].startTime, auctions[_tokenId].endTime, auctions[_tokenId].ended, auctions[_tokenId].highestBidder);\n    }\n\n    function endAuction(uint256 _tokenId) public onlyOwner {\n        require(auctions[_tokenId].endTime > 0, \"Auction not started\");\n        require(block.timestamp >= auctions[_tokenId].endTime, \"Auction not ended yet\");\n\n        auctions[_tokenId].ended = true;\n        emit AuctionEnded(auctions[_tokenId].highestBidder, _tokenId, auctions[_tokenId].highestBid);\n\n        continentTokenContract.transferTokenFromContract(_tokenId, auctions[_tokenId].highestBidder);\n    }   \n\n    function placeBid(uint256 _tokenId) public payable {\n\n        require(auctions[_tokenId].endTime > 0, \"Auction not started\");\n        require(block.timestamp < auctions[_tokenId].endTime, \"Auction ended\");\n        require(continentTokenContract.balanceOf(msg.sender) < MAX_PURCHASE_PER_WALLET, \"Bidder already owns a continent\");\n\n        uint256 nextMinimumBid = auctions[_tokenId].highestBid + auctions[_tokenId].bidIncrement;\n        require(msg.value >= nextMinimumBid, \"Bid must be higher than current bid by at least the bid increment\");\n\n        // Refund the previous highest bid\n        if (auctions[_tokenId].highestBidder != address(0)) {\n            address payable previousBidder = payable(auctions[_tokenId].highestBidder);\n            previousBidder.sendValue(auctions[_tokenId].highestBid);\n        }\n\n        auctions[_tokenId].highestBid = msg.value;\n        auctions[_tokenId].highestBidder = msg.sender;\n\n        auctions[_tokenId].bids[msg.sender].push(BidItem({\n            amount: msg.value,\n            timestamp: block.timestamp\n        }));\n\n        emit BidPlaced(msg.sender, _tokenId, msg.value);\n    }\n\n    function getBids(uint256 _tokenId) public view returns (BidItem[] memory) {\n         BidItem[] memory bids = auctions[_tokenId].bids[msg.sender];\n        return bids;\n    }\n\n    function withdraw() public onlyOwner {\n        payable(owner()).sendValue(address(this).balance);\n    }\n\n}",
  "sourcePath": "/Users/timicodes/Code/world-nft/contracts/ContinentAuction.sol",
  "compiler": {
    "name": "solc",
    "version": "0.8.13+commit.abaa5c0e.Emscripten.clang"
  },
  "schemaVersion": "3.4.16",
  "updatedAt": "2024-05-11T20:48:09.942Z",
  "networkType": "ethereum",
  "devdoc": {
    "kind": "dev",
    "methods": {
      "owner()": {
        "details": "Returns the address of the current owner."
      },
      "renounceOwnership()": {
        "details": "Leaves the contract without owner. It will not be possible to call `onlyOwner` functions. Can only be called by the current owner. NOTE: Renouncing ownership will leave the contract without an owner, thereby disabling any functionality that is only available to the owner."
      },
      "transferOwnership(address)": {
        "details": "Transfers ownership of the contract to a new account (`newOwner`). Can only be called by the current owner."
      }
    },
    "version": 1
  },
  "userdoc": {
    "kind": "user",
    "methods": {},
    "version": 1
  }
}