{
  "contractName": "ContinentToken",
  "abi": [
    {
      "inputs": [
        {
          "internalType": "string",
          "name": "name",
          "type": "string"
        },
        {
          "internalType": "string",
          "name": "symbol",
          "type": "string"
        },
        {
          "internalType": "string",
          "name": "_baseTokenURI",
          "type": "string"
        }
      ],
      "stateMutability": "nonpayable",
      "type": "constructor"
    },
    {
      "anonymous": false,
      "inputs": [
        {
          "indexed": true,
          "internalType": "address",
          "name": "owner",
          "type": "address"
        },
        {
          "indexed": true,
          "internalType": "address",
          "name": "approved",
          "type": "address"
        },
        {
          "indexed": true,
          "internalType": "uint256",
          "name": "tokenId",
          "type": "uint256"
        }
      ],
      "name": "Approval",
      "type": "event"
    },
    {
      "anonymous": false,
      "inputs": [
        {
          "indexed": true,
          "internalType": "address",
          "name": "owner",
          "type": "address"
        },
        {
          "indexed": true,
          "internalType": "address",
          "name": "operator",
          "type": "address"
        },
        {
          "indexed": false,
          "internalType": "bool",
          "name": "approved",
          "type": "bool"
        }
      ],
      "name": "ApprovalForAll",
      "type": "event"
    },
    {
      "anonymous": false,
      "inputs": [
        {
          "indexed": true,
          "internalType": "uint256",
          "name": "tokenId",
          "type": "uint256"
        },
        {
          "indexed": true,
          "internalType": "address",
          "name": "citizen",
          "type": "address"
        }
      ],
      "name": "CitizenshipPurchased",
      "type": "event"
    },
    {
      "anonymous": false,
      "inputs": [
        {
          "indexed": true,
          "internalType": "uint256",
          "name": "tokenId",
          "type": "uint256"
        },
        {
          "indexed": false,
          "internalType": "string",
          "name": "name",
          "type": "string"
        },
        {
          "indexed": false,
          "internalType": "string",
          "name": "metadataURI",
          "type": "string"
        }
      ],
      "name": "ContinentCreated",
      "type": "event"
    },
    {
      "anonymous": false,
      "inputs": [
        {
          "indexed": true,
          "internalType": "address",
          "name": "from",
          "type": "address"
        },
        {
          "indexed": true,
          "internalType": "address",
          "name": "to",
          "type": "address"
        },
        {
          "indexed": true,
          "internalType": "uint256",
          "name": "tokenId",
          "type": "uint256"
        }
      ],
      "name": "ContinentTransfered",
      "type": "event"
    },
    {
      "anonymous": false,
      "inputs": [
        {
          "indexed": true,
          "internalType": "address",
          "name": "previousOwner",
          "type": "address"
        },
        {
          "indexed": true,
          "internalType": "address",
          "name": "newOwner",
          "type": "address"
        }
      ],
      "name": "OwnershipTransferred",
      "type": "event"
    },
    {
      "anonymous": false,
      "inputs": [
        {
          "indexed": true,
          "internalType": "address",
          "name": "from",
          "type": "address"
        },
        {
          "indexed": true,
          "internalType": "address",
          "name": "to",
          "type": "address"
        },
        {
          "indexed": true,
          "internalType": "uint256",
          "name": "tokenId",
          "type": "uint256"
        }
      ],
      "name": "Transfer",
      "type": "event"
    },
    {
      "inputs": [],
      "name": "MAX_SUPPLY",
      "outputs": [
        {
          "internalType": "uint256",
          "name": "",
          "type": "uint256"
        }
      ],
      "stateMutability": "view",
      "type": "function",
      "constant": true
    },
    {
      "inputs": [
        {
          "internalType": "address",
          "name": "to",
          "type": "address"
        },
        {
          "internalType": "uint256",
          "name": "tokenId",
          "type": "uint256"
        }
      ],
      "name": "approve",
      "outputs": [],
      "stateMutability": "nonpayable",
      "type": "function"
    },
    {
      "inputs": [
        {
          "internalType": "address",
          "name": "owner",
          "type": "address"
        }
      ],
      "name": "balanceOf",
      "outputs": [
        {
          "internalType": "uint256",
          "name": "",
          "type": "uint256"
        }
      ],
      "stateMutability": "view",
      "type": "function",
      "constant": true
    },
    {
      "inputs": [],
      "name": "baseTokenURI",
      "outputs": [
        {
          "internalType": "string",
          "name": "",
          "type": "string"
        }
      ],
      "stateMutability": "view",
      "type": "function",
      "constant": true
    },
    {
      "inputs": [
        {
          "internalType": "uint256",
          "name": "",
          "type": "uint256"
        }
      ],
      "name": "continents",
      "outputs": [
        {
          "internalType": "string",
          "name": "name",
          "type": "string"
        },
        {
          "internalType": "string",
          "name": "metadataURI",
          "type": "string"
        },
        {
          "internalType": "address",
          "name": "owner",
          "type": "address"
        },
        {
          "internalType": "uint256",
          "name": "citizenTax",
          "type": "uint256"
        }
      ],
      "stateMutability": "view",
      "type": "function",
      "constant": true
    },
    {
      "inputs": [
        {
          "internalType": "uint256",
          "name": "tokenId",
          "type": "uint256"
        }
      ],
      "name": "getApproved",
      "outputs": [
        {
          "internalType": "address",
          "name": "",
          "type": "address"
        }
      ],
      "stateMutability": "view",
      "type": "function",
      "constant": true
    },
    {
      "inputs": [
        {
          "internalType": "address",
          "name": "owner",
          "type": "address"
        },
        {
          "internalType": "address",
          "name": "operator",
          "type": "address"
        }
      ],
      "name": "isApprovedForAll",
      "outputs": [
        {
          "internalType": "bool",
          "name": "",
          "type": "bool"
        }
      ],
      "stateMutability": "view",
      "type": "function",
      "constant": true
    },
    {
      "inputs": [],
      "name": "name",
      "outputs": [
        {
          "internalType": "string",
          "name": "",
          "type": "string"
        }
      ],
      "stateMutability": "view",
      "type": "function",
      "constant": true
    },
    {
      "inputs": [],
      "name": "owner",
      "outputs": [
        {
          "internalType": "address",
          "name": "",
          "type": "address"
        }
      ],
      "stateMutability": "view",
      "type": "function",
      "constant": true
    },
    {
      "inputs": [
        {
          "internalType": "uint256",
          "name": "tokenId",
          "type": "uint256"
        }
      ],
      "name": "ownerOf",
      "outputs": [
        {
          "internalType": "address",
          "name": "",
          "type": "address"
        }
      ],
      "stateMutability": "view",
      "type": "function",
      "constant": true
    },
    {
      "inputs": [],
      "name": "renounceOwnership",
      "outputs": [],
      "stateMutability": "nonpayable",
      "type": "function"
    },
    {
      "inputs": [
        {
          "internalType": "address",
          "name": "from",
          "type": "address"
        },
        {
          "internalType": "address",
          "name": "to",
          "type": "address"
        },
        {
          "internalType": "uint256",
          "name": "tokenId",
          "type": "uint256"
        }
      ],
      "name": "safeTransferFrom",
      "outputs": [],
      "stateMutability": "nonpayable",
      "type": "function"
    },
    {
      "inputs": [
        {
          "internalType": "address",
          "name": "from",
          "type": "address"
        },
        {
          "internalType": "address",
          "name": "to",
          "type": "address"
        },
        {
          "internalType": "uint256",
          "name": "tokenId",
          "type": "uint256"
        },
        {
          "internalType": "bytes",
          "name": "_data",
          "type": "bytes"
        }
      ],
      "name": "safeTransferFrom",
      "outputs": [],
      "stateMutability": "nonpayable",
      "type": "function"
    },
    {
      "inputs": [
        {
          "internalType": "address",
          "name": "operator",
          "type": "address"
        },
        {
          "internalType": "bool",
          "name": "approved",
          "type": "bool"
        }
      ],
      "name": "setApprovalForAll",
      "outputs": [],
      "stateMutability": "nonpayable",
      "type": "function"
    },
    {
      "inputs": [
        {
          "internalType": "bytes4",
          "name": "interfaceId",
          "type": "bytes4"
        }
      ],
      "name": "supportsInterface",
      "outputs": [
        {
          "internalType": "bool",
          "name": "",
          "type": "bool"
        }
      ],
      "stateMutability": "view",
      "type": "function",
      "constant": true
    },
    {
      "inputs": [],
      "name": "symbol",
      "outputs": [
        {
          "internalType": "string",
          "name": "",
          "type": "string"
        }
      ],
      "stateMutability": "view",
      "type": "function",
      "constant": true
    },
    {
      "inputs": [],
      "name": "teamFee",
      "outputs": [
        {
          "internalType": "uint256",
          "name": "",
          "type": "uint256"
        }
      ],
      "stateMutability": "view",
      "type": "function",
      "constant": true
    },
    {
      "inputs": [
        {
          "internalType": "uint256",
          "name": "index",
          "type": "uint256"
        }
      ],
      "name": "tokenByIndex",
      "outputs": [
        {
          "internalType": "uint256",
          "name": "",
          "type": "uint256"
        }
      ],
      "stateMutability": "view",
      "type": "function",
      "constant": true
    },
    {
      "inputs": [
        {
          "internalType": "address",
          "name": "owner",
          "type": "address"
        },
        {
          "internalType": "uint256",
          "name": "index",
          "type": "uint256"
        }
      ],
      "name": "tokenOfOwnerByIndex",
      "outputs": [
        {
          "internalType": "uint256",
          "name": "",
          "type": "uint256"
        }
      ],
      "stateMutability": "view",
      "type": "function",
      "constant": true
    },
    {
      "inputs": [
        {
          "internalType": "uint256",
          "name": "tokenId",
          "type": "uint256"
        }
      ],
      "name": "tokenURI",
      "outputs": [
        {
          "internalType": "string",
          "name": "",
          "type": "string"
        }
      ],
      "stateMutability": "view",
      "type": "function",
      "constant": true
    },
    {
      "inputs": [],
      "name": "totalSupply",
      "outputs": [
        {
          "internalType": "uint256",
          "name": "",
          "type": "uint256"
        }
      ],
      "stateMutability": "view",
      "type": "function",
      "constant": true
    },
    {
      "inputs": [
        {
          "internalType": "address",
          "name": "from",
          "type": "address"
        },
        {
          "internalType": "address",
          "name": "to",
          "type": "address"
        },
        {
          "internalType": "uint256",
          "name": "tokenId",
          "type": "uint256"
        }
      ],
      "name": "transferFrom",
      "outputs": [],
      "stateMutability": "nonpayable",
      "type": "function"
    },
    {
      "inputs": [
        {
          "internalType": "address",
          "name": "newOwner",
          "type": "address"
        }
      ],
      "name": "transferOwnership",
      "outputs": [],
      "stateMutability": "nonpayable",
      "type": "function"
    },
    {
      "inputs": [
        {
          "internalType": "uint256",
          "name": "_tokenId",
          "type": "uint256"
        },
        {
          "internalType": "address",
          "name": "_to",
          "type": "address"
        }
      ],
      "name": "transferContinent",
      "outputs": [],
      "stateMutability": "payable",
      "type": "function",
      "payable": true
    },
    {
      "inputs": [],
      "name": "getAllContinents",
      "outputs": [
        {
          "internalType": "uint256[]",
          "name": "",
          "type": "uint256[]"
        },
        {
          "internalType": "string[]",
          "name": "",
          "type": "string[]"
        },
        {
          "internalType": "string[]",
          "name": "",
          "type": "string[]"
        },
        {
          "internalType": "address[]",
          "name": "",
          "type": "address[]"
        },
        {
          "internalType": "uint256[]",
          "name": "",
          "type": "uint256[]"
        }
      ],
      "stateMutability": "view",
      "type": "function",
      "constant": true
    },
    {
      "inputs": [
        {
          "internalType": "uint256",
          "name": "_tokenId",
          "type": "uint256"
        }
      ],
      "name": "getContinentOwner",
      "outputs": [
        {
          "internalType": "address",
          "name": "",
          "type": "address"
        }
      ],
      "stateMutability": "view",
      "type": "function",
      "constant": true
    },
    {
      "inputs": [
        {
          "internalType": "uint256",
          "name": "_tokenId",
          "type": "uint256"
        }
      ],
      "name": "buyCitizenship",
      "outputs": [],
      "stateMutability": "payable",
      "type": "function",
      "payable": true
    },
    {
      "inputs": [
        {
          "internalType": "uint256",
          "name": "_tokenId",
          "type": "uint256"
        },
        {
          "internalType": "uint256",
          "name": "_citizenTax",
          "type": "uint256"
        }
      ],
      "name": "setCitizenTax",
      "outputs": [],
      "stateMutability": "nonpayable",
      "type": "function"
    },
    {
      "inputs": [
        {
          "internalType": "uint256",
          "name": "_tokenId",
          "type": "uint256"
        }
      ],
      "name": "getCitizens",
      "outputs": [
        {
          "internalType": "address[]",
          "name": "",
          "type": "address[]"
        }
      ],
      "stateMutability": "view",
      "type": "function",
      "constant": true
    },
    {
      "inputs": [
        {
          "internalType": "uint256",
          "name": "_newTeamFee",
          "type": "uint256"
        }
      ],
      "name": "setTeamFee",
      "outputs": [],
      "stateMutability": "nonpayable",
      "type": "function"
    },
    {
      "inputs": [
        {
          "internalType": "string",
          "name": "_baseTokenURI",
          "type": "string"
        }
      ],
      "name": "setBaseURI",
      "outputs": [],
      "stateMutability": "nonpayable",
      "type": "function"
    },
    {
      "inputs": [],
      "name": "withdraw",
      "outputs": [],
      "stateMutability": "nonpayable",
      "type": "function"
    }
  ],
  "bytecode": "0x6080604052662386f26fc10000600c553480156200001c57600080fd5b50604051620067d3380380620067d3833981810160405281019062000042919062001366565b828281600090805190602001906200005c9291906200108a565b508060019080519060200190620000759291906200108a565b505050620000986200008c620000ca60201b60201c565b620000d260201b60201c565b80600d9080519060200190620000b09291906200108a565b50620000c16200019860201b60201c565b50505062001a66565b600033905090565b6000600a60009054906101000a900473ffffffffffffffffffffffffffffffffffffffff16905081600a60006101000a81548173ffffffffffffffffffffffffffffffffffffffff021916908373ffffffffffffffffffffffffffffffffffffffff1602179055508173ffffffffffffffffffffffffffffffffffffffff168173ffffffffffffffffffffffffffffffffffffffff167f8be0079c531659141344cd1fd0a4f28419497f9722a3daafe3b4186f6b6457e060405160405180910390a35050565b620001f86040518060400160405280600681526020017f4166726963610000000000000000000000000000000000000000000000000000815250604051806060016040528060358152602001620066ca603591396200043a60201b60201c565b620002586040518060400160405280600481526020017f4173696100000000000000000000000000000000000000000000000000000000815250604051806060016040528060358152602001620066ff603591396200043a60201b60201c565b620002b86040518060400160405280600681526020017f4575726f7065000000000000000000000000000000000000000000000000000081525060405180606001604052806035815260200162006695603591396200043a60201b60201c565b620003186040518060400160405280600d81526020017f4e6f72746820416d6572696361000000000000000000000000000000000000008152506040518060600160405280603581526020016200679e603591396200043a60201b60201c565b620003786040518060400160405280600d81526020017f536f75746820416d65726963610000000000000000000000000000000000000081525060405180606001604052806035815260200162006734603591396200043a60201b60201c565b620003d86040518060400160405280600981526020017f4175737472616c6961000000000000000000000000000000000000000000000081525060405180606001604052806035815260200162006769603591396200043a60201b60201c565b620004386040518060400160405280600a81526020017f416e74617263746963610000000000000000000000000000000000000000000081525060405180606001604052806035815260200162006660603591396200043a60201b60201c565b565b600762000453600b6200066a60201b62001f171760201c565b1062000496576040517f08c379a00000000000000000000000000000000000000000000000000000000081526004016200048d9062001480565b60405180910390fd5b620004ad600b6200067860201b62001f251760201c565b6000620004c6600b6200066a60201b62001f171760201c565b9050620004da30826200068e60201b60201c565b6040518060a001604052808481526020018381526020013073ffffffffffffffffffffffffffffffffffffffff168152602001600067ffffffffffffffff8111156200052b576200052a620011f8565b5b6040519080825280602002602001820160405280156200055a5781602001602082028036833780820191505090505b5081526020016000815250600e60008381526020019081526020016000206000820151816000019080519060200190620005969291906200108a565b506020820151816001019080519060200190620005b59291906200108a565b5060408201518160020160006101000a81548173ffffffffffffffffffffffffffffffffffffffff021916908373ffffffffffffffffffffffffffffffffffffffff16021790555060608201518160030190805190602001906200061b9291906200111b565b5060808201518160040155905050807feb473ad5d3af7aaf9ec33ecb1da329bda7bb666471bcc190c076fbf0c16b4e4084846040516200065d929190620014ee565b60405180910390a2505050565b600081600001549050919050565b6001816000016000828254019250508190555050565b620006b0828260405180602001604052806000815250620006b460201b60201c565b5050565b620006c683836200072260201b60201c565b620006db60008484846200091b60201b60201c565b6200071d576040517f08c379a000000000000000000000000000000000000000000000000000000000815260040162000714906200159f565b60405180910390fd5b505050565b600073ffffffffffffffffffffffffffffffffffffffff168273ffffffffffffffffffffffffffffffffffffffff160362000794576040517f08c379a00000000000000000000000000000000000000000000000000000000081526004016200078b9062001611565b60405180910390fd5b620007a58162000ac460201b60201c565b15620007e8576040517f08c379a0000000000000000000000000000000000000000000000000000000008152600401620007df9062001683565b60405180910390fd5b620007fc6000838362000b3060201b60201c565b6001600360008473ffffffffffffffffffffffffffffffffffffffff1673ffffffffffffffffffffffffffffffffffffffff16815260200190815260200160002060008282546200084e9190620016de565b92505081905550816002600083815260200190815260200160002060006101000a81548173ffffffffffffffffffffffffffffffffffffffff021916908373ffffffffffffffffffffffffffffffffffffffff160217905550808273ffffffffffffffffffffffffffffffffffffffff16600073ffffffffffffffffffffffffffffffffffffffff167fddf252ad1be2c89b69c2b068fc378daa952ba7f163c4a11628f55a4df523b3ef60405160405180910390a4620009176000838362000c7560201b60201c565b5050565b6000620009498473ffffffffffffffffffffffffffffffffffffffff1662000c7a60201b62001f3b1760201c565b1562000ab7578373ffffffffffffffffffffffffffffffffffffffff1663150b7a026200097b620000ca60201b60201c565b8786866040518563ffffffff1660e01b81526004016200099f9493929190620017ee565b6020604051808303816000875af1925050508015620009de57506040513d601f19601f82011682018060405250810190620009db91906200189f565b60015b62000a66573d806000811462000a11576040519150601f19603f3d011682016040523d82523d6000602084013e62000a16565b606091505b50600081510362000a5e576040517f08c379a000000000000000000000000000000000000000000000000000000000815260040162000a55906200159f565b60405180910390fd5b805181602001fd5b63150b7a0260e01b7bffffffffffffffffffffffffffffffffffffffffffffffffffffffff1916817bffffffffffffffffffffffffffffffffffffffffffffffffffffffff19161491505062000abc565b600190505b949350505050565b60008073ffffffffffffffffffffffffffffffffffffffff166002600084815260200190815260200160002060009054906101000a900473ffffffffffffffffffffffffffffffffffffffff1673ffffffffffffffffffffffffffffffffffffffff1614159050919050565b62000b4883838362000c9d60201b62001f5e1760201c565b600073ffffffffffffffffffffffffffffffffffffffff168373ffffffffffffffffffffffffffffffffffffffff160362000b945762000b8e8162000ca260201b60201c565b62000bdc565b8173ffffffffffffffffffffffffffffffffffffffff168373ffffffffffffffffffffffffffffffffffffffff161462000bdb5762000bda838262000ceb60201b60201c565b5b5b600073ffffffffffffffffffffffffffffffffffffffff168273ffffffffffffffffffffffffffffffffffffffff160362000c285762000c228162000e6860201b60201c565b62000c70565b8273ffffffffffffffffffffffffffffffffffffffff168273ffffffffffffffffffffffffffffffffffffffff161462000c6f5762000c6e828262000f4460201b60201c565b5b5b505050565b505050565b6000808273ffffffffffffffffffffffffffffffffffffffff163b119050919050565b505050565b6008805490506009600083815260200190815260200160002081905550600881908060018154018082558091505060019003906000526020600020016000909190919091505550565b6000600162000d058462000fd060201b620019581760201c565b62000d119190620018d1565b905060006007600084815260200190815260200160002054905081811462000df7576000600660008673ffffffffffffffffffffffffffffffffffffffff1673ffffffffffffffffffffffffffffffffffffffff168152602001908152602001600020600084815260200190815260200160002054905080600660008773ffffffffffffffffffffffffffffffffffffffff1673ffffffffffffffffffffffffffffffffffffffff168152602001908152602001600020600084815260200190815260200160002081905550816007600083815260200190815260200160002081905550505b6007600084815260200190815260200160002060009055600660008573ffffffffffffffffffffffffffffffffffffffff1673ffffffffffffffffffffffffffffffffffffffff16815260200190815260200160002060008381526020019081526020016000206000905550505050565b6000600160088054905062000e7e9190620018d1565b905060006009600084815260200190815260200160002054905060006008838154811062000eb15762000eb06200190c565b5b90600052602060002001549050806008838154811062000ed65762000ed56200190c565b5b90600052602060002001819055508160096000838152602001908152602001600020819055506009600085815260200190815260200160002060009055600880548062000f285762000f276200193b565b5b6001900381819060005260206000200160009055905550505050565b600062000f5c8362000fd060201b620019581760201c565b905081600660008573ffffffffffffffffffffffffffffffffffffffff1673ffffffffffffffffffffffffffffffffffffffff168152602001908152602001600020600083815260200190815260200160002081905550806007600084815260200190815260200160002081905550505050565b60008073ffffffffffffffffffffffffffffffffffffffff168273ffffffffffffffffffffffffffffffffffffffff160362001043576040517f08c379a00000000000000000000000000000000000000000000000000000000081526004016200103a90620019e0565b60405180910390fd5b600360008373ffffffffffffffffffffffffffffffffffffffff1673ffffffffffffffffffffffffffffffffffffffff168152602001908152602001600020549050919050565b828054620010989062001a31565b90600052602060002090601f016020900481019282620010bc576000855562001108565b82601f10620010d757805160ff191683800117855562001108565b8280016001018555821562001108579182015b8281111562001107578251825591602001919060010190620010ea565b5b509050620011179190620011aa565b5090565b82805482825590600052602060002090810192821562001197579160200282015b82811115620011965782518260006101000a81548173ffffffffffffffffffffffffffffffffffffffff021916908373ffffffffffffffffffffffffffffffffffffffff160217905550916020019190600101906200113c565b5b509050620011a69190620011aa565b5090565b5b80821115620011c5576000816000905550600101620011ab565b5090565b6000604051905090565b600080fd5b600080fd5b600080fd5b600080fd5b6000601f19601f8301169050919050565b7f4e487b7100000000000000000000000000000000000000000000000000000000600052604160045260246000fd5b6200123282620011e7565b810181811067ffffffffffffffff82111715620012545762001253620011f8565b5b80604052505050565b600062001269620011c9565b905062001277828262001227565b919050565b600067ffffffffffffffff8211156200129a5762001299620011f8565b5b620012a582620011e7565b9050602081019050919050565b60005b83811015620012d2578082015181840152602081019050620012b5565b83811115620012e2576000848401525b50505050565b6000620012ff620012f9846200127c565b6200125d565b9050828152602081018484840111156200131e576200131d620011e2565b5b6200132b848285620012b2565b509392505050565b600082601f8301126200134b576200134a620011dd565b5b81516200135d848260208601620012e8565b91505092915050565b600080600060608486031215620013825762001381620011d3565b5b600084015167ffffffffffffffff811115620013a357620013a2620011d8565b5b620013b18682870162001333565b935050602084015167ffffffffffffffff811115620013d557620013d4620011d8565b5b620013e38682870162001333565b925050604084015167ffffffffffffffff811115620014075762001406620011d8565b5b620014158682870162001333565b9150509250925092565b600082825260208201905092915050565b7f4d617820737570706c7920726561636865640000000000000000000000000000600082015250565b6000620014686012836200141f565b9150620014758262001430565b602082019050919050565b600060208201905081810360008301526200149b8162001459565b9050919050565b600081519050919050565b6000620014ba82620014a2565b620014c681856200141f565b9350620014d8818560208601620012b2565b620014e381620011e7565b840191505092915050565b600060408201905081810360008301526200150a8185620014ad565b90508181036020830152620015208184620014ad565b90509392505050565b7f4552433732313a207472616e7366657220746f206e6f6e20455243373231526560008201527f63656976657220696d706c656d656e7465720000000000000000000000000000602082015250565b6000620015876032836200141f565b9150620015948262001529565b604082019050919050565b60006020820190508181036000830152620015ba8162001578565b9050919050565b7f4552433732313a206d696e7420746f20746865207a65726f2061646472657373600082015250565b6000620015f96020836200141f565b91506200160682620015c1565b602082019050919050565b600060208201905081810360008301526200162c81620015ea565b9050919050565b7f4552433732313a20746f6b656e20616c7265616479206d696e74656400000000600082015250565b60006200166b601c836200141f565b9150620016788262001633565b602082019050919050565b600060208201905081810360008301526200169e816200165c565b9050919050565b6000819050919050565b7f4e487b7100000000000000000000000000000000000000000000000000000000600052601160045260246000fd5b6000620016eb82620016a5565b9150620016f883620016a5565b9250827fffffffffffffffffffffffffffffffffffffffffffffffffffffffffffffffff0382111562001730576200172f620016af565b5b828201905092915050565b600073ffffffffffffffffffffffffffffffffffffffff82169050919050565b600062001768826200173b565b9050919050565b6200177a816200175b565b82525050565b6200178b81620016a5565b82525050565b600081519050919050565b600082825260208201905092915050565b6000620017ba8262001791565b620017c681856200179c565b9350620017d8818560208601620012b2565b620017e381620011e7565b840191505092915050565b60006080820190506200180560008301876200176f565b6200181460208301866200176f565b62001823604083018562001780565b8181036060830152620018378184620017ad565b905095945050505050565b60007fffffffff0000000000000000000000000000000000000000000000000000000082169050919050565b620018798162001842565b81146200188557600080fd5b50565b60008151905062001899816200186e565b92915050565b600060208284031215620018b857620018b7620011d3565b5b6000620018c88482850162001888565b91505092915050565b6000620018de82620016a5565b9150620018eb83620016a5565b925082821015620019015762001900620016af565b5b828203905092915050565b7f4e487b7100000000000000000000000000000000000000000000000000000000600052603260045260246000fd5b7f4e487b7100000000000000000000000000000000000000000000000000000000600052603160045260246000fd5b7f4552433732313a2062616c616e636520717565727920666f7220746865207a6560008201527f726f206164647265737300000000000000000000000000000000000000000000602082015250565b6000620019c8602a836200141f565b9150620019d5826200196a565b604082019050919050565b60006020820190508181036000830152620019fb81620019b9565b9050919050565b7f4e487b7100000000000000000000000000000000000000000000000000000000600052602260045260246000fd5b6000600282049050600182168062001a4a57607f821691505b60208210810362001a605762001a5f62001a02565b5b50919050565b614bea8062001a766000396000f3fe6080604052600436106101e35760003560e01c806343c9d4dc11610102578063a22cb46511610095578063d7c94efd11610064578063d7c94efd14610703578063e6ec64ec1461072e578063e985e9c514610757578063f2fde38b14610794576101e3565b8063a22cb46514610649578063b88d4fde14610672578063c87b56dd1461069b578063d547cfb7146106d8576101e3565b806370a08231116100d157806370a082311461059f578063715018a6146105dc5780638da5cb5b146105f357806395d89b411461061e576101e3565b806343c9d4dc146104bc5780634f6ccce7146104fc57806355f804b3146105395780636352211e14610562576101e3565b80632ed4af351161017a57806332cb6b0c1161014957806332cb6b0c146104355780633b5165e8146104605780633ccfd60b1461047c57806342842e0e14610493576101e3565b80632ed4af35146103765780632f745c5914610392578063325ab43e146103cf578063328a6ac4146103f8576101e3565b806308c16ad2116101b657806308c16ad2146102ca578063095ea7b3146102f957806318160ddd1461032257806323b872dd1461034d576101e3565b806301ffc9a7146101e85780630452338e1461022557806306fdde0314610262578063081812fc1461028d575b600080fd5b3480156101f457600080fd5b5061020f600480360381019061020a9190613147565b6107bd565b60405161021c919061318f565b60405180910390f35b34801561023157600080fd5b5061024c600480360381019061024791906131e0565b610837565b604051610259919061324e565b60405180910390f35b34801561026e57600080fd5b50610277610849565b6040516102849190613302565b60405180910390f35b34801561029957600080fd5b506102b460048036038101906102af91906131e0565b6108db565b6040516102c1919061324e565b60405180910390f35b3480156102d657600080fd5b506102df610960565b6040516102f09594939291906135ac565b60405180910390f35b34801561030557600080fd5b50610320600480360381019061031b919061364e565b610dfe565b005b34801561032e57600080fd5b50610337610f15565b604051610344919061369d565b60405180910390f35b34801561035957600080fd5b50610374600480360381019061036f91906136b8565b610f22565b005b610390600480360381019061038b91906131e0565b610f82565b005b34801561039e57600080fd5b506103b960048036038101906103b4919061364e565b6111b7565b6040516103c6919061369d565b60405180910390f35b3480156103db57600080fd5b506103f660048036038101906103f1919061370b565b61125c565b005b34801561040457600080fd5b5061041f600480360381019061041a91906131e0565b6112f1565b60405161042c919061374b565b60405180910390f35b34801561044157600080fd5b5061044a611395565b604051610457919061369d565b60405180910390f35b61047a6004803603810190610475919061376d565b61139a565b005b34801561048857600080fd5b50610491611572565b005b34801561049f57600080fd5b506104ba60048036038101906104b591906136b8565b611620565b005b3480156104c857600080fd5b506104e360048036038101906104de91906131e0565b611640565b6040516104f394939291906137ad565b60405180910390f35b34801561050857600080fd5b50610523600480360381019061051e91906131e0565b6117a0565b604051610530919061369d565b60405180910390f35b34801561054557600080fd5b50610560600480360381019061055b9190613935565b611811565b005b34801561056e57600080fd5b50610589600480360381019061058491906131e0565b6118a7565b604051610596919061324e565b60405180910390f35b3480156105ab57600080fd5b506105c660048036038101906105c1919061397e565b611958565b6040516105d3919061369d565b60405180910390f35b3480156105e857600080fd5b506105f1611a0f565b005b3480156105ff57600080fd5b50610608611a97565b604051610615919061324e565b60405180910390f35b34801561062a57600080fd5b50610633611ac1565b6040516106409190613302565b60405180910390f35b34801561065557600080fd5b50610670600480360381019061066b91906139d7565b611b53565b005b34801561067e57600080fd5b5061069960048036038101906106949190613ab8565b611b69565b005b3480156106a757600080fd5b506106c260048036038101906106bd91906131e0565b611bcb565b6040516106cf9190613302565b60405180910390f35b3480156106e457600080fd5b506106ed611c72565b6040516106fa9190613302565b60405180910390f35b34801561070f57600080fd5b50610718611d00565b604051610725919061369d565b60405180910390f35b34801561073a57600080fd5b50610755600480360381019061075091906131e0565b611d06565b005b34801561076357600080fd5b5061077e60048036038101906107799190613b3b565b611d8c565b60405161078b919061318f565b60405180910390f35b3480156107a057600080fd5b506107bb60048036038101906107b6919061397e565b611e20565b005b60007f780e9d63000000000000000000000000000000000000000000000000000000007bffffffffffffffffffffffffffffffffffffffffffffffffffffffff1916827bffffffffffffffffffffffffffffffffffffffffffffffffffffffff19161480610830575061082f82611f63565b5b9050919050565b6000610842826118a7565b9050919050565b60606000805461085890613baa565b80601f016020809104026020016040519081016040528092919081815260200182805461088490613baa565b80156108d15780601f106108a6576101008083540402835291602001916108d1565b820191906000526020600020905b8154815290600101906020018083116108b457829003601f168201915b5050505050905090565b60006108e682612045565b610925576040517f08c379a000000000000000000000000000000000000000000000000000000000815260040161091c90613c4d565b60405180910390fd5b6004600083815260200190815260200160002060009054906101000a900473ffffffffffffffffffffffffffffffffffffffff169050919050565b60608060608060606000610972610f15565b905060008167ffffffffffffffff8111156109905761098f61380a565b5b6040519080825280602002602001820160405280156109be5781602001602082028036833780820191505090505b50905060008267ffffffffffffffff8111156109dd576109dc61380a565b5b604051908082528060200260200182016040528015610a1057816020015b60608152602001906001900390816109fb5790505b50905060008367ffffffffffffffff811115610a2f57610a2e61380a565b5b604051908082528060200260200182016040528015610a6257816020015b6060815260200190600190039081610a4d5790505b50905060008467ffffffffffffffff811115610a8157610a8061380a565b5b604051908082528060200260200182016040528015610aaf5781602001602082028036833780820191505090505b50905060008567ffffffffffffffff811115610ace57610acd61380a565b5b604051908082528060200260200182016040528015610afc5781602001602082028036833780820191505090505b50905060005b86811015610de157610b13816117a0565b868281518110610b2657610b25613c6d565b5b602002602001018181525050600e6000878381518110610b4957610b48613c6d565b5b602002602001015181526020019081526020016000206000018054610b6d90613baa565b80601f0160208091040260200160405190810160405280929190818152602001828054610b9990613baa565b8015610be65780601f10610bbb57610100808354040283529160200191610be6565b820191906000526020600020905b815481529060010190602001808311610bc957829003601f168201915b5050505050858281518110610bfe57610bfd613c6d565b5b6020026020010181905250600e6000878381518110610c2057610c1f613c6d565b5b602002602001015181526020019081526020016000206001018054610c4490613baa565b80601f0160208091040260200160405190810160405280929190818152602001828054610c7090613baa565b8015610cbd5780601f10610c9257610100808354040283529160200191610cbd565b820191906000526020600020905b815481529060010190602001808311610ca057829003601f168201915b5050505050848281518110610cd557610cd4613c6d565b5b6020026020010181905250600e6000878381518110610cf757610cf6613c6d565b5b6020026020010151815260200190815260200160002060020160009054906101000a900473ffffffffffffffffffffffffffffffffffffffff16838281518110610d4457610d43613c6d565b5b602002602001019073ffffffffffffffffffffffffffffffffffffffff16908173ffffffffffffffffffffffffffffffffffffffff1681525050600e6000878381518110610d9557610d94613c6d565b5b6020026020010151815260200190815260200160002060040154828281518110610dc257610dc1613c6d565b5b6020026020010181815250508080610dd990613ccb565b915050610b02565b5084848484849a509a509a509a509a505050505050509091929394565b6000610e09826118a7565b90508073ffffffffffffffffffffffffffffffffffffffff168373ffffffffffffffffffffffffffffffffffffffff1603610e79576040517f08c379a0000000000000000000000000000000000000000000000000000000008152600401610e7090613d85565b60405180910390fd5b8073ffffffffffffffffffffffffffffffffffffffff16610e986120b1565b73ffffffffffffffffffffffffffffffffffffffff161480610ec75750610ec681610ec16120b1565b611d8c565b5b610f06576040517f08c379a0000000000000000000000000000000000000000000000000000000008152600401610efd90613e17565b60405180910390fd5b610f1083836120b9565b505050565b6000600880549050905090565b610f33610f2d6120b1565b82612172565b610f72576040517f08c379a0000000000000000000000000000000000000000000000000000000008152600401610f6990613ea9565b60405180910390fd5b610f7d838383612250565b505050565b600073ffffffffffffffffffffffffffffffffffffffff16610fa3826118a7565b73ffffffffffffffffffffffffffffffffffffffff1603610ff9576040517f08c379a0000000000000000000000000000000000000000000000000000000008152600401610ff090613f15565b60405180910390fd5b3373ffffffffffffffffffffffffffffffffffffffff16611019826118a7565b73ffffffffffffffffffffffffffffffffffffffff160361106f576040517f08c379a000000000000000000000000000000000000000000000000000000000815260040161106690613f81565b60405180910390fd5b600e6000828152602001908152602001600020600401543410156110c8576040517f08c379a00000000000000000000000000000000000000000000000000000000081526004016110bf90614013565b60405180910390fd5b6110f9346110d5836118a7565b73ffffffffffffffffffffffffffffffffffffffff166124b690919063ffffffff16565b600e6000828152602001908152602001600020600301339080600181540180825580915050600190039060005260206000200160009091909190916101000a81548173ffffffffffffffffffffffffffffffffffffffff021916908373ffffffffffffffffffffffffffffffffffffffff1602179055503373ffffffffffffffffffffffffffffffffffffffff16817f7b485c36dcf709483c429df2e8be305fb59a24819269b17bb215fdb844f540af60405160405180910390a350565b60006111c283611958565b8210611203576040517f08c379a00000000000000000000000000000000000000000000000000000000081526004016111fa906140a5565b60405180910390fd5b600660008473ffffffffffffffffffffffffffffffffffffffff1673ffffffffffffffffffffffffffffffffffffffff168152602001908152602001600020600083815260200190815260200160002054905092915050565b3373ffffffffffffffffffffffffffffffffffffffff1661127c836118a7565b73ffffffffffffffffffffffffffffffffffffffff16146112d2576040517f08c379a00000000000000000000000000000000000000000000000000000000081526004016112c990614137565b60405180910390fd5b80600e6000848152602001908152602001600020600401819055505050565b6060600e600083815260200190815260200160002060030180548060200260200160405190810160405280929190818152602001828054801561138957602002820191906000526020600020905b8160009054906101000a900473ffffffffffffffffffffffffffffffffffffffff1673ffffffffffffffffffffffffffffffffffffffff168152602001906001019080831161133f575b50505050509050919050565b600781565b3373ffffffffffffffffffffffffffffffffffffffff166113ba836118a7565b73ffffffffffffffffffffffffffffffffffffffff1614611410576040517f08c379a000000000000000000000000000000000000000000000000000000000815260040161140790614137565b60405180910390fd5b600c54341015611455576040517f08c379a000000000000000000000000000000000000000000000000000000000815260040161144c906141c9565b60405180910390fd5b611468611461836118a7565b8284612250565b611470611a97565b73ffffffffffffffffffffffffffffffffffffffff163373ffffffffffffffffffffffffffffffffffffffff16146114b6576114b56114ad611a97565b600c546124b6565b5b80600e600084815260200190815260200160002060020160006101000a81548173ffffffffffffffffffffffffffffffffffffffff021916908373ffffffffffffffffffffffffffffffffffffffff160217905550818173ffffffffffffffffffffffffffffffffffffffff1661152c846118a7565b73ffffffffffffffffffffffffffffffffffffffff167f7a4ce38372220b7ac604ef415628e3189ca44d802f20bf7e73a228c874c2ddcf60405160405180910390a45050565b61157a6120b1565b73ffffffffffffffffffffffffffffffffffffffff16611598611a97565b73ffffffffffffffffffffffffffffffffffffffff16146115ee576040517f08c379a00000000000000000000000000000000000000000000000000000000081526004016115e590614235565b60405180910390fd5b61161e476115fa611a97565b73ffffffffffffffffffffffffffffffffffffffff166124b690919063ffffffff16565b565b61163b83838360405180602001604052806000815250611b69565b505050565b600e60205280600052604060002060009150905080600001805461166390613baa565b80601f016020809104026020016040519081016040528092919081815260200182805461168f90613baa565b80156116dc5780601f106116b1576101008083540402835291602001916116dc565b820191906000526020600020905b8154815290600101906020018083116116bf57829003601f168201915b5050505050908060010180546116f190613baa565b80601f016020809104026020016040519081016040528092919081815260200182805461171d90613baa565b801561176a5780601f1061173f5761010080835404028352916020019161176a565b820191906000526020600020905b81548152906001019060200180831161174d57829003601f168201915b5050505050908060020160009054906101000a900473ffffffffffffffffffffffffffffffffffffffff16908060040154905084565b60006117aa610f15565b82106117eb576040517f08c379a00000000000000000000000000000000000000000000000000000000081526004016117e2906142c7565b60405180910390fd5b600882815481106117ff576117fe613c6d565b5b90600052602060002001549050919050565b6118196120b1565b73ffffffffffffffffffffffffffffffffffffffff16611837611a97565b73ffffffffffffffffffffffffffffffffffffffff161461188d576040517f08c379a000000000000000000000000000000000000000000000000000000000815260040161188490614235565b60405180910390fd5b80600d90805190602001906118a3929190613038565b5050565b6000806002600084815260200190815260200160002060009054906101000a900473ffffffffffffffffffffffffffffffffffffffff169050600073ffffffffffffffffffffffffffffffffffffffff168173ffffffffffffffffffffffffffffffffffffffff160361194f576040517f08c379a000000000000000000000000000000000000000000000000000000000815260040161194690614359565b60405180910390fd5b80915050919050565b60008073ffffffffffffffffffffffffffffffffffffffff168273ffffffffffffffffffffffffffffffffffffffff16036119c8576040517f08c379a00000000000000000000000000000000000000000000000000000000081526004016119bf906143eb565b60405180910390fd5b600360008373ffffffffffffffffffffffffffffffffffffffff1673ffffffffffffffffffffffffffffffffffffffff168152602001908152602001600020549050919050565b611a176120b1565b73ffffffffffffffffffffffffffffffffffffffff16611a35611a97565b73ffffffffffffffffffffffffffffffffffffffff1614611a8b576040517f08c379a0000000000000000000000000000000000000000000000000000000008152600401611a8290614235565b60405180910390fd5b611a9560006125aa565b565b6000600a60009054906101000a900473ffffffffffffffffffffffffffffffffffffffff16905090565b606060018054611ad090613baa565b80601f0160208091040260200160405190810160405280929190818152602001828054611afc90613baa565b8015611b495780601f10611b1e57610100808354040283529160200191611b49565b820191906000526020600020905b815481529060010190602001808311611b2c57829003601f168201915b5050505050905090565b611b65611b5e6120b1565b8383612670565b5050565b611b7a611b746120b1565b83612172565b611bb9576040517f08c379a0000000000000000000000000000000000000000000000000000000008152600401611bb090613ea9565b60405180910390fd5b611bc5848484846127dc565b50505050565b6060611bd682612045565b611c15576040517f08c379a0000000000000000000000000000000000000000000000000000000008152600401611c0c9061447d565b60405180910390fd5b6000611c1f612838565b90506000815111611c3f5760405180602001604052806000815250611c6a565b80611c49846128ca565b604051602001611c5a9291906144d9565b6040516020818303038152906040525b915050919050565b600d8054611c7f90613baa565b80601f0160208091040260200160405190810160405280929190818152602001828054611cab90613baa565b8015611cf85780601f10611ccd57610100808354040283529160200191611cf8565b820191906000526020600020905b815481529060010190602001808311611cdb57829003601f168201915b505050505081565b600c5481565b611d0e6120b1565b73ffffffffffffffffffffffffffffffffffffffff16611d2c611a97565b73ffffffffffffffffffffffffffffffffffffffff1614611d82576040517f08c379a0000000000000000000000000000000000000000000000000000000008152600401611d7990614235565b60405180910390fd5b80600c8190555050565b6000600560008473ffffffffffffffffffffffffffffffffffffffff1673ffffffffffffffffffffffffffffffffffffffff16815260200190815260200160002060008373ffffffffffffffffffffffffffffffffffffffff1673ffffffffffffffffffffffffffffffffffffffff16815260200190815260200160002060009054906101000a900460ff16905092915050565b611e286120b1565b73ffffffffffffffffffffffffffffffffffffffff16611e46611a97565b73ffffffffffffffffffffffffffffffffffffffff1614611e9c576040517f08c379a0000000000000000000000000000000000000000000000000000000008152600401611e9390614235565b60405180910390fd5b600073ffffffffffffffffffffffffffffffffffffffff168173ffffffffffffffffffffffffffffffffffffffff1603611f0b576040517f08c379a0000000000000000000000000000000000000000000000000000000008152600401611f029061456f565b60405180910390fd5b611f14816125aa565b50565b600081600001549050919050565b6001816000016000828254019250508190555050565b6000808273ffffffffffffffffffffffffffffffffffffffff163b119050919050565b505050565b60007f80ac58cd000000000000000000000000000000000000000000000000000000007bffffffffffffffffffffffffffffffffffffffffffffffffffffffff1916827bffffffffffffffffffffffffffffffffffffffffffffffffffffffff1916148061202e57507f5b5e139f000000000000000000000000000000000000000000000000000000007bffffffffffffffffffffffffffffffffffffffffffffffffffffffff1916827bffffffffffffffffffffffffffffffffffffffffffffffffffffffff1916145b8061203e575061203d82612a2a565b5b9050919050565b60008073ffffffffffffffffffffffffffffffffffffffff166002600084815260200190815260200160002060009054906101000a900473ffffffffffffffffffffffffffffffffffffffff1673ffffffffffffffffffffffffffffffffffffffff1614159050919050565b600033905090565b816004600083815260200190815260200160002060006101000a81548173ffffffffffffffffffffffffffffffffffffffff021916908373ffffffffffffffffffffffffffffffffffffffff160217905550808273ffffffffffffffffffffffffffffffffffffffff1661212c836118a7565b73ffffffffffffffffffffffffffffffffffffffff167f8c5be1e5ebec7d5bd14f71427d1e84f3dd0314c0f7b2291e5b200ac8c7c3b92560405160405180910390a45050565b600061217d82612045565b6121bc576040517f08c379a00000000000000000000000000000000000000000000000000000000081526004016121b390614601565b60405180910390fd5b60006121c7836118a7565b90508073ffffffffffffffffffffffffffffffffffffffff168473ffffffffffffffffffffffffffffffffffffffff16148061220957506122088185611d8c565b5b8061224757508373ffffffffffffffffffffffffffffffffffffffff1661222f846108db565b73ffffffffffffffffffffffffffffffffffffffff16145b91505092915050565b8273ffffffffffffffffffffffffffffffffffffffff16612270826118a7565b73ffffffffffffffffffffffffffffffffffffffff16146122c6576040517f08c379a00000000000000000000000000000000000000000000000000000000081526004016122bd90614693565b60405180910390fd5b600073ffffffffffffffffffffffffffffffffffffffff168273ffffffffffffffffffffffffffffffffffffffff1603612335576040517f08c379a000000000000000000000000000000000000000000000000000000000815260040161232c90614725565b60405180910390fd5b612340838383612a94565b61234b6000826120b9565b6001600360008573ffffffffffffffffffffffffffffffffffffffff1673ffffffffffffffffffffffffffffffffffffffff168152602001908152602001600020600082825461239b9190614745565b925050819055506001600360008473ffffffffffffffffffffffffffffffffffffffff1673ffffffffffffffffffffffffffffffffffffffff16815260200190815260200160002060008282546123f29190614779565b92505081905550816002600083815260200190815260200160002060006101000a81548173ffffffffffffffffffffffffffffffffffffffff021916908373ffffffffffffffffffffffffffffffffffffffff160217905550808273ffffffffffffffffffffffffffffffffffffffff168473ffffffffffffffffffffffffffffffffffffffff167fddf252ad1be2c89b69c2b068fc378daa952ba7f163c4a11628f55a4df523b3ef60405160405180910390a46124b1838383612ba6565b505050565b804710156124f9576040517f08c379a00000000000000000000000000000000000000000000000000000000081526004016124f09061481b565b60405180910390fd5b60008273ffffffffffffffffffffffffffffffffffffffff168260405161251f9061486c565b60006040518083038185875af1925050503d806000811461255c576040519150601f19603f3d011682016040523d82523d6000602084013e612561565b606091505b50509050806125a5576040517f08c379a000000000000000000000000000000000000000000000000000000000815260040161259c906148f3565b60405180910390fd5b505050565b6000600a60009054906101000a900473ffffffffffffffffffffffffffffffffffffffff16905081600a60006101000a81548173ffffffffffffffffffffffffffffffffffffffff021916908373ffffffffffffffffffffffffffffffffffffffff1602179055508173ffffffffffffffffffffffffffffffffffffffff168173ffffffffffffffffffffffffffffffffffffffff167f8be0079c531659141344cd1fd0a4f28419497f9722a3daafe3b4186f6b6457e060405160405180910390a35050565b8173ffffffffffffffffffffffffffffffffffffffff168373ffffffffffffffffffffffffffffffffffffffff16036126de576040517f08c379a00000000000000000000000000000000000000000000000000000000081526004016126d59061495f565b60405180910390fd5b80600560008573ffffffffffffffffffffffffffffffffffffffff1673ffffffffffffffffffffffffffffffffffffffff16815260200190815260200160002060008473ffffffffffffffffffffffffffffffffffffffff1673ffffffffffffffffffffffffffffffffffffffff16815260200190815260200160002060006101000a81548160ff0219169083151502179055508173ffffffffffffffffffffffffffffffffffffffff168373ffffffffffffffffffffffffffffffffffffffff167f17307eab39ab6107e8899845ad3d59bd9653f200f220920489ca2b5937696c31836040516127cf919061318f565b60405180910390a3505050565b6127e7848484612250565b6127f384848484612bab565b612832576040517f08c379a0000000000000000000000000000000000000000000000000000000008152600401612829906149f1565b60405180910390fd5b50505050565b6060600d805461284790613baa565b80601f016020809104026020016040519081016040528092919081815260200182805461287390613baa565b80156128c05780601f10612895576101008083540402835291602001916128c0565b820191906000526020600020905b8154815290600101906020018083116128a357829003601f168201915b5050505050905090565b606060008203612911576040518060400160405280600181526020017f30000000000000000000000000000000000000000000000000000000000000008152509050612a25565b600082905060005b6000821461294357808061292c90613ccb565b915050600a8261293c9190614a40565b9150612919565b60008167ffffffffffffffff81111561295f5761295e61380a565b5b6040519080825280601f01601f1916602001820160405280156129915781602001600182028036833780820191505090505b5090505b60008514612a1e576001826129aa9190614745565b9150600a856129b99190614a71565b60306129c59190614779565b60f81b8183815181106129db576129da613c6d565b5b60200101907effffffffffffffffffffffffffffffffffffffffffffffffffffffffffffff1916908160001a905350600a85612a179190614a40565b9450612995565b8093505050505b919050565b60007f01ffc9a7000000000000000000000000000000000000000000000000000000007bffffffffffffffffffffffffffffffffffffffffffffffffffffffff1916827bffffffffffffffffffffffffffffffffffffffffffffffffffffffff1916149050919050565b612a9f838383611f5e565b600073ffffffffffffffffffffffffffffffffffffffff168373ffffffffffffffffffffffffffffffffffffffff1603612ae157612adc81612d32565b612b20565b8173ffffffffffffffffffffffffffffffffffffffff168373ffffffffffffffffffffffffffffffffffffffff1614612b1f57612b1e8382612d7b565b5b5b600073ffffffffffffffffffffffffffffffffffffffff168273ffffffffffffffffffffffffffffffffffffffff1603612b6257612b5d81612ee8565b612ba1565b8273ffffffffffffffffffffffffffffffffffffffff168273ffffffffffffffffffffffffffffffffffffffff1614612ba057612b9f8282612fb9565b5b5b505050565b505050565b6000612bcc8473ffffffffffffffffffffffffffffffffffffffff16611f3b565b15612d25578373ffffffffffffffffffffffffffffffffffffffff1663150b7a02612bf56120b1565b8786866040518563ffffffff1660e01b8152600401612c179493929190614af7565b6020604051808303816000875af1925050508015612c5357506040513d601f19601f82011682018060405250810190612c509190614b58565b60015b612cd5573d8060008114612c83576040519150601f19603f3d011682016040523d82523d6000602084013e612c88565b606091505b506000815103612ccd576040517f08c379a0000000000000000000000000000000000000000000000000000000008152600401612cc4906149f1565b60405180910390fd5b805181602001fd5b63150b7a0260e01b7bffffffffffffffffffffffffffffffffffffffffffffffffffffffff1916817bffffffffffffffffffffffffffffffffffffffffffffffffffffffff191614915050612d2a565b600190505b949350505050565b6008805490506009600083815260200190815260200160002081905550600881908060018154018082558091505060019003906000526020600020016000909190919091505550565b60006001612d8884611958565b612d929190614745565b9050600060076000848152602001908152602001600020549050818114612e77576000600660008673ffffffffffffffffffffffffffffffffffffffff1673ffffffffffffffffffffffffffffffffffffffff168152602001908152602001600020600084815260200190815260200160002054905080600660008773ffffffffffffffffffffffffffffffffffffffff1673ffffffffffffffffffffffffffffffffffffffff168152602001908152602001600020600084815260200190815260200160002081905550816007600083815260200190815260200160002081905550505b6007600084815260200190815260200160002060009055600660008573ffffffffffffffffffffffffffffffffffffffff1673ffffffffffffffffffffffffffffffffffffffff16815260200190815260200160002060008381526020019081526020016000206000905550505050565b60006001600880549050612efc9190614745565b9050600060096000848152602001908152602001600020549050600060088381548110612f2c57612f2b613c6d565b5b906000526020600020015490508060088381548110612f4e57612f4d613c6d565b5b906000526020600020018190555081600960008381526020019081526020016000208190555060096000858152602001908152602001600020600090556008805480612f9d57612f9c614b85565b5b6001900381819060005260206000200160009055905550505050565b6000612fc483611958565b905081600660008573ffffffffffffffffffffffffffffffffffffffff1673ffffffffffffffffffffffffffffffffffffffff168152602001908152602001600020600083815260200190815260200160002081905550806007600084815260200190815260200160002081905550505050565b82805461304490613baa565b90600052602060002090601f01602090048101928261306657600085556130ad565b82601f1061307f57805160ff19168380011785556130ad565b828001600101855582156130ad579182015b828111156130ac578251825591602001919060010190613091565b5b5090506130ba91906130be565b5090565b5b808211156130d75760008160009055506001016130bf565b5090565b6000604051905090565b600080fd5b600080fd5b60007fffffffff0000000000000000000000000000000000000000000000000000000082169050919050565b613124816130ef565b811461312f57600080fd5b50565b6000813590506131418161311b565b92915050565b60006020828403121561315d5761315c6130e5565b5b600061316b84828501613132565b91505092915050565b60008115159050919050565b61318981613174565b82525050565b60006020820190506131a46000830184613180565b92915050565b6000819050919050565b6131bd816131aa565b81146131c857600080fd5b50565b6000813590506131da816131b4565b92915050565b6000602082840312156131f6576131f56130e5565b5b6000613204848285016131cb565b91505092915050565b600073ffffffffffffffffffffffffffffffffffffffff82169050919050565b60006132388261320d565b9050919050565b6132488161322d565b82525050565b6000602082019050613263600083018461323f565b92915050565b600081519050919050565b600082825260208201905092915050565b60005b838110156132a3578082015181840152602081019050613288565b838111156132b2576000848401525b50505050565b6000601f19601f8301169050919050565b60006132d482613269565b6132de8185613274565b93506132ee818560208601613285565b6132f7816132b8565b840191505092915050565b6000602082019050818103600083015261331c81846132c9565b905092915050565b600081519050919050565b600082825260208201905092915050565b6000819050602082019050919050565b613359816131aa565b82525050565b600061336b8383613350565b60208301905092915050565b6000602082019050919050565b600061338f82613324565b613399818561332f565b93506133a483613340565b8060005b838110156133d55781516133bc888261335f565b97506133c783613377565b9250506001810190506133a8565b5085935050505092915050565b600081519050919050565b600082825260208201905092915050565b6000819050602082019050919050565b600082825260208201905092915050565b600061342a82613269565b613434818561340e565b9350613444818560208601613285565b61344d816132b8565b840191505092915050565b6000613464838361341f565b905092915050565b6000602082019050919050565b6000613484826133e2565b61348e81856133ed565b9350836020820285016134a0856133fe565b8060005b858110156134dc57848403895281516134bd8582613458565b94506134c88361346c565b925060208a019950506001810190506134a4565b50829750879550505050505092915050565b600081519050919050565b600082825260208201905092915050565b6000819050602082019050919050565b6135238161322d565b82525050565b6000613535838361351a565b60208301905092915050565b6000602082019050919050565b6000613559826134ee565b61356381856134f9565b935061356e8361350a565b8060005b8381101561359f5781516135868882613529565b975061359183613541565b925050600181019050613572565b5085935050505092915050565b600060a08201905081810360008301526135c68188613384565b905081810360208301526135da8187613479565b905081810360408301526135ee8186613479565b90508181036060830152613602818561354e565b905081810360808301526136168184613384565b90509695505050505050565b61362b8161322d565b811461363657600080fd5b50565b60008135905061364881613622565b92915050565b60008060408385031215613665576136646130e5565b5b600061367385828601613639565b9250506020613684858286016131cb565b9150509250929050565b613697816131aa565b82525050565b60006020820190506136b2600083018461368e565b92915050565b6000806000606084860312156136d1576136d06130e5565b5b60006136df86828701613639565b93505060206136f086828701613639565b9250506040613701868287016131cb565b9150509250925092565b60008060408385031215613722576137216130e5565b5b6000613730858286016131cb565b9250506020613741858286016131cb565b9150509250929050565b60006020820190508181036000830152613765818461354e565b905092915050565b60008060408385031215613784576137836130e5565b5b6000613792858286016131cb565b92505060206137a385828601613639565b9150509250929050565b600060808201905081810360008301526137c781876132c9565b905081810360208301526137db81866132c9565b90506137ea604083018561323f565b6137f7606083018461368e565b95945050505050565b600080fd5b600080fd5b7f4e487b7100000000000000000000000000000000000000000000000000000000600052604160045260246000fd5b613842826132b8565b810181811067ffffffffffffffff821117156138615761386061380a565b5b80604052505050565b60006138746130db565b90506138808282613839565b919050565b600067ffffffffffffffff8211156138a05761389f61380a565b5b6138a9826132b8565b9050602081019050919050565b82818337600083830152505050565b60006138d86138d384613885565b61386a565b9050828152602081018484840111156138f4576138f3613805565b5b6138ff8482856138b6565b509392505050565b600082601f83011261391c5761391b613800565b5b813561392c8482602086016138c5565b91505092915050565b60006020828403121561394b5761394a6130e5565b5b600082013567ffffffffffffffff811115613969576139686130ea565b5b61397584828501613907565b91505092915050565b600060208284031215613994576139936130e5565b5b60006139a284828501613639565b91505092915050565b6139b481613174565b81146139bf57600080fd5b50565b6000813590506139d1816139ab565b92915050565b600080604083850312156139ee576139ed6130e5565b5b60006139fc85828601613639565b9250506020613a0d858286016139c2565b9150509250929050565b600067ffffffffffffffff821115613a3257613a3161380a565b5b613a3b826132b8565b9050602081019050919050565b6000613a5b613a5684613a17565b61386a565b905082815260208101848484011115613a7757613a76613805565b5b613a828482856138b6565b509392505050565b600082601f830112613a9f57613a9e613800565b5b8135613aaf848260208601613a48565b91505092915050565b60008060008060808587031215613ad257613ad16130e5565b5b6000613ae087828801613639565b9450506020613af187828801613639565b9350506040613b02878288016131cb565b925050606085013567ffffffffffffffff811115613b2357613b226130ea565b5b613b2f87828801613a8a565b91505092959194509250565b60008060408385031215613b5257613b516130e5565b5b6000613b6085828601613639565b9250506020613b7185828601613639565b9150509250929050565b7f4e487b7100000000000000000000000000000000000000000000000000000000600052602260045260246000fd5b60006002820490506001821680613bc257607f821691505b602082108103613bd557613bd4613b7b565b5b50919050565b7f4552433732313a20617070726f76656420717565727920666f72206e6f6e657860008201527f697374656e7420746f6b656e0000000000000000000000000000000000000000602082015250565b6000613c37602c83613274565b9150613c4282613bdb565b604082019050919050565b60006020820190508181036000830152613c6681613c2a565b9050919050565b7f4e487b7100000000000000000000000000000000000000000000000000000000600052603260045260246000fd5b7f4e487b7100000000000000000000000000000000000000000000000000000000600052601160045260246000fd5b6000613cd6826131aa565b91507fffffffffffffffffffffffffffffffffffffffffffffffffffffffffffffffff8203613d0857613d07613c9c565b5b600182019050919050565b7f4552433732313a20617070726f76616c20746f2063757272656e74206f776e6560008201527f7200000000000000000000000000000000000000000000000000000000000000602082015250565b6000613d6f602183613274565b9150613d7a82613d13565b604082019050919050565b60006020820190508181036000830152613d9e81613d62565b9050919050565b7f4552433732313a20617070726f76652063616c6c6572206973206e6f74206f7760008201527f6e6572206e6f7220617070726f76656420666f7220616c6c0000000000000000602082015250565b6000613e01603883613274565b9150613e0c82613da5565b604082019050919050565b60006020820190508181036000830152613e3081613df4565b9050919050565b7f4552433732313a207472616e736665722063616c6c6572206973206e6f74206f60008201527f776e6572206e6f7220617070726f766564000000000000000000000000000000602082015250565b6000613e93603183613274565b9150613e9e82613e37565b604082019050919050565b60006020820190508181036000830152613ec281613e86565b9050919050565b7f436f6e74696e656e7420646f6573206e6f742065786973740000000000000000600082015250565b6000613eff601883613274565b9150613f0a82613ec9565b602082019050919050565b60006020820190508181036000830152613f2e81613ef2565b9050919050565b7f596f7520616c7265616479206f776e207468697320636f6e74696e656e740000600082015250565b6000613f6b601e83613274565b9150613f7682613f35565b602082019050919050565b60006020820190508181036000830152613f9a81613f5e565b9050919050565b7f4e6f7420656e6f7567682045746865722073656e7420746f20636f766572206360008201527f6974697a656e7368697020746178000000000000000000000000000000000000602082015250565b6000613ffd602e83613274565b915061400882613fa1565b604082019050919050565b6000602082019050818103600083015261402c81613ff0565b9050919050565b7f455243373231456e756d657261626c653a206f776e657220696e646578206f7560008201527f74206f6620626f756e6473000000000000000000000000000000000000000000602082015250565b600061408f602b83613274565b915061409a82614033565b604082019050919050565b600060208201905081810360008301526140be81614082565b9050919050565b7f596f7520617265206e6f7420746865206f776e6572206f66207468697320636f60008201527f6e74696e656e7400000000000000000000000000000000000000000000000000602082015250565b6000614121602783613274565b915061412c826140c5565b604082019050919050565b6000602082019050818103600083015261415081614114565b9050919050565b7f4e6f7420656e6f7567682045746865722073656e7420746f20636f766572207460008201527f65616d2066656500000000000000000000000000000000000000000000000000602082015250565b60006141b3602783613274565b91506141be82614157565b604082019050919050565b600060208201905081810360008301526141e2816141a6565b9050919050565b7f4f776e61626c653a2063616c6c6572206973206e6f7420746865206f776e6572600082015250565b600061421f602083613274565b915061422a826141e9565b602082019050919050565b6000602082019050818103600083015261424e81614212565b9050919050565b7f455243373231456e756d657261626c653a20676c6f62616c20696e646578206f60008201527f7574206f6620626f756e64730000000000000000000000000000000000000000602082015250565b60006142b1602c83613274565b91506142bc82614255565b604082019050919050565b600060208201905081810360008301526142e0816142a4565b9050919050565b7f4552433732313a206f776e657220717565727920666f72206e6f6e657869737460008201527f656e7420746f6b656e0000000000000000000000000000000000000000000000602082015250565b6000614343602983613274565b915061434e826142e7565b604082019050919050565b6000602082019050818103600083015261437281614336565b9050919050565b7f4552433732313a2062616c616e636520717565727920666f7220746865207a6560008201527f726f206164647265737300000000000000000000000000000000000000000000602082015250565b60006143d5602a83613274565b91506143e082614379565b604082019050919050565b60006020820190508181036000830152614404816143c8565b9050919050565b7f4552433732314d657461646174613a2055524920717565727920666f72206e6f60008201527f6e6578697374656e7420746f6b656e0000000000000000000000000000000000602082015250565b6000614467602f83613274565b91506144728261440b565b604082019050919050565b600060208201905081810360008301526144968161445a565b9050919050565b600081905092915050565b60006144b382613269565b6144bd818561449d565b93506144cd818560208601613285565b80840191505092915050565b60006144e582856144a8565b91506144f182846144a8565b91508190509392505050565b7f4f776e61626c653a206e6577206f776e657220697320746865207a65726f206160008201527f6464726573730000000000000000000000000000000000000000000000000000602082015250565b6000614559602683613274565b9150614564826144fd565b604082019050919050565b600060208201905081810360008301526145888161454c565b9050919050565b7f4552433732313a206f70657261746f7220717565727920666f72206e6f6e657860008201527f697374656e7420746f6b656e0000000000000000000000000000000000000000602082015250565b60006145eb602c83613274565b91506145f68261458f565b604082019050919050565b6000602082019050818103600083015261461a816145de565b9050919050565b7f4552433732313a207472616e736665722066726f6d20696e636f72726563742060008201527f6f776e6572000000000000000000000000000000000000000000000000000000602082015250565b600061467d602583613274565b915061468882614621565b604082019050919050565b600060208201905081810360008301526146ac81614670565b9050919050565b7f4552433732313a207472616e7366657220746f20746865207a65726f2061646460008201527f7265737300000000000000000000000000000000000000000000000000000000602082015250565b600061470f602483613274565b915061471a826146b3565b604082019050919050565b6000602082019050818103600083015261473e81614702565b9050919050565b6000614750826131aa565b915061475b836131aa565b92508282101561476e5761476d613c9c565b5b828203905092915050565b6000614784826131aa565b915061478f836131aa565b9250827fffffffffffffffffffffffffffffffffffffffffffffffffffffffffffffffff038211156147c4576147c3613c9c565b5b828201905092915050565b7f416464726573733a20696e73756666696369656e742062616c616e6365000000600082015250565b6000614805601d83613274565b9150614810826147cf565b602082019050919050565b60006020820190508181036000830152614834816147f8565b9050919050565b600081905092915050565b50565b600061485660008361483b565b915061486182614846565b600082019050919050565b600061487782614849565b9150819050919050565b7f416464726573733a20756e61626c6520746f2073656e642076616c75652c207260008201527f6563697069656e74206d61792068617665207265766572746564000000000000602082015250565b60006148dd603a83613274565b91506148e882614881565b604082019050919050565b6000602082019050818103600083015261490c816148d0565b9050919050565b7f4552433732313a20617070726f766520746f2063616c6c657200000000000000600082015250565b6000614949601983613274565b915061495482614913565b602082019050919050565b600060208201905081810360008301526149788161493c565b9050919050565b7f4552433732313a207472616e7366657220746f206e6f6e20455243373231526560008201527f63656976657220696d706c656d656e7465720000000000000000000000000000602082015250565b60006149db603283613274565b91506149e68261497f565b604082019050919050565b60006020820190508181036000830152614a0a816149ce565b9050919050565b7f4e487b7100000000000000000000000000000000000000000000000000000000600052601260045260246000fd5b6000614a4b826131aa565b9150614a56836131aa565b925082614a6657614a65614a11565b5b828204905092915050565b6000614a7c826131aa565b9150614a87836131aa565b925082614a9757614a96614a11565b5b828206905092915050565b600081519050919050565b600082825260208201905092915050565b6000614ac982614aa2565b614ad38185614aad565b9350614ae3818560208601613285565b614aec816132b8565b840191505092915050565b6000608082019050614b0c600083018761323f565b614b19602083018661323f565b614b26604083018561368e565b8181036060830152614b388184614abe565b905095945050505050565b600081519050614b528161311b565b92915050565b600060208284031215614b6e57614b6d6130e5565b5b6000614b7c84828501614b43565b91505092915050565b7f4e487b7100000000000000000000000000000000000000000000000000000000600052603160045260246000fdfea26469706673582212207f2dabd5d7b63ee14059073a5133cc2168b31ff04d4eedd0a34a636d4b0e576b64736f6c634300080d0033697066733a2f2f516d4e717a6e4e4e796d58444a345431736f4e324d396844687a55786d7854467a4a3556384551367132767a5265697066733a2f2f516d59666e77395531563879326336634e55726a4d37453135526b545235757243674872426e38614667396d754b697066733a2f2f516d587570394d4d56664c70774e68543744316357546e71696f4b58684b6d394d747a716b476b46637a42663964697066733a2f2f516d577a6a5566544d4552704a3165534a656b5631674d385732735867485046665735506654544e35504a4b6b57697066733a2f2f516d55616e4532666241644d7841577437656f6b374147394674446357514778756537794d646f426b4e366a3358697066733a2f2f516d5a36517559554369337a335971427556385831703776714a7437635079594e454a364d36576a41466b627653697066733a2f2f516d617a357659566334594e415263765151794a51464b73326d375a7a4662444e77756656674135475a79727959",
  "immutableReferences": {},
  "source": "pragma solidity ^0.8.13;\n\nimport \"@openzeppelin/contracts/utils/Counters.sol\";\nimport \"@openzeppelin/contracts/access/Ownable.sol\";\nimport \"@openzeppelin/contracts/utils/math/SafeMath.sol\";\nimport \"@openzeppelin/contracts/token/ERC721/extensions/ERC721Enumerable.sol\";\nimport \"@openzeppelin/contracts/utils/Address.sol\";\n\ncontract ContinentToken is ERC721Enumerable, Ownable {\n    using SafeMath for uint256;\n    using Counters for Counters.Counter;\n    using Address for address payable;\n\n    Counters.Counter private _tokenIds;\n    // The max number of NFTs in the collection 7 representing Africa, Asia, Europe, North America, South America, Australia, and Antarctica\n    uint256 public constant MAX_SUPPLY = 7;\n\n    uint256 public teamFee = 0.01 ether;\n\n    string public baseTokenURI;\n\n    struct Continent {\n        string name;\n        string metadataURI;\n        address owner;\n        address[] citizens;\n        uint256 citizenTax;\n    }\n\n    mapping(uint256 => Continent) public continents;\n\n\n    event ContinentCreated(uint256 indexed tokenId, string name, string metadataURI);\n    event CitizenshipPurchased(uint256 indexed tokenId, address indexed citizen);\n    event ContinentTransfered(address indexed from, address indexed to, uint256 indexed tokenId);\n\n    constructor(string memory name, string memory symbol, string memory _baseTokenURI) ERC721(name, symbol) {\n        baseTokenURI = _baseTokenURI;\n        _initializeContinents();\n    }\n\n    function _initializeContinents() private {\n        _createContinent(\"Africa\", \"ipfs://QmXup9MMVfLpwNhT7D1cWTnqioKXhKm9MtzqkGkFczBf9d\");\n        _createContinent(\"Asia\", \"ipfs://QmWzjUfTMERpJ1eSJekV1gM8W2sXgHPFfW5PfTTN5PJKkW\");\n        _createContinent(\"Europe\", \"ipfs://QmYfnw9U1V8y2c6cNUrjM7E15RkTR5urCgHrBn8aFg9muK\");\n        _createContinent(\"North America\", \"ipfs://Qmaz5vYVc4YNARcvQQyJQFKs2m7ZzFbDNwufVgA5GZyryY\");\n        _createContinent(\"South America\", \"ipfs://QmUanE2fbAdMxAWt7eok7AG9FtDcWQGxue7yMdoBkN6j3X\");\n        _createContinent(\"Australia\", \"ipfs://QmZ6QuYUCi3z3YqBuV8X1p7vqJt7cPyYNEJ6M6WjAFkbvS\");\n        _createContinent(\"Antarctica\", \"ipfs://QmNqznNNymXDJ4T1soN2M9hDhzUxmxTFzJ5V8EQ6q2vzRe\");\n    }\n\n    function _createContinent(string memory _name, string memory _metadataURI) private {\n        require(_tokenIds.current() < MAX_SUPPLY, \"Max supply reached\");\n\n        _tokenIds.increment();\n        uint256 tokenId = _tokenIds.current();\n        _safeMint(address(this), tokenId);\n\n        continents[tokenId] = Continent({\n            name: _name,\n            metadataURI: _metadataURI,\n            owner: address(this),\n            citizens: new address[](0),\n            citizenTax: 0\n        });\n\n        emit ContinentCreated(tokenId, _name, _metadataURI);\n    }\n\n    function transferContinent(uint256 _tokenId, address _to) external payable {\n        require(ownerOf(_tokenId) == msg.sender, \"You are not the owner of this continent\");\n        require(msg.value >= teamFee, \"Not enough Ether sent to cover team fee\");\n        \n        _transfer(ownerOf(_tokenId), _to, _tokenId);\n\n        if(msg.sender != owner()){\n            Address.sendValue(payable(owner()), teamFee);\n        }\n\n        continents[_tokenId].owner = _to;\n\n        emit ContinentTransfered(ownerOf(_tokenId), _to, _tokenId);\n    }\n\n    function getAllContinents() public view returns (uint256[] memory, string[] memory, string[] memory, address[] memory, uint256[] memory) {\n        uint256 totalContinents = totalSupply();\n        uint256[] memory tokenIds = new uint256[](totalContinents);\n        string[] memory names = new string[](totalContinents);\n        string[] memory metadataURIs = new string[](totalContinents);\n        address[] memory owners = new address[](totalContinents);\n        uint256[] memory citizenTaxes = new uint256[](totalContinents);\n\n        for (uint256 i = 0; i < totalContinents; i++) {\n            tokenIds[i] = tokenByIndex(i);\n            names[i] = continents[tokenIds[i]].name;\n            metadataURIs[i] = continents[tokenIds[i]].metadataURI;\n            owners[i] = continents[tokenIds[i]].owner;\n            citizenTaxes[i] = continents[tokenIds[i]].citizenTax;\n        }\n\n        return (tokenIds, names, metadataURIs, owners, citizenTaxes);\n    }\n\n    function getContinentOwner(uint256 _tokenId) external view returns (address) {\n        return ownerOf(_tokenId);\n    }\n\n    function buyCitizenship(uint256 _tokenId) external payable {\n        require(ownerOf(_tokenId) != address(0), \"Continent does not exist\");\n        require(ownerOf(_tokenId) != msg.sender, \"You already own this continent\");\n        require(msg.value >= continents[_tokenId].citizenTax, \"Not enough Ether sent to cover citizenship tax\");\n\n        payable(ownerOf(_tokenId)).sendValue(msg.value);\n        continents[_tokenId].citizens.push(msg.sender);\n\n        emit CitizenshipPurchased(_tokenId, msg.sender);\n    }\n\n    function setCitizenTax(uint256 _tokenId, uint256 _citizenTax) external {\n        require(ownerOf(_tokenId) == msg.sender, \"You are not the owner of this continent\");\n        continents[_tokenId].citizenTax = _citizenTax;\n    } \n\n    function getCitizens(uint256 _tokenId) external view returns (address[] memory) {\n        return continents[_tokenId].citizens;\n    }\n\n    function setTeamFee(uint256 _newTeamFee) external onlyOwner {\n        teamFee = _newTeamFee;\n    }\n\n    function _baseURI() internal view virtual override returns (string memory) {\n        return baseTokenURI;\n    }\n\n    function setBaseURI(string memory _baseTokenURI) public onlyOwner {\n        baseTokenURI = _baseTokenURI;\n    }\n\n    function withdraw() external onlyOwner {\n        payable(owner()).sendValue(address(this).balance);\n    }\n}\n\n",
  "sourcePath": "/Users/timicodes/Code/world-nft/contracts/ContinentToken.sol",
  "compiler": {
    "name": "solc",
    "version": "0.8.13+commit.abaa5c0e.Emscripten.clang"
  },
  "schemaVersion": "3.4.16",
  "updatedAt": "2024-05-11T12:40:14.460Z",
  "networkType": "ethereum",
  "devdoc": {
    "kind": "dev",
    "methods": {
      "approve(address,uint256)": {
        "details": "See {IERC721-approve}."
      },
      "balanceOf(address)": {
        "details": "See {IERC721-balanceOf}."
      },
      "getApproved(uint256)": {
        "details": "See {IERC721-getApproved}."
      },
      "isApprovedForAll(address,address)": {
        "details": "See {IERC721-isApprovedForAll}."
      },
      "name()": {
        "details": "See {IERC721Metadata-name}."
      },
      "owner()": {
        "details": "Returns the address of the current owner."
      },
      "ownerOf(uint256)": {
        "details": "See {IERC721-ownerOf}."
      },
      "renounceOwnership()": {
        "details": "Leaves the contract without owner. It will not be possible to call `onlyOwner` functions anymore. Can only be called by the current owner. NOTE: Renouncing ownership will leave the contract without an owner, thereby removing any functionality that is only available to the owner."
      },
      "safeTransferFrom(address,address,uint256)": {
        "details": "See {IERC721-safeTransferFrom}."
      },
      "safeTransferFrom(address,address,uint256,bytes)": {
        "details": "See {IERC721-safeTransferFrom}."
      },
      "setApprovalForAll(address,bool)": {
        "details": "See {IERC721-setApprovalForAll}."
      },
      "supportsInterface(bytes4)": {
        "details": "See {IERC165-supportsInterface}."
      },
      "symbol()": {
        "details": "See {IERC721Metadata-symbol}."
      },
      "tokenByIndex(uint256)": {
        "details": "See {IERC721Enumerable-tokenByIndex}."
      },
      "tokenOfOwnerByIndex(address,uint256)": {
        "details": "See {IERC721Enumerable-tokenOfOwnerByIndex}."
      },
      "tokenURI(uint256)": {
        "details": "See {IERC721Metadata-tokenURI}."
      },
      "totalSupply()": {
        "details": "See {IERC721Enumerable-totalSupply}."
      },
      "transferFrom(address,address,uint256)": {
        "details": "See {IERC721-transferFrom}."
      },
      "transferOwnership(address)": {
        "details": "Transfers ownership of the contract to a new account (`newOwner`). Can only be called by the current owner."
      }
    },
    "version": 1
  },
  "userdoc": {
    "kind": "user",
    "methods": {},
    "version": 1
  }
}